{
  "_format": "hh-sol-artifact-1",
  "contractName": "TokenVesting",
  "sourceName": "contracts/vesting/TokenVesting.sol",
  "abi": [
    {
      "inputs": [
        {
          "internalType": "address",
          "name": "token_",
          "type": "address"
        }
      ],
      "stateMutability": "nonpayable",
      "type": "constructor"
    },
    {
      "anonymous": false,
      "inputs": [
        {
          "indexed": true,
          "internalType": "address",
          "name": "previousOwner",
          "type": "address"
        },
        {
          "indexed": true,
          "internalType": "address",
          "name": "newOwner",
          "type": "address"
        }
      ],
      "name": "OwnershipTransferred",
      "type": "event"
    },
    {
      "anonymous": false,
      "inputs": [
        {
          "indexed": false,
          "internalType": "uint256",
          "name": "amount",
          "type": "uint256"
        }
      ],
      "name": "Released",
      "type": "event"
    },
    {
      "anonymous": false,
      "inputs": [],
      "name": "Revoked",
      "type": "event"
    },
    {
      "stateMutability": "payable",
      "type": "fallback"
    },
    {
      "inputs": [
        {
          "internalType": "address",
          "name": "holder",
          "type": "address"
        }
      ],
      "name": "computeNextVestingScheduleIdForHolder",
      "outputs": [
        {
          "internalType": "bytes32",
          "name": "",
          "type": "bytes32"
        }
      ],
      "stateMutability": "view",
      "type": "function"
    },
    {
      "inputs": [
        {
          "internalType": "bytes32",
          "name": "vestingScheduleId",
          "type": "bytes32"
        }
      ],
      "name": "computeReleasableAmount",
      "outputs": [
        {
          "internalType": "uint256",
          "name": "",
          "type": "uint256"
        }
      ],
      "stateMutability": "view",
      "type": "function"
    },
    {
      "inputs": [
        {
          "internalType": "address",
          "name": "holder",
          "type": "address"
        },
        {
          "internalType": "uint256",
          "name": "index",
          "type": "uint256"
        }
      ],
      "name": "computeVestingScheduleIdForAddressAndIndex",
      "outputs": [
        {
          "internalType": "bytes32",
          "name": "",
          "type": "bytes32"
        }
      ],
      "stateMutability": "pure",
      "type": "function"
    },
    {
      "inputs": [
        {
          "internalType": "address",
          "name": "_beneficiary",
          "type": "address"
        },
        {
          "internalType": "uint256",
          "name": "_start",
          "type": "uint256"
        },
        {
          "internalType": "uint256",
          "name": "_cliff",
          "type": "uint256"
        },
        {
          "internalType": "uint256",
          "name": "_duration",
          "type": "uint256"
        },
        {
          "internalType": "uint256",
          "name": "_slicePeriodSeconds",
          "type": "uint256"
        },
        {
          "internalType": "bool",
          "name": "_revocable",
          "type": "bool"
        },
        {
          "internalType": "uint256",
          "name": "_amount",
          "type": "uint256"
        }
      ],
      "name": "createVestingSchedule",
      "outputs": [],
      "stateMutability": "nonpayable",
      "type": "function"
    },
    {
      "inputs": [
        {
          "internalType": "address",
          "name": "holder",
          "type": "address"
        }
      ],
      "name": "getLastVestingScheduleForHolder",
      "outputs": [
        {
          "components": [
            {
              "internalType": "bool",
              "name": "initialized",
              "type": "bool"
            },
            {
              "internalType": "address",
              "name": "beneficiary",
              "type": "address"
            },
            {
              "internalType": "uint256",
              "name": "cliff",
              "type": "uint256"
            },
            {
              "internalType": "uint256",
              "name": "start",
              "type": "uint256"
            },
            {
              "internalType": "uint256",
              "name": "duration",
              "type": "uint256"
            },
            {
              "internalType": "uint256",
              "name": "slicePeriodSeconds",
              "type": "uint256"
            },
            {
              "internalType": "bool",
              "name": "revocable",
              "type": "bool"
            },
            {
              "internalType": "uint256",
              "name": "amountTotal",
              "type": "uint256"
            },
            {
              "internalType": "uint256",
              "name": "released",
              "type": "uint256"
            },
            {
              "internalType": "bool",
              "name": "revoked",
              "type": "bool"
            }
          ],
          "internalType": "struct TokenVesting.VestingSchedule",
          "name": "",
          "type": "tuple"
        }
      ],
      "stateMutability": "view",
      "type": "function"
    },
    {
      "inputs": [],
      "name": "getToken",
      "outputs": [
        {
          "internalType": "address",
          "name": "",
          "type": "address"
        }
      ],
      "stateMutability": "view",
      "type": "function"
    },
    {
      "inputs": [
        {
          "internalType": "uint256",
          "name": "index",
          "type": "uint256"
        }
      ],
      "name": "getVestingIdAtIndex",
      "outputs": [
        {
          "internalType": "bytes32",
          "name": "",
          "type": "bytes32"
        }
      ],
      "stateMutability": "view",
      "type": "function"
    },
    {
      "inputs": [
        {
          "internalType": "bytes32",
          "name": "vestingScheduleId",
          "type": "bytes32"
        }
      ],
      "name": "getVestingSchedule",
      "outputs": [
        {
          "components": [
            {
              "internalType": "bool",
              "name": "initialized",
              "type": "bool"
            },
            {
              "internalType": "address",
              "name": "beneficiary",
              "type": "address"
            },
            {
              "internalType": "uint256",
              "name": "cliff",
              "type": "uint256"
            },
            {
              "internalType": "uint256",
              "name": "start",
              "type": "uint256"
            },
            {
              "internalType": "uint256",
              "name": "duration",
              "type": "uint256"
            },
            {
              "internalType": "uint256",
              "name": "slicePeriodSeconds",
              "type": "uint256"
            },
            {
              "internalType": "bool",
              "name": "revocable",
              "type": "bool"
            },
            {
              "internalType": "uint256",
              "name": "amountTotal",
              "type": "uint256"
            },
            {
              "internalType": "uint256",
              "name": "released",
              "type": "uint256"
            },
            {
              "internalType": "bool",
              "name": "revoked",
              "type": "bool"
            }
          ],
          "internalType": "struct TokenVesting.VestingSchedule",
          "name": "",
          "type": "tuple"
        }
      ],
      "stateMutability": "view",
      "type": "function"
    },
    {
      "inputs": [
        {
          "internalType": "address",
          "name": "holder",
          "type": "address"
        },
        {
          "internalType": "uint256",
          "name": "index",
          "type": "uint256"
        }
      ],
      "name": "getVestingScheduleByAddressAndIndex",
      "outputs": [
        {
          "components": [
            {
              "internalType": "bool",
              "name": "initialized",
              "type": "bool"
            },
            {
              "internalType": "address",
              "name": "beneficiary",
              "type": "address"
            },
            {
              "internalType": "uint256",
              "name": "cliff",
              "type": "uint256"
            },
            {
              "internalType": "uint256",
              "name": "start",
              "type": "uint256"
            },
            {
              "internalType": "uint256",
              "name": "duration",
              "type": "uint256"
            },
            {
              "internalType": "uint256",
              "name": "slicePeriodSeconds",
              "type": "uint256"
            },
            {
              "internalType": "bool",
              "name": "revocable",
              "type": "bool"
            },
            {
              "internalType": "uint256",
              "name": "amountTotal",
              "type": "uint256"
            },
            {
              "internalType": "uint256",
              "name": "released",
              "type": "uint256"
            },
            {
              "internalType": "bool",
              "name": "revoked",
              "type": "bool"
            }
          ],
          "internalType": "struct TokenVesting.VestingSchedule",
          "name": "",
          "type": "tuple"
        }
      ],
      "stateMutability": "view",
      "type": "function"
    },
    {
      "inputs": [],
      "name": "getVestingSchedulesCount",
      "outputs": [
        {
          "internalType": "uint256",
          "name": "",
          "type": "uint256"
        }
      ],
      "stateMutability": "view",
      "type": "function"
    },
    {
      "inputs": [
        {
          "internalType": "address",
          "name": "_beneficiary",
          "type": "address"
        }
      ],
      "name": "getVestingSchedulesCountByBeneficiary",
      "outputs": [
        {
          "internalType": "uint256",
          "name": "",
          "type": "uint256"
        }
      ],
      "stateMutability": "view",
      "type": "function"
    },
    {
      "inputs": [],
      "name": "getVestingSchedulesTotalAmount",
      "outputs": [
        {
          "internalType": "uint256",
          "name": "",
          "type": "uint256"
        }
      ],
      "stateMutability": "view",
      "type": "function"
    },
    {
      "inputs": [],
      "name": "getWithdrawableAmount",
      "outputs": [
        {
          "internalType": "uint256",
          "name": "",
          "type": "uint256"
        }
      ],
      "stateMutability": "view",
      "type": "function"
    },
    {
      "inputs": [],
      "name": "owner",
      "outputs": [
        {
          "internalType": "address",
          "name": "",
          "type": "address"
        }
      ],
      "stateMutability": "view",
      "type": "function"
    },
    {
      "inputs": [
        {
          "internalType": "bytes32",
          "name": "vestingScheduleId",
          "type": "bytes32"
        },
        {
          "internalType": "uint256",
          "name": "amount",
          "type": "uint256"
        }
      ],
      "name": "release",
      "outputs": [],
      "stateMutability": "nonpayable",
      "type": "function"
    },
    {
      "inputs": [],
      "name": "renounceOwnership",
      "outputs": [],
      "stateMutability": "nonpayable",
      "type": "function"
    },
    {
      "inputs": [
        {
          "internalType": "bytes32",
          "name": "vestingScheduleId",
          "type": "bytes32"
        }
      ],
      "name": "revoke",
      "outputs": [],
      "stateMutability": "nonpayable",
      "type": "function"
    },
    {
      "inputs": [
        {
          "internalType": "address",
          "name": "newOwner",
          "type": "address"
        }
      ],
      "name": "transferOwnership",
      "outputs": [],
      "stateMutability": "nonpayable",
      "type": "function"
    },
    {
      "inputs": [
        {
          "internalType": "uint256",
          "name": "amount",
          "type": "uint256"
        }
      ],
      "name": "withdraw",
      "outputs": [],
      "stateMutability": "nonpayable",
      "type": "function"
    },
    {
      "stateMutability": "payable",
      "type": "receive"
    }
  ],
  "bytecode": "0x60a06040523480156200001157600080fd5b5060405162001f0938038062001f098339810160408190526200003491620000bc565b600062000040620000b8565b600080546001600160a01b0319166001600160a01b0383169081178255604051929350917f8be0079c531659141344cd1fd0a4f28419497f9722a3daafe3b4186f6b6457e0908290a350600180556001600160a01b038116620000a257600080fd5b60601b6001600160601b031916608052620000ec565b3390565b600060208284031215620000ce578081fd5b81516001600160a01b0381168114620000e5578182fd5b9392505050565b60805160601c611df0620001196000398061072852806108ae5280610aff5280610d025250611df06000f3fe6080604052600436106101185760003560e01c80638af104da116100a0578063ea1bb3d511610064578063ea1bb3d5146102cf578063f2fde38b146102ef578063f51321d71461030f578063f7c469f01461032f578063f9079b371461034f5761011f565b80638af104da146102455780638da5cb5b1461026557806390be10cc1461027a5780639ef346b41461028f578063b75c7dc6146102af5761011f565b806348deb471116100e757806348deb471146101ae5780635a7bb69a146101c357806366afd8ef146101e3578063715018a6146102035780637e913dc6146102185761011f565b8063130836171461012157806317e289e91461014c57806321df0da71461016c5780632e1a7d4d1461018e5761011f565b3661011f57005b005b34801561012d57600080fd5b5061013661036f565b60405161014391906119c2565b60405180910390f35b34801561015857600080fd5b5061011f6101673660046118be565b610375565b34801561017857600080fd5b50610181610726565b60405161014391906119ae565b34801561019a57600080fd5b5061011f6101a9366004611928565b61074a565b3480156101ba57600080fd5b506101366108dc565b3480156101cf57600080fd5b506101366101de36600461187b565b6108e2565b3480156101ef57600080fd5b5061011f6101fe366004611958565b610901565b34801561020f57600080fd5b5061011f610b34565b34801561022457600080fd5b5061023861023336600461187b565b610be0565b6040516101439190611c96565b34801561025157600080fd5b50610136610260366004611895565b610cb5565b34801561027157600080fd5b50610181610ce9565b34801561028657600080fd5b50610136610cf8565b34801561029b57600080fd5b506102386102aa366004611928565b610da7565b3480156102bb57600080fd5b5061011f6102ca366004611928565b610e4e565b3480156102db57600080fd5b506101366102ea366004611928565b611010565b3480156102fb57600080fd5b5061011f61030a36600461187b565b6110fa565b34801561031b57600080fd5b5061023861032a366004611895565b6111fc565b34801561033b57600080fd5b5061013661034a36600461187b565b611218565b34801561035b57600080fd5b5061013661036a366004611928565b61123c565b60025490565b61037d611283565b6001600160a01b031661038e610ce9565b6001600160a01b0316146103d7576040805162461bcd60e51b81526020600482018190526024820152600080516020611d71833981519152604482015290519081900360640190fd5b80306001600160a01b03166390be10cc6040518163ffffffff1660e01b815260040160206040518083038186803b15801561041157600080fd5b505afa158015610425573d6000803e3d6000fd5b505050506040513d601f19601f820116820180604052508101906104499190611940565b10156104705760405162461bcd60e51b815260040161046790611c26565b60405180910390fd5b600084116104905760405162461bcd60e51b815260040161046790611b31565b600081116104b05760405162461bcd60e51b815260040161046790611abb565b60018310156104d15760405162461bcd60e51b8152600401610467906119cb565b604051630f7c469f60e41b8152600090309063f7c469f0906104f7908b906004016119ae565b60206040518083038186803b15801561050f57600080fd5b505afa158015610523573d6000803e3d6000fd5b505050506040513d601f19601f820116820180604052508101906105479190611940565b905060006105558888611287565b90506040518061014001604052806001151581526020018a6001600160a01b03168152602001828152602001898152602001878152602001868152602001851515815260200184815260200160008152602001600015158152506003600084815260200190815260200160002060008201518160000160006101000a81548160ff02191690831515021790555060208201518160000160016101000a8154816001600160a01b0302191690836001600160a01b0316021790555060408201518160010155606082015181600201556080820151816003015560a0820151816004015560c08201518160050160006101000a81548160ff02191690831515021790555060e0820151816006015561010082015181600701556101208201518160080160006101000a81548160ff0219169083151502179055509050506106a58360045461128790919063ffffffff16565b6004556002805460018181019092557f405787fa12a823e0f2b7631cc41b3ba8828b3321ca811111fa75cd3aa3bb5ace018390556001600160a01b038a16600090815260056020526040902054906106fe908290611287565b6001600160a01b03909a16600090815260056020526040902099909955505050505050505050565b7f000000000000000000000000000000000000000000000000000000000000000090565b600260015414156107a2576040805162461bcd60e51b815260206004820152601f60248201527f5265656e7472616e637947756172643a207265656e7472616e742063616c6c00604482015290519081900360640190fd5b60026001556107af611283565b6001600160a01b03166107c0610ce9565b6001600160a01b031614610809576040805162461bcd60e51b81526020600482018190526024820152600080516020611d71833981519152604482015290519081900360640190fd5b80306001600160a01b03166390be10cc6040518163ffffffff1660e01b815260040160206040518083038186803b15801561084357600080fd5b505afa158015610857573d6000803e3d6000fd5b505050506040513d601f19601f8201168201806040525081019061087b9190611940565b10156108995760405162461bcd60e51b815260040161046790611bdb565b6108d56108a4610ce9565b6001600160a01b037f00000000000000000000000000000000000000000000000000000000000000001690836112e1565b5060018055565b60045490565b6001600160a01b0381166000908152600560205260409020545b919050565b60026001541415610959576040805162461bcd60e51b815260206004820152601f60248201527f5265656e7472616e637947756172643a207265656e7472616e742063616c6c00604482015290519081900360640190fd5b60026001908155600083815260036020526040902054839160ff90911615151461098257600080fd5b60008181526003602052604090206008015460ff16156109a157600080fd5b6000838152600360205260408120805490916101009091046001600160a01b03163314906109cd610ce9565b6001600160a01b0316336001600160a01b031614905081806109ec5750805b610a085760405162461bcd60e51b815260040161046790611b73565b6040805161014081018252845460ff808216151583526001600160a01b03610100928390041660208401526001870154938301939093526002860154606083015260038601546080830152600486015460a083015260058601548316151560c0830152600686015460e083015260078601549082015260088501549091161515610120820152600090610a9a90611338565b905085811015610abc5760405162461bcd60e51b815260040161046790611a18565b6007840154610acb9087611287565b600785015583546004546101009091046001600160a01b031690610aef908861142e565b600455610b266001600160a01b037f00000000000000000000000000000000000000000000000000000000000000001682896112e1565b505060018055505050505050565b610b3c611283565b6001600160a01b0316610b4d610ce9565b6001600160a01b031614610b96576040805162461bcd60e51b81526020600482018190526024820152600080516020611d71833981519152604482015290519081900360640190fd5b600080546040516001600160a01b03909116907f8be0079c531659141344cd1fd0a4f28419497f9722a3daafe3b4186f6b6457e0908390a3600080546001600160a01b0319169055565b610be8611802565b6001600160a01b03821660009081526005602052604081205460039190610c1490859060001901610cb5565b81526020808201929092526040908101600020815161014081018352815460ff80821615158352610100918290046001600160a01b0316958301959095526001830154938201939093526002820154606082015260038201546080820152600482015460a082015260058201548416151560c0820152600682015460e082015260078201549281019290925260080154909116151561012082015292915050565b60008282604051602001610cca92919061198c565b6040516020818303038152906040528051906020012090505b92915050565b6000546001600160a01b031690565b6000610da26004547f00000000000000000000000000000000000000000000000000000000000000006001600160a01b03166370a08231306040518263ffffffff1660e01b8152600401610d4c91906119ae565b60206040518083038186803b158015610d6457600080fd5b505afa158015610d78573d6000803e3d6000fd5b505050506040513d601f19601f82011682018060405250810190610d9c9190611940565b9061142e565b905090565b610daf611802565b50600090815260036020818152604092839020835161014081018552815460ff80821615158352610100918290046001600160a01b03169483019490945260018301549582019590955260028201546060820152928101546080840152600481015460a084015260058101548216151560c0840152600681015460e0840152600781015493830193909352600890920154909116151561012082015290565b610e56611283565b6001600160a01b0316610e67610ce9565b6001600160a01b031614610eb0576040805162461bcd60e51b81526020600482018190526024820152600080516020611d71833981519152604482015290519081900360640190fd5b600081815260036020526040902054819060ff161515600114610ed257600080fd5b60008181526003602052604090206008015460ff1615610ef157600080fd5b6000828152600360205260409020600581015460ff161515600114610f285760405162461bcd60e51b815260040161046790611a75565b6040805161014081018252825460ff808216151583526001600160a01b03610100928390041660208401526001850154938301939093526002840154606083015260038401546080830152600484015460a083015260058401548316151560c0830152600684015460e083015260078401549082015260088301549091161515610120820152600090610fba90611338565b90508015610fcc57610fcc8482610901565b6000610fe98360070154846006015461142e90919063ffffffff16565b600454909150610ff9908261142e565b6004555050600801805460ff191660011790555050565b600081815260036020526040812054829060ff16151560011461103257600080fd5b60008181526003602052604090206008015460ff161561105157600080fd5b600083815260036020818152604092839020835161014081018552815460ff808216151583526001600160a01b0361010092839004169483019490945260018301549582019590955260028201546060820152928101546080840152600481015460a084015260058101548216151560c0840152600681015460e084015260078101549383019390935260088301541615156101208201526110f290611338565b949350505050565b611102611283565b6001600160a01b0316611113610ce9565b6001600160a01b03161461115c576040805162461bcd60e51b81526020600482018190526024820152600080516020611d71833981519152604482015290519081900360640190fd5b6001600160a01b0381166111a15760405162461bcd60e51b8152600401808060200182810382526026815260200180611d2a6026913960400191505060405180910390fd5b600080546040516001600160a01b03808516939216917f8be0079c531659141344cd1fd0a4f28419497f9722a3daafe3b4186f6b6457e091a3600080546001600160a01b0319166001600160a01b0392909216919091179055565b611204611802565b6112116102aa8484610cb5565b9392505050565b6001600160a01b038116600090815260056020526040812054610ce3908390610cb5565b600061124661036f565b82106112645760405162461bcd60e51b815260040161046790611af0565b6002828154811061127157fe5b90600052602060002001549050919050565b3390565b600082820183811015611211576040805162461bcd60e51b815260206004820152601b60248201527f536166654d6174683a206164646974696f6e206f766572666c6f770000000000604482015290519081900360640190fd5b604080516001600160a01b038416602482015260448082018490528251808303909101815260649091019091526020810180516001600160e01b031663a9059cbb60e01b179052611333908490611470565b505050565b60008061134361162e565b9050826040015181108061135e575061012083015115156001145b1561136d5760009150506108fc565b6080830151606084015161138091611287565b81106113a25761010083015160e084015161139a9161142e565b9150506108fc565b60006113bb84606001518361142e90919063ffffffff16565b60a085015190915060006113cf8383611632565b905060006113dd8284611674565b905060006114068860800151611400848b60e0015161167490919063ffffffff16565b90611632565b90506114208861010001518261142e90919063ffffffff16565b96506108fc95505050505050565b600061121183836040518060400160405280601e81526020017f536166654d6174683a207375627472616374696f6e206f766572666c6f7700008152506116cd565b611482826001600160a01b0316611764565b6114d3576040805162461bcd60e51b815260206004820152601f60248201527f5361666545524332303a2063616c6c20746f206e6f6e2d636f6e747261637400604482015290519081900360640190fd5b60006060836001600160a01b0316836040518082805190602001908083835b602083106115115780518252601f1990920191602091820191016114f2565b6001836020036101000a0380198251168184511680821785525050505050509050019150506000604051808303816000865af19150503d8060008114611573576040519150601f19603f3d011682016040523d82523d6000602084013e611578565b606091505b5091509150816115cf576040805162461bcd60e51b815260206004820181905260248201527f5361666545524332303a206c6f772d6c6576656c2063616c6c206661696c6564604482015290519081900360640190fd5b805115611628578080602001905160208110156115eb57600080fd5b50516116285760405162461bcd60e51b815260040180806020018281038252602a815260200180611d91602a913960400191505060405180910390fd5b50505050565b4290565b600061121183836040518060400160405280601a81526020017f536166654d6174683a206469766973696f6e206279207a65726f00000000000081525061179d565b60008261168357506000610ce3565b8282028284828161169057fe5b04146112115760405162461bcd60e51b8152600401808060200182810382526021815260200180611d506021913960400191505060405180910390fd5b6000818484111561175c5760405162461bcd60e51b81526004018080602001828103825283818151815260200191508051906020019080838360005b83811015611721578181015183820152602001611709565b50505050905090810190601f16801561174e5780820380516001836020036101000a031916815260200191505b509250505060405180910390fd5b505050900390565b6000813f7fc5d2460186f7233c927e7db2dcc703c0e500b653ca82273b7bfad8045d85a4708181148015906110f2575050151592915050565b600081836117ec5760405162461bcd60e51b8152602060048201818152835160248401528351909283926044909101919085019080838360008315611721578181015183820152602001611709565b5060008385816117f857fe5b0495945050505050565b60405180610140016040528060001515815260200160006001600160a01b031681526020016000815260200160008152602001600081526020016000815260200160001515815260200160008152602001600081526020016000151581525090565b80356001600160a01b03811681146108fc57600080fd5b60006020828403121561188c578081fd5b61121182611864565b600080604083850312156118a7578081fd5b6118b083611864565b946020939093013593505050565b600080600080600080600060e0888a0312156118d8578283fd5b6118e188611864565b96506020880135955060408801359450606088013593506080880135925060a08801358015158114611911578283fd5b8092505060c0880135905092959891949750929550565b600060208284031215611939578081fd5b5035919050565b600060208284031215611951578081fd5b5051919050565b6000806040838503121561196a578182fd5b50508035926020909101359150565b6001600160a01b03169052565b15159052565b60609290921b6bffffffffffffffffffffffff19168252601482015260340190565b6001600160a01b0391909116815260200190565b90815260200190565b6020808252602d908201527f546f6b656e56657374696e673a20736c696365506572696f645365636f6e647360408201526c206d757374206265203e3d203160981b606082015260800190565b6020808252603d908201527f546f6b656e56657374696e673a2063616e6e6f742072656c6561736520746f6b60408201527f656e732c206e6f7420656e6f7567682076657374656420746f6b656e73000000606082015260800190565b60208082526026908201527f546f6b656e56657374696e673a2076657374696e67206973206e6f74207265766040820152656f6361626c6560d01b606082015260800190565b6020808252818101527f546f6b656e56657374696e673a20616d6f756e74206d757374206265203e2030604082015260600190565b60208082526021908201527f546f6b656e56657374696e673a20696e646578206f7574206f6620626f756e646040820152607360f81b606082015260800190565b60208082526022908201527f546f6b656e56657374696e673a206475726174696f6e206d757374206265203e604082015261020360f41b606082015260800190565b60208082526042908201527f546f6b656e56657374696e673a206f6e6c792062656e6566696369617279206160408201527f6e64206f776e65722063616e2072656c656173652076657374656420746f6b656060820152616e7360f01b608082015260a00190565b6020808252602b908201527f546f6b656e56657374696e673a206e6f7420656e6f756768207769746864726160408201526a7761626c652066756e647360a81b606082015260800190565b6020808252604a908201527f546f6b656e56657374696e673a2063616e6e6f7420637265617465207665737460408201527f696e67207363686564756c652062656361757365206e6f742073756666696369606082015269656e7420746f6b656e7360b01b608082015260a00190565b600061014082019050611caa828451611986565b6020830151611cbc6020840182611979565b5060408301516040830152606083015160608301526080830151608083015260a083015160a083015260c0830151611cf760c0840182611986565b5060e083015160e083015261010080840151818401525061012080840151611d2182850182611986565b50509291505056fe4f776e61626c653a206e6577206f776e657220697320746865207a65726f2061646472657373536166654d6174683a206d756c7469706c69636174696f6e206f766572666c6f774f776e61626c653a2063616c6c6572206973206e6f7420746865206f776e65725361666545524332303a204552433230206f7065726174696f6e20646964206e6f742073756363656564a264697066735822122004d073d06362b52631401f3ace5274931926fc7723872e8f2fd1d9ba7a3c7f5464736f6c63430007050033",
  "linkReferences": {},
  "deployedLinkReferences": {}
}