{
  "_format": "hh-sol-artifact-1",
  "contractName": "DoubleTransferHelper",
  "sourceName": "contracts/stake-v1/contracts/utils/DoubleTransferHelper.sol",
  "abi": [
    {
      "inputs": [
        {
          "internalType": "contract IERC20",
          "name": "token",
          "type": "address"
        }
      ],
      "stateMutability": "nonpayable",
      "type": "constructor"
    },
    {
      "inputs": [],
      "name": "TOKEN",
      "outputs": [
        {
          "internalType": "contract IERC20",
          "name": "",
          "type": "address"
        }
      ],
      "stateMutability": "view",
      "type": "function"
    },
    {
      "inputs": [
        {
          "internalType": "address",
          "name": "to",
          "type": "address"
        },
        {
          "internalType": "uint256",
          "name": "amount1",
          "type": "uint256"
        },
        {
          "internalType": "uint256",
          "name": "amount2",
          "type": "uint256"
        }
      ],
      "name": "doubleSend",
      "outputs": [],
      "stateMutability": "nonpayable",
      "type": "function"
    }
  ],
  "bytecode": "0x60a060405234801561001057600080fd5b506040516102a43803806102a48339818101604052602081101561003357600080fd5b5051606081901b6001600160601b0319166080526001600160a01b031661023561006f600039806095528060b9528061018352506102356000f3fe608060405234801561001057600080fd5b50600436106100365760003560e01c806382bfefc81461003b578063983ff7691461005f575b600080fd5b610043610093565b604080516001600160a01b039092168252519081900360200190f35b6100916004803603606081101561007557600080fd5b506001600160a01b0381351690602081013590604001356100b7565b005b7f000000000000000000000000000000000000000000000000000000000000000081565b7f00000000000000000000000000000000000000000000000000000000000000006001600160a01b031663a9059cbb84846040518363ffffffff1660e01b815260040180836001600160a01b0316815260200182815260200192505050602060405180830381600087803b15801561012e57600080fd5b505af1158015610142573d6000803e3d6000fd5b505050506040513d602081101561015857600080fd5b50506040805163a9059cbb60e01b81526001600160a01b0385811660048301526024820184905291517f00000000000000000000000000000000000000000000000000000000000000009092169163a9059cbb916044808201926020929091908290030181600087803b1580156101ce57600080fd5b505af11580156101e2573d6000803e3d6000fd5b505050506040513d60208110156101f857600080fd5b505050505056fea2646970667358221220f2eb8c26af88053d1fc45c113a40851e206cde1519bb3dd0a51ebef7d8f81c1664736f6c63430007050033",
  "linkReferences": {},
  "deployedLinkReferences": {}
}