{
  "_format": "hh-sol-artifact-1",
  "contractName": "StakedLay",
  "sourceName": "contracts/stake/StakedLay.sol",
  "abi": [
    {
      "inputs": [
        {
          "internalType": "contract IERC20",
          "name": "stakedToken",
          "type": "address"
        },
        {
          "internalType": "contract IERC20",
          "name": "rewardToken",
          "type": "address"
        },
        {
          "internalType": "uint256",
          "name": "cooldownSeconds",
          "type": "uint256"
        },
        {
          "internalType": "uint256",
          "name": "unstakeWindow",
          "type": "uint256"
        },
        {
          "internalType": "address",
          "name": "rewardsVault",
          "type": "address"
        },
        {
          "internalType": "address",
          "name": "emissionManager",
          "type": "address"
        },
        {
          "internalType": "uint128",
          "name": "distributionDuration",
          "type": "uint128"
        }
      ],
      "stateMutability": "nonpayable",
      "type": "constructor"
    },
    {
      "anonymous": false,
      "inputs": [
        {
          "indexed": true,
          "internalType": "address",
          "name": "owner",
          "type": "address"
        },
        {
          "indexed": true,
          "internalType": "address",
          "name": "spender",
          "type": "address"
        },
        {
          "indexed": false,
          "internalType": "uint256",
          "name": "value",
          "type": "uint256"
        }
      ],
      "name": "Approval",
      "type": "event"
    },
    {
      "anonymous": false,
      "inputs": [
        {
          "indexed": true,
          "internalType": "address",
          "name": "asset",
          "type": "address"
        },
        {
          "indexed": false,
          "internalType": "uint256",
          "name": "emission",
          "type": "uint256"
        }
      ],
      "name": "AssetConfigUpdated",
      "type": "event"
    },
    {
      "anonymous": false,
      "inputs": [
        {
          "indexed": true,
          "internalType": "address",
          "name": "asset",
          "type": "address"
        },
        {
          "indexed": false,
          "internalType": "uint256",
          "name": "index",
          "type": "uint256"
        }
      ],
      "name": "AssetIndexUpdated",
      "type": "event"
    },
    {
      "anonymous": false,
      "inputs": [
        {
          "indexed": true,
          "internalType": "address",
          "name": "user",
          "type": "address"
        }
      ],
      "name": "Cooldown",
      "type": "event"
    },
    {
      "anonymous": false,
      "inputs": [
        {
          "indexed": true,
          "internalType": "address",
          "name": "from",
          "type": "address"
        },
        {
          "indexed": true,
          "internalType": "address",
          "name": "to",
          "type": "address"
        },
        {
          "indexed": false,
          "internalType": "uint256",
          "name": "amount",
          "type": "uint256"
        }
      ],
      "name": "Redeem",
      "type": "event"
    },
    {
      "anonymous": false,
      "inputs": [
        {
          "indexed": false,
          "internalType": "address",
          "name": "user",
          "type": "address"
        },
        {
          "indexed": false,
          "internalType": "uint256",
          "name": "amount",
          "type": "uint256"
        }
      ],
      "name": "RewardsAccrued",
      "type": "event"
    },
    {
      "anonymous": false,
      "inputs": [
        {
          "indexed": true,
          "internalType": "address",
          "name": "from",
          "type": "address"
        },
        {
          "indexed": true,
          "internalType": "address",
          "name": "to",
          "type": "address"
        },
        {
          "indexed": false,
          "internalType": "uint256",
          "name": "amount",
          "type": "uint256"
        }
      ],
      "name": "RewardsClaimed",
      "type": "event"
    },
    {
      "anonymous": false,
      "inputs": [
        {
          "indexed": false,
          "internalType": "address",
          "name": "owner",
          "type": "address"
        },
        {
          "indexed": false,
          "internalType": "uint128",
          "name": "oldValue",
          "type": "uint128"
        },
        {
          "indexed": false,
          "internalType": "uint128",
          "name": "newValue",
          "type": "uint128"
        }
      ],
      "name": "SnapshotDone",
      "type": "event"
    },
    {
      "anonymous": false,
      "inputs": [
        {
          "indexed": true,
          "internalType": "address",
          "name": "from",
          "type": "address"
        },
        {
          "indexed": true,
          "internalType": "address",
          "name": "onBehalfOf",
          "type": "address"
        },
        {
          "indexed": false,
          "internalType": "uint256",
          "name": "amount",
          "type": "uint256"
        }
      ],
      "name": "Staked",
      "type": "event"
    },
    {
      "anonymous": false,
      "inputs": [
        {
          "indexed": true,
          "internalType": "address",
          "name": "from",
          "type": "address"
        },
        {
          "indexed": true,
          "internalType": "address",
          "name": "to",
          "type": "address"
        },
        {
          "indexed": false,
          "internalType": "uint256",
          "name": "value",
          "type": "uint256"
        }
      ],
      "name": "Transfer",
      "type": "event"
    },
    {
      "anonymous": false,
      "inputs": [
        {
          "indexed": true,
          "internalType": "address",
          "name": "user",
          "type": "address"
        },
        {
          "indexed": true,
          "internalType": "address",
          "name": "asset",
          "type": "address"
        },
        {
          "indexed": false,
          "internalType": "uint256",
          "name": "index",
          "type": "uint256"
        }
      ],
      "name": "UserIndexUpdated",
      "type": "event"
    },
    {
      "inputs": [],
      "name": "COOLDOWN_SECONDS",
      "outputs": [
        {
          "internalType": "uint256",
          "name": "",
          "type": "uint256"
        }
      ],
      "stateMutability": "view",
      "type": "function"
    },
    {
      "inputs": [],
      "name": "DISTRIBUTION_END",
      "outputs": [
        {
          "internalType": "uint256",
          "name": "",
          "type": "uint256"
        }
      ],
      "stateMutability": "view",
      "type": "function"
    },
    {
      "inputs": [],
      "name": "EMISSION_MANAGER",
      "outputs": [
        {
          "internalType": "address",
          "name": "",
          "type": "address"
        }
      ],
      "stateMutability": "view",
      "type": "function"
    },
    {
      "inputs": [],
      "name": "PRECISION",
      "outputs": [
        {
          "internalType": "uint8",
          "name": "",
          "type": "uint8"
        }
      ],
      "stateMutability": "view",
      "type": "function"
    },
    {
      "inputs": [],
      "name": "REVISION",
      "outputs": [
        {
          "internalType": "uint256",
          "name": "",
          "type": "uint256"
        }
      ],
      "stateMutability": "view",
      "type": "function"
    },
    {
      "inputs": [],
      "name": "REWARDS_VAULT",
      "outputs": [
        {
          "internalType": "address",
          "name": "",
          "type": "address"
        }
      ],
      "stateMutability": "view",
      "type": "function"
    },
    {
      "inputs": [],
      "name": "REWARD_TOKEN",
      "outputs": [
        {
          "internalType": "contract IERC20",
          "name": "",
          "type": "address"
        }
      ],
      "stateMutability": "view",
      "type": "function"
    },
    {
      "inputs": [],
      "name": "STAKED_TOKEN",
      "outputs": [
        {
          "internalType": "contract IERC20",
          "name": "",
          "type": "address"
        }
      ],
      "stateMutability": "view",
      "type": "function"
    },
    {
      "inputs": [],
      "name": "UNSTAKE_WINDOW",
      "outputs": [
        {
          "internalType": "uint256",
          "name": "",
          "type": "uint256"
        }
      ],
      "stateMutability": "view",
      "type": "function"
    },
    {
      "inputs": [
        {
          "internalType": "address",
          "name": "",
          "type": "address"
        }
      ],
      "name": "_countsSnapshots",
      "outputs": [
        {
          "internalType": "uint256",
          "name": "",
          "type": "uint256"
        }
      ],
      "stateMutability": "view",
      "type": "function"
    },
    {
      "inputs": [],
      "name": "_governance",
      "outputs": [
        {
          "internalType": "contract ITransferHook",
          "name": "",
          "type": "address"
        }
      ],
      "stateMutability": "view",
      "type": "function"
    },
    {
      "inputs": [
        {
          "internalType": "address",
          "name": "",
          "type": "address"
        },
        {
          "internalType": "uint256",
          "name": "",
          "type": "uint256"
        }
      ],
      "name": "_snapshots",
      "outputs": [
        {
          "internalType": "uint128",
          "name": "blockNumber",
          "type": "uint128"
        },
        {
          "internalType": "uint128",
          "name": "value",
          "type": "uint128"
        }
      ],
      "stateMutability": "view",
      "type": "function"
    },
    {
      "inputs": [
        {
          "internalType": "address",
          "name": "owner",
          "type": "address"
        },
        {
          "internalType": "address",
          "name": "spender",
          "type": "address"
        }
      ],
      "name": "allowance",
      "outputs": [
        {
          "internalType": "uint256",
          "name": "",
          "type": "uint256"
        }
      ],
      "stateMutability": "view",
      "type": "function"
    },
    {
      "inputs": [
        {
          "internalType": "address",
          "name": "spender",
          "type": "address"
        },
        {
          "internalType": "uint256",
          "name": "amount",
          "type": "uint256"
        }
      ],
      "name": "approve",
      "outputs": [
        {
          "internalType": "bool",
          "name": "",
          "type": "bool"
        }
      ],
      "stateMutability": "nonpayable",
      "type": "function"
    },
    {
      "inputs": [
        {
          "internalType": "address",
          "name": "",
          "type": "address"
        }
      ],
      "name": "assets",
      "outputs": [
        {
          "internalType": "uint128",
          "name": "emissionPerSecond",
          "type": "uint128"
        },
        {
          "internalType": "uint128",
          "name": "lastUpdateTimestamp",
          "type": "uint128"
        },
        {
          "internalType": "uint256",
          "name": "index",
          "type": "uint256"
        }
      ],
      "stateMutability": "view",
      "type": "function"
    },
    {
      "inputs": [
        {
          "internalType": "address",
          "name": "account",
          "type": "address"
        }
      ],
      "name": "balanceOf",
      "outputs": [
        {
          "internalType": "uint256",
          "name": "",
          "type": "uint256"
        }
      ],
      "stateMutability": "view",
      "type": "function"
    },
    {
      "inputs": [
        {
          "internalType": "address",
          "name": "to",
          "type": "address"
        },
        {
          "internalType": "uint256",
          "name": "amount",
          "type": "uint256"
        }
      ],
      "name": "claimRewards",
      "outputs": [],
      "stateMutability": "nonpayable",
      "type": "function"
    },
    {
      "inputs": [
        {
          "components": [
            {
              "internalType": "uint128",
              "name": "emissionPerSecond",
              "type": "uint128"
            },
            {
              "internalType": "uint256",
              "name": "totalStaked",
              "type": "uint256"
            },
            {
              "internalType": "address",
              "name": "underlyingAsset",
              "type": "address"
            }
          ],
          "internalType": "struct DistributionTypes.AssetConfigInput[]",
          "name": "assetsConfigInput",
          "type": "tuple[]"
        }
      ],
      "name": "configureAssets",
      "outputs": [],
      "stateMutability": "nonpayable",
      "type": "function"
    },
    {
      "inputs": [],
      "name": "cooldown",
      "outputs": [],
      "stateMutability": "nonpayable",
      "type": "function"
    },
    {
      "inputs": [],
      "name": "decimals",
      "outputs": [
        {
          "internalType": "uint8",
          "name": "",
          "type": "uint8"
        }
      ],
      "stateMutability": "view",
      "type": "function"
    },
    {
      "inputs": [
        {
          "internalType": "address",
          "name": "spender",
          "type": "address"
        },
        {
          "internalType": "uint256",
          "name": "subtractedValue",
          "type": "uint256"
        }
      ],
      "name": "decreaseAllowance",
      "outputs": [
        {
          "internalType": "bool",
          "name": "",
          "type": "bool"
        }
      ],
      "stateMutability": "nonpayable",
      "type": "function"
    },
    {
      "inputs": [
        {
          "internalType": "uint256",
          "name": "fromCooldownTimestamp",
          "type": "uint256"
        },
        {
          "internalType": "uint256",
          "name": "amountToReceive",
          "type": "uint256"
        },
        {
          "internalType": "address",
          "name": "toAddress",
          "type": "address"
        },
        {
          "internalType": "uint256",
          "name": "toBalance",
          "type": "uint256"
        }
      ],
      "name": "getNextCooldownTimestamp",
      "outputs": [
        {
          "internalType": "uint256",
          "name": "",
          "type": "uint256"
        }
      ],
      "stateMutability": "view",
      "type": "function"
    },
    {
      "inputs": [
        {
          "internalType": "address",
          "name": "staker",
          "type": "address"
        }
      ],
      "name": "getTotalRewardsBalance",
      "outputs": [
        {
          "internalType": "uint256",
          "name": "",
          "type": "uint256"
        }
      ],
      "stateMutability": "view",
      "type": "function"
    },
    {
      "inputs": [
        {
          "internalType": "address",
          "name": "user",
          "type": "address"
        },
        {
          "internalType": "address",
          "name": "asset",
          "type": "address"
        }
      ],
      "name": "getUserAssetData",
      "outputs": [
        {
          "internalType": "uint256",
          "name": "",
          "type": "uint256"
        }
      ],
      "stateMutability": "view",
      "type": "function"
    },
    {
      "inputs": [
        {
          "internalType": "address",
          "name": "spender",
          "type": "address"
        },
        {
          "internalType": "uint256",
          "name": "addedValue",
          "type": "uint256"
        }
      ],
      "name": "increaseAllowance",
      "outputs": [
        {
          "internalType": "bool",
          "name": "",
          "type": "bool"
        }
      ],
      "stateMutability": "nonpayable",
      "type": "function"
    },
    {
      "inputs": [
        {
          "internalType": "contract ITransferHook",
          "name": "governance",
          "type": "address"
        },
        {
          "internalType": "string",
          "name": "name",
          "type": "string"
        },
        {
          "internalType": "string",
          "name": "symbol",
          "type": "string"
        },
        {
          "internalType": "uint8",
          "name": "decimals",
          "type": "uint8"
        }
      ],
      "name": "initialize",
      "outputs": [],
      "stateMutability": "nonpayable",
      "type": "function"
    },
    {
      "inputs": [],
      "name": "name",
      "outputs": [
        {
          "internalType": "string",
          "name": "",
          "type": "string"
        }
      ],
      "stateMutability": "view",
      "type": "function"
    },
    {
      "inputs": [
        {
          "internalType": "address",
          "name": "to",
          "type": "address"
        },
        {
          "internalType": "uint256",
          "name": "amount",
          "type": "uint256"
        }
      ],
      "name": "redeem",
      "outputs": [],
      "stateMutability": "nonpayable",
      "type": "function"
    },
    {
      "inputs": [
        {
          "internalType": "address",
          "name": "onBehalfOf",
          "type": "address"
        },
        {
          "internalType": "uint256",
          "name": "amount",
          "type": "uint256"
        }
      ],
      "name": "stake",
      "outputs": [],
      "stateMutability": "nonpayable",
      "type": "function"
    },
    {
      "inputs": [
        {
          "internalType": "address",
          "name": "",
          "type": "address"
        }
      ],
      "name": "stakerRewardsToClaim",
      "outputs": [
        {
          "internalType": "uint256",
          "name": "",
          "type": "uint256"
        }
      ],
      "stateMutability": "view",
      "type": "function"
    },
    {
      "inputs": [
        {
          "internalType": "address",
          "name": "",
          "type": "address"
        }
      ],
      "name": "stakersCooldowns",
      "outputs": [
        {
          "internalType": "uint256",
          "name": "",
          "type": "uint256"
        }
      ],
      "stateMutability": "view",
      "type": "function"
    },
    {
      "inputs": [],
      "name": "symbol",
      "outputs": [
        {
          "internalType": "string",
          "name": "",
          "type": "string"
        }
      ],
      "stateMutability": "view",
      "type": "function"
    },
    {
      "inputs": [],
      "name": "totalSupply",
      "outputs": [
        {
          "internalType": "uint256",
          "name": "",
          "type": "uint256"
        }
      ],
      "stateMutability": "view",
      "type": "function"
    },
    {
      "inputs": [
        {
          "internalType": "address",
          "name": "recipient",
          "type": "address"
        },
        {
          "internalType": "uint256",
          "name": "amount",
          "type": "uint256"
        }
      ],
      "name": "transfer",
      "outputs": [
        {
          "internalType": "bool",
          "name": "",
          "type": "bool"
        }
      ],
      "stateMutability": "nonpayable",
      "type": "function"
    },
    {
      "inputs": [
        {
          "internalType": "address",
          "name": "sender",
          "type": "address"
        },
        {
          "internalType": "address",
          "name": "recipient",
          "type": "address"
        },
        {
          "internalType": "uint256",
          "name": "amount",
          "type": "uint256"
        }
      ],
      "name": "transferFrom",
      "outputs": [
        {
          "internalType": "bool",
          "name": "",
          "type": "bool"
        }
      ],
      "stateMutability": "nonpayable",
      "type": "function"
    }
  ],
  "bytecode": "0x61016060405260006009553480156200001757600080fd5b5060405162002dde38038062002dde8339810160408190526200003a916200025e565b868686868686866040518060400160405280600a8152602001695374616b6564204c617960b01b81525060405180604001604052806004815260200163734c415960e01b815250601284846001600160801b03168484848282828260039080519060200190620000ac929190620001b2565b508151620000c2906004906020850190620001b2565b5080600560006101000a81548160ff021916908360ff160217905550505050505050620000fe81426200015060201b620011f91790919060201c565b608052506001600160601b0319606091821b811660a0529a811b8b1660c05298891b8a1660e05250505061010094909452506101209190915290911b9091166101405250620003149650505050505050565b600082820183811015620001ab576040805162461bcd60e51b815260206004820152601b60248201527f536166654d6174683a206164646974696f6e206f766572666c6f770000000000604482015290519081900360640190fd5b9392505050565b828054600181600116156101000203166002900490600052602060002090601f016020900481019282620001ea576000855562000235565b82601f106200020557805160ff191683800117855562000235565b8280016001018555821562000235579182015b828111156200023557825182559160200191906001019062000218565b506200024392915062000247565b5090565b5b8082111562000243576000815560010162000248565b600080600080600080600060e0888a03121562000279578283fd5b87516200028681620002fb565b60208901519097506200029981620002fb565b8096505060408801519450606088015193506080880151620002bb81620002fb565b60a0890151909350620002ce81620002fb565b60c08901519092506001600160801b0381168114620002eb578182fd5b8091505092959891949750929550565b6001600160a01b03811681146200031157600080fd5b50565b60805160a05160601c60c05160601c60e05160601c61010051610120516101405160601c612a29620003b560003980610a3a5280610b885250806105ce5280610833528061104952508061058a52806105f652806108c0528061106e525080610abf5280610b5e5250806106a252806107d65280610d7a525080610df05280610f9a525080610a165280611fe55280612021528061204e5250612a296000f3fe608060405234801561001057600080fd5b50600436106102115760003560e01c80638779588c11610125578063aaf5eb68116100ad578063dd62ed3e1161007c578063dd62ed3e14610410578063dde43cba14610423578063f11b81881461042b578063f1cc432a1461044d578063f6d2ee861461046057610211565b8063aaf5eb68146103da578063adc9772e146103e2578063b2a5dbfa146103f5578063cbcbb5071461040857610211565b806395d89b41116100f457806395d89b411461039157806399248ea7146103995780639a99b4f0146103a1578063a457c2d7146103b4578063a9059cbb146103c757610211565b80638779588c1461035b5780638dbefee21461036e578063919cd40f14610381578063946776cd1461038957610211565b8063312f6b83116101a85780633950935111610177578063395093511461031257806370a082311461032557806372b49d6314610338578063787a08a6146103405780637e90d7ef1461034857610211565b8063312f6b83146102da578063313ce567146102e25780633373ee4c146102f7578063359c4a961461030a57610211565b80631c2f3e3d116101e45780631c2f3e3d1461027c5780631e9a69501461029157806323b872dd146102a65780632acbf823146102b957610211565b806306fdde0314610216578063091030c314610234578063095ea7b31461025457806318160ddd14610274575b600080fd5b61021e610473565b60405161022b9190612669565b60405180910390f35b610247610242366004612406565b610509565b60405161022b9190612807565b61026761026236600461249a565b61051b565b60405161022b919061265e565b610247610539565b61028461053f565b60405161022b9190612631565b6102a461029f36600461249a565b61054e565b005b6102676102b436600461245a565b61071b565b6102cc6102c736600461249a565b6107a3565b60405161022b9291906127c9565b6102846107d4565b6102ea6107f8565b60405161022b9190612810565b610247610305366004612422565b610801565b610247610831565b61026761032036600461249a565b610855565b610247610333366004612406565b6108a3565b6102476108be565b6102a46108e2565b610247610356366004612406565b610941565b610247610369366004612406565b610953565b61024761037c366004612406565b610965565b610247610a14565b610284610a38565b61021e610a5c565b610284610abd565b6102a46103af36600461249a565b610ae1565b6102676103c236600461249a565b610bff565b6102676103d536600461249a565b610c67565b6102ea610c7b565b6102a46103f036600461249a565b610c80565b6102a46104033660046124c5565b610de5565b610284610f98565b61024761041e366004612422565b610fbc565b610247610fe7565b61043e610439366004612406565b610fec565b60405161022b939291906127e3565b61024761045b3660046125f3565b61101a565b6102a461046e366004612535565b611111565b60038054604080516020601f60026000196101006001881615020190951694909404938401819004810282018101909252828152606093909290918301828280156104ff5780601f106104d4576101008083540402835291602001916104ff565b820191906000526020600020905b8154815290600101906020018083116104e257829003601f168201915b5050505050905090565b603e6020526000908152604090205481565b600061052f610528611253565b8484611257565b5060015b92915050565b60025490565b6008546001600160a01b031681565b806105745760405162461bcd60e51b815260040161056b906126bc565b60405180910390fd5b336000908152603e60205260409020546105ae817f00000000000000000000000000000000000000000000000000000000000000006111f9565b42116105cc5760405162461bcd60e51b815260040161056b906126e9565b7f000000000000000000000000000000000000000000000000000000000000000061062161061a837f00000000000000000000000000000000000000000000000000000000000000006111f9565b4290611343565b111561063f5760405162461bcd60e51b815260040161056b90612747565b600061064a336108a3565b9050600081841161065b578361065d565b815b905061066b33836001611385565b50610676338261142a565b6106808282611343565b61069557336000908152603e60205260408120555b6106c96001600160a01b037f0000000000000000000000000000000000000000000000000000000000000000168683611526565b846001600160a01b0316336001600160a01b03167fd12200efa34901b99367694174c3b0d32c99585fdf37c7c26892136ddd0836d98360405161070c9190612807565b60405180910390a35050505050565b6000610728848484611578565b61079884610734611253565b610793856040518060600160405280602881526020016128e5602891396001600160a01b038a16600090815260016020526040812090610772611253565b6001600160a01b031681526020810191909152604001600020549190611644565b611257565b5060015b9392505050565b60066020908152600092835260408084209091529082529020546001600160801b0380821691600160801b90041682565b7f000000000000000000000000000000000000000000000000000000000000000081565b60055460ff1690565b6001600160a01b038082166000908152603c60209081526040808320938616835260029093019052205492915050565b7f000000000000000000000000000000000000000000000000000000000000000081565b600061052f610862611253565b846107938560016000610873611253565b6001600160a01b03908116825260208083019390935260409182016000908120918c1681529252902054906111f9565b6001600160a01b031660009081526020819052604090205490565b7f000000000000000000000000000000000000000000000000000000000000000081565b6108eb336108a3565b6109075760405162461bcd60e51b815260040161056b9061277e565b336000818152603e6020526040808220429055517ff52f50426b32362d3e6bb8cb36b7074756b224622def6352a59eac7f66ebe6e89190a2565b603d6020526000908152604090205481565b60076020526000908152604090205481565b60408051600180825281830190925260009160609190816020015b6109886122f4565b8152602001906001900390816109805790505090506040518060600160405280306001600160a01b031681526020016109c0856108a3565b81526020016109cd610539565b815250816000815181106109dd57fe5b602002602001018190525061079c6109f584836116db565b6001600160a01b0385166000908152603d6020526040902054906111f9565b7f000000000000000000000000000000000000000000000000000000000000000081565b7f000000000000000000000000000000000000000000000000000000000000000081565b60048054604080516020601f60026000196101006001881615020190951694909404938401819004810282018101909252828152606093909290918301828280156104ff5780601f106104d4576101008083540402835291602001916104ff565b7f000000000000000000000000000000000000000000000000000000000000000081565b6000610af733610af0336108a3565b6000611385565b905060006000198314610b0a5782610b0c565b815b9050610b49816040518060400160405280600e81526020016d1253959053125117d05353d5539560921b815250846116449092919063ffffffff16565b336000908152603d6020526040902055610bae7f00000000000000000000000000000000000000000000000000000000000000006001600160a01b03167f000000000000000000000000000000000000000000000000000000000000000086846117cc565b836001600160a01b0316336001600160a01b03167f9310ccfcb8de723f578a9e4282ea9f521f05ae40dc08f3068dfad528a65ee3c783604051610bf19190612807565b60405180910390a350505050565b600061052f610c0c611253565b84610793856040518060600160405280602581526020016129cf6025913960016000610c36611253565b6001600160a01b03908116825260208083019390935260409182016000908120918d16815292529020549190611644565b600061052f610c74611253565b8484611578565b601281565b80610c9d5760405162461bcd60e51b815260040161056b906126bc565b6000610ca8836108a3565b90506000610cbf843084610cba610539565b611826565b90508015610d3d577f2468f9268c60ad90e2d49edb0032c8a001e733ae888b3ab8e982edf535be1a768482604051610cf8929190612645565b60405180910390a16001600160a01b0384166000908152603d6020526040902054610d2390826111f9565b6001600160a01b0385166000908152603d60205260409020555b610d4a600084868561101a565b6001600160a01b0385166000908152603e6020526040902055610d6d84846118e5565b610da26001600160a01b037f0000000000000000000000000000000000000000000000000000000000000000163330866117cc565b836001600160a01b0316336001600160a01b03167f5dac0c1b1112564a045ba943c9d50270893e8e826c49be8e7073adc713ab7bd785604051610bf19190612807565b336001600160a01b037f00000000000000000000000000000000000000000000000000000000000000001614610e2d5760405162461bcd60e51b815260040161056b90612718565b60005b81811015610f93576000603c6000858585818110610e4a57fe5b9050606002016040016020810190610e629190612406565b6001600160a01b03166001600160a01b031681526020019081526020016000209050610ec7848484818110610e9357fe5b9050606002016040016020810190610eab9190612406565b82868686818110610eb857fe5b905060600201602001356119d5565b50838383818110610ed457fe5b610eea92602060609092020190810191506125cc565b81546001600160801b0319166001600160801b0391909116178155838383818110610f1157fe5b9050606002016040016020810190610f299190612406565b6001600160a01b03167f87fa03892a0556cb6b8f97e6d533a150d4d55fcbf275fff5fa003fa636bcc7fa858585818110610f5f57fe5b610f7592602060609092020190810191506125cc565b604051610f8291906127b5565b60405180910390a250600101610e30565b505050565b7f000000000000000000000000000000000000000000000000000000000000000081565b6001600160a01b03918216600090815260016020908152604080832093909416825291909152205490565b600181565b603c60205260009081526040902080546001909101546001600160801b0380831692600160801b9004169083565b6001600160a01b0382166000908152603e602052604081205480611042576000915050611109565b60006110987f0000000000000000000000000000000000000000000000000000000000000000611092427f0000000000000000000000000000000000000000000000000000000000000000611343565b90611343565b9050818111156110ab5760009150611105565b60008782116110ba57876110bc565b425b9050828110156110d157829350505050611109565b6111016110de88876111f9565b6110fb6110eb8887611a92565b6110f58b86611a92565b906111f9565b90611aeb565b9250505b5090505b949350505050565b600061111b611b2d565b9050600954811161115d5760405162461bcd60e51b815260040180806020018281038252602e81526020018061290d602e913960400191505060405180910390fd5b6009819055604080516020601f880181900481028201810190925286815261119f918890889081908401838280828437600092019190915250611b3292505050565b6111de84848080601f016020809104026020016040519081016040528093929190818152602001838380828437600092019190915250611b4992505050565b6111e782611b5c565b6111f087611b72565b50505050505050565b60008282018381101561079c576040805162461bcd60e51b815260206004820152601b60248201527f536166654d6174683a206164646974696f6e206f766572666c6f770000000000604482015290519081900360640190fd5b3390565b6001600160a01b03831661129c5760405162461bcd60e51b81526004018080602001828103825260248152602001806129816024913960400191505060405180910390fd5b6001600160a01b0382166112e15760405162461bcd60e51b815260040180806020018281038252602281526020018061287c6022913960400191505060405180910390fd5b6001600160a01b03808416600081815260016020908152604080832094871680845294825291829020859055815185815291517f8c5be1e5ebec7d5bd14f71427d1e84f3dd0314c0f7b2291e5b200ac8c7c3b9259281900390910190a3505050565b600061079c83836040518060400160405280601e81526020017f536166654d6174683a207375627472616374696f6e206f766572666c6f770000815250611644565b600080611396853086610cba610539565b6001600160a01b0386166000908152603d6020526040812054919250906113bd90836111f9565b905081156114215783156113e7576001600160a01b0386166000908152603d602052604090208190555b7f2468f9268c60ad90e2d49edb0032c8a001e733ae888b3ab8e982edf535be1a768683604051611418929190612645565b60405180910390a15b95945050505050565b6001600160a01b03821661146f5760405162461bcd60e51b815260040180806020018281038252602181526020018061293b6021913960400191505060405180910390fd5b61147b82600083611b94565b6114b88160405180606001604052806022815260200161285a602291396001600160a01b0385166000908152602081905260409020549190611644565b6001600160a01b0383166000908152602081905260409020556002546114de9082611343565b6002556040805182815290516000916001600160a01b038516917fddf252ad1be2c89b69c2b068fc378daa952ba7f163c4a11628f55a4df523b3ef9181900360200190a35050565b604080516001600160a01b038416602482015260448082018490528251808303909101815260649091019091526020810180516001600160e01b031663a9059cbb60e01b179052610f93908490611caa565b6000611583846108a3565b905061159184826001611385565b50826001600160a01b0316846001600160a01b0316146116335760006115b6846108a3565b90506115c484826001611385565b506001600160a01b0385166000908152603e60205260409020546115ea8185878561101a565b6001600160a01b0386166000908152603e6020526040902055828414801561161157508015155b15611630576001600160a01b0386166000908152603e60205260408120555b50505b61163e848484611e62565b50505050565b600081848411156116d35760405162461bcd60e51b81526004018080602001828103825283818151815260200191508051906020019080838360005b83811015611698578181015183820152602001611680565b50505050905090810190601f1680156116c55780820380516001836020036101000a031916815260200191505b509250505060405180910390fd5b505050900390565b600080805b83518110156117c4576000603c60008684815181106116fb57fe5b602090810291909101810151516001600160a01b031682528101919091526040016000908120600181015481548851929450611763926001600160801b0380831692600160801b900416908a908890811061175257fe5b602002602001015160400151611fbd565b90506117b86117b187858151811061177757fe5b602002602001015160200151838560020160008c6001600160a01b03166001600160a01b03168152602001908152602001600020546120b6565b85906111f9565b935050506001016116e0565b509392505050565b604080516001600160a01b0380861660248301528416604482015260648082018490528251808303909101815260849091019091526020810180516001600160e01b03166323b872dd60e01b17905261163e908590611caa565b6001600160a01b038084166000908152603c6020908152604080832093881683526002840190915281205490919082806118618885886119d5565b90508083146118d957861561187e5761187b8782856120b6565b91505b6001600160a01b03808a1660008181526002870160205260409081902084905551918a16917fbb123b5c06d5408bbea3c4fef481578175cfb432e3b482c6186f02ed9086585b906118d0908590612807565b60405180910390a35b50979650505050505050565b6001600160a01b038216611940576040805162461bcd60e51b815260206004820152601f60248201527f45524332303a206d696e7420746f20746865207a65726f206164647265737300604482015290519081900360640190fd5b61194c60008383611b94565b60025461195990826111f9565b6002556001600160a01b03821660009081526020819052604090205461197f90826111f9565b6001600160a01b0383166000818152602081815260408083209490945583518581529351929391927fddf252ad1be2c89b69c2b068fc378daa952ba7f163c4a11628f55a4df523b3ef9281900390910190a35050565b6001820154825460009190600160801b90046001600160801b031642811415611a005750905061079c565b8454600090611a1b9084906001600160801b03168488611fbd565b9050828114611a6f57808660010181905550866001600160a01b03167f5777ca300dfe5bead41006fbce4389794dbc0ed8d6cccebfaf94630aa04184bc82604051611a669190612807565b60405180910390a25b85546001600160801b03428116600160801b029116178655925050509392505050565b600082611aa157506000610533565b82820282848281611aae57fe5b041461079c5760405162461bcd60e51b81526004018080602001828103825260218152602001806128c46021913960400191505060405180910390fd5b600061079c83836040518060400160405280601a81526020017f536166654d6174683a206469766973696f6e206279207a65726f0000000000008152506120d8565b600190565b8051611b4590600390602084019061231e565b5050565b8051611b4590600490602084019061231e565b6005805460ff191660ff92909216919091179055565b600880546001600160a01b0319166001600160a01b0392909216919091179055565b816001600160a01b0316836001600160a01b03161415611bb357610f93565b6001600160a01b03831615611be5576000611bcd846108a3565b9050611be38482611bde8186611343565b61213d565b505b6001600160a01b03821615611c12576000611bff836108a3565b9050611c108382611bde81866111f9565b505b6008546001600160a01b0316801561163e57806001600160a01b0316634a3931498585856040518463ffffffff1660e01b815260040180846001600160a01b03168152602001836001600160a01b031681526020018281526020019350505050600060405180830381600087803b158015611c8c57600080fd5b505af1158015611ca0573d6000803e3d6000fd5b5050505050505050565b611cbc826001600160a01b03166122bb565b611d0d576040805162461bcd60e51b815260206004820152601f60248201527f5361666545524332303a2063616c6c20746f206e6f6e2d636f6e747261637400604482015290519081900360640190fd5b60006060836001600160a01b0316836040518082805190602001908083835b60208310611d4b5780518252601f199092019160209182019101611d2c565b6001836020036101000a0380198251168184511680821785525050505050509050019150506000604051808303816000865af19150503d8060008114611dad576040519150601f19603f3d011682016040523d82523d6000602084013e611db2565b606091505b509150915081611e09576040805162461bcd60e51b815260206004820181905260248201527f5361666545524332303a206c6f772d6c6576656c2063616c6c206661696c6564604482015290519081900360640190fd5b80511561163e57808060200190516020811015611e2557600080fd5b505161163e5760405162461bcd60e51b815260040180806020018281038252602a8152602001806129a5602a913960400191505060405180910390fd5b6001600160a01b038316611ea75760405162461bcd60e51b815260040180806020018281038252602581526020018061295c6025913960400191505060405180910390fd5b6001600160a01b038216611eec5760405162461bcd60e51b81526004018080602001828103825260238152602001806128376023913960400191505060405180910390fd5b611ef7838383611b94565b611f348160405180606001604052806026815260200161289e602691396001600160a01b0386166000908152602081905260409020549190611644565b6001600160a01b038085166000908152602081905260408082209390935590841681522054611f6390826111f9565b6001600160a01b038084166000818152602081815260409182902094909455805185815290519193928716927fddf252ad1be2c89b69c2b068fc378daa952ba7f163c4a11628f55a4df523b3ef92918290030190a3505050565b6000831580611fca575081155b80611fdd575042836001600160801b0316145b8061201157507f0000000000000000000000000000000000000000000000000000000000000000836001600160801b031610155b1561201d575083611109565b60007f0000000000000000000000000000000000000000000000000000000000000000421161204c574261206e565b7f00000000000000000000000000000000000000000000000000000000000000005b90506000612085826001600160801b038716611343565b90506120ab876110f5866110fb670de0b6b3a76400006120a58c88611a92565b90611a92565b979650505050505050565b6000611109670de0b6b3a76400006110fb6120d18686611343565b8790611a92565b600081836121275760405162461bcd60e51b8152602060048201818152835160248401528351909283926044909101919085019080838360008315611698578181015183820152602001611680565b50600083858161213357fe5b0495945050505050565b6001600160a01b038316600090815260076020908152604080832054600690925290912043919081158015906121a257506001600160801b038316816000612186856001611343565b81526020810191909152604001600020546001600160801b0316145b156121e657838160006121b6856001611343565b8152602081019190915260400160002080546001600160801b03928316600160801b029216919091179055612261565b6040805180820182526001600160801b0380861682528681166020808401918252600087815290869052939093209151825493518216600160801b029082166001600160801b031990941693909317169190911790556122478260016111f9565b6001600160a01b0387166000908152600760205260409020555b604080516001600160a01b03881681526001600160801b03808816602083015286168183015290517f2cd3c83ddac2953ee75f53265d9ea4463eaf05030e5459a1b7e63819b7ce88f79181900360600190a1505050505050565b6000813f7fc5d2460186f7233c927e7db2dcc703c0e500b653ca82273b7bfad8045d85a470818114801590611109575050151592915050565b604051806060016040528060006001600160a01b0316815260200160008152602001600081525090565b828054600181600116156101000203166002900490600052602060002090601f016020900481019282612354576000855561239a565b82601f1061236d57805160ff191683800117855561239a565b8280016001018555821561239a579182015b8281111561239a57825182559160200191906001019061237f565b506123a69291506123aa565b5090565b5b808211156123a657600081556001016123ab565b60008083601f8401126123d0578182fd5b50813567ffffffffffffffff8111156123e7578182fd5b6020830191508360208285010111156123ff57600080fd5b9250929050565b600060208284031215612417578081fd5b813561079c8161281e565b60008060408385031215612434578081fd5b823561243f8161281e565b9150602083013561244f8161281e565b809150509250929050565b60008060006060848603121561246e578081fd5b83356124798161281e565b925060208401356124898161281e565b929592945050506040919091013590565b600080604083850312156124ac578182fd5b82356124b78161281e565b946020939093013593505050565b600080602083850312156124d7578182fd5b823567ffffffffffffffff808211156124ee578384fd5b818501915085601f830112612501578384fd5b81358181111561250f578485fd5b866020606083028501011115612523578485fd5b60209290920196919550909350505050565b6000806000806000806080878903121561254d578182fd5b86356125588161281e565b9550602087013567ffffffffffffffff80821115612574578384fd5b6125808a838b016123bf565b90975095506040890135915080821115612598578384fd5b506125a589828a016123bf565b909450925050606087013560ff811681146125be578182fd5b809150509295509295509295565b6000602082840312156125dd578081fd5b81356001600160801b038116811461079c578182fd5b60008060008060808587031215612608578384fd5b843593506020850135925060408501356126218161281e565b9396929550929360600135925050565b6001600160a01b0391909116815260200190565b6001600160a01b03929092168252602082015260400190565b901515815260200190565b6000602080835283518082850152825b8181101561269557858101830151858201604001528201612679565b818111156126a65783604083870101525b50601f01601f1916929092016040019392505050565b6020808252601390820152721253959053125117d6915493d7d05353d55395606a1b604082015260600190565b60208082526015908201527424a729aaa32324a1a4a2a72a2fa1a7a7a62227aba760591b604082015260600190565b60208082526015908201527427a7262cafa2a6a4a9a9a4a7a72fa6a0a720a3a2a960591b604082015260600190565b60208082526017908201527f554e5354414b455f57494e444f575f46494e4953484544000000000000000000604082015260600190565b6020808252601b908201527f494e56414c49445f42414c414e43455f4f4e5f434f4f4c444f574e0000000000604082015260600190565b6001600160801b0391909116815260200190565b6001600160801b0392831681529116602082015260400190565b6001600160801b039384168152919092166020820152604081019190915260600190565b90815260200190565b60ff91909116815260200190565b6001600160a01b038116811461283357600080fd5b5056fe45524332303a207472616e7366657220746f20746865207a65726f206164647265737345524332303a206275726e20616d6f756e7420657863656564732062616c616e636545524332303a20617070726f766520746f20746865207a65726f206164647265737345524332303a207472616e7366657220616d6f756e7420657863656564732062616c616e6365536166654d6174683a206d756c7469706c69636174696f6e206f766572666c6f7745524332303a207472616e7366657220616d6f756e74206578636565647320616c6c6f77616e6365436f6e747261637420696e7374616e63652068617320616c7265616479206265656e20696e697469616c697a656445524332303a206275726e2066726f6d20746865207a65726f206164647265737345524332303a207472616e736665722066726f6d20746865207a65726f206164647265737345524332303a20617070726f76652066726f6d20746865207a65726f20616464726573735361666545524332303a204552433230206f7065726174696f6e20646964206e6f74207375636365656445524332303a2064656372656173656420616c6c6f77616e63652062656c6f77207a65726fa264697066735822122056defc7c5812b3363d09451811a6d24089238c78964e6a7a4cd6698ac3cce62964736f6c63430007050033",
  "linkReferences": {},
  "deployedLinkReferences": {}
}