{
  "_format": "hh-sol-artifact-1",
  "contractName": "MockTokenVesting",
  "sourceName": "contracts/vesting/MockTokenVesting.sol",
  "abi": [
    {
      "inputs": [
        {
          "internalType": "address",
          "name": "token_",
          "type": "address"
        }
      ],
      "stateMutability": "nonpayable",
      "type": "constructor"
    },
    {
      "anonymous": false,
      "inputs": [
        {
          "indexed": true,
          "internalType": "address",
          "name": "previousOwner",
          "type": "address"
        },
        {
          "indexed": true,
          "internalType": "address",
          "name": "newOwner",
          "type": "address"
        }
      ],
      "name": "OwnershipTransferred",
      "type": "event"
    },
    {
      "anonymous": false,
      "inputs": [
        {
          "indexed": false,
          "internalType": "uint256",
          "name": "amount",
          "type": "uint256"
        }
      ],
      "name": "Released",
      "type": "event"
    },
    {
      "anonymous": false,
      "inputs": [],
      "name": "Revoked",
      "type": "event"
    },
    {
      "stateMutability": "payable",
      "type": "fallback"
    },
    {
      "inputs": [
        {
          "internalType": "address",
          "name": "holder",
          "type": "address"
        }
      ],
      "name": "computeNextVestingScheduleIdForHolder",
      "outputs": [
        {
          "internalType": "bytes32",
          "name": "",
          "type": "bytes32"
        }
      ],
      "stateMutability": "view",
      "type": "function"
    },
    {
      "inputs": [
        {
          "internalType": "bytes32",
          "name": "vestingScheduleId",
          "type": "bytes32"
        }
      ],
      "name": "computeReleasableAmount",
      "outputs": [
        {
          "internalType": "uint256",
          "name": "",
          "type": "uint256"
        }
      ],
      "stateMutability": "view",
      "type": "function"
    },
    {
      "inputs": [
        {
          "internalType": "address",
          "name": "holder",
          "type": "address"
        },
        {
          "internalType": "uint256",
          "name": "index",
          "type": "uint256"
        }
      ],
      "name": "computeVestingScheduleIdForAddressAndIndex",
      "outputs": [
        {
          "internalType": "bytes32",
          "name": "",
          "type": "bytes32"
        }
      ],
      "stateMutability": "pure",
      "type": "function"
    },
    {
      "inputs": [
        {
          "internalType": "address",
          "name": "_beneficiary",
          "type": "address"
        },
        {
          "internalType": "uint256",
          "name": "_start",
          "type": "uint256"
        },
        {
          "internalType": "uint256",
          "name": "_cliff",
          "type": "uint256"
        },
        {
          "internalType": "uint256",
          "name": "_duration",
          "type": "uint256"
        },
        {
          "internalType": "uint256",
          "name": "_slicePeriodSeconds",
          "type": "uint256"
        },
        {
          "internalType": "bool",
          "name": "_revocable",
          "type": "bool"
        },
        {
          "internalType": "uint256",
          "name": "_amount",
          "type": "uint256"
        }
      ],
      "name": "createVestingSchedule",
      "outputs": [],
      "stateMutability": "nonpayable",
      "type": "function"
    },
    {
      "inputs": [
        {
          "internalType": "address",
          "name": "holder",
          "type": "address"
        }
      ],
      "name": "getLastVestingScheduleForHolder",
      "outputs": [
        {
          "components": [
            {
              "internalType": "bool",
              "name": "initialized",
              "type": "bool"
            },
            {
              "internalType": "address",
              "name": "beneficiary",
              "type": "address"
            },
            {
              "internalType": "uint256",
              "name": "cliff",
              "type": "uint256"
            },
            {
              "internalType": "uint256",
              "name": "start",
              "type": "uint256"
            },
            {
              "internalType": "uint256",
              "name": "duration",
              "type": "uint256"
            },
            {
              "internalType": "uint256",
              "name": "slicePeriodSeconds",
              "type": "uint256"
            },
            {
              "internalType": "bool",
              "name": "revocable",
              "type": "bool"
            },
            {
              "internalType": "uint256",
              "name": "amountTotal",
              "type": "uint256"
            },
            {
              "internalType": "uint256",
              "name": "released",
              "type": "uint256"
            },
            {
              "internalType": "bool",
              "name": "revoked",
              "type": "bool"
            }
          ],
          "internalType": "struct TokenVesting.VestingSchedule",
          "name": "",
          "type": "tuple"
        }
      ],
      "stateMutability": "view",
      "type": "function"
    },
    {
      "inputs": [],
      "name": "getToken",
      "outputs": [
        {
          "internalType": "address",
          "name": "",
          "type": "address"
        }
      ],
      "stateMutability": "view",
      "type": "function"
    },
    {
      "inputs": [
        {
          "internalType": "uint256",
          "name": "index",
          "type": "uint256"
        }
      ],
      "name": "getVestingIdAtIndex",
      "outputs": [
        {
          "internalType": "bytes32",
          "name": "",
          "type": "bytes32"
        }
      ],
      "stateMutability": "view",
      "type": "function"
    },
    {
      "inputs": [
        {
          "internalType": "bytes32",
          "name": "vestingScheduleId",
          "type": "bytes32"
        }
      ],
      "name": "getVestingSchedule",
      "outputs": [
        {
          "components": [
            {
              "internalType": "bool",
              "name": "initialized",
              "type": "bool"
            },
            {
              "internalType": "address",
              "name": "beneficiary",
              "type": "address"
            },
            {
              "internalType": "uint256",
              "name": "cliff",
              "type": "uint256"
            },
            {
              "internalType": "uint256",
              "name": "start",
              "type": "uint256"
            },
            {
              "internalType": "uint256",
              "name": "duration",
              "type": "uint256"
            },
            {
              "internalType": "uint256",
              "name": "slicePeriodSeconds",
              "type": "uint256"
            },
            {
              "internalType": "bool",
              "name": "revocable",
              "type": "bool"
            },
            {
              "internalType": "uint256",
              "name": "amountTotal",
              "type": "uint256"
            },
            {
              "internalType": "uint256",
              "name": "released",
              "type": "uint256"
            },
            {
              "internalType": "bool",
              "name": "revoked",
              "type": "bool"
            }
          ],
          "internalType": "struct TokenVesting.VestingSchedule",
          "name": "",
          "type": "tuple"
        }
      ],
      "stateMutability": "view",
      "type": "function"
    },
    {
      "inputs": [
        {
          "internalType": "address",
          "name": "holder",
          "type": "address"
        },
        {
          "internalType": "uint256",
          "name": "index",
          "type": "uint256"
        }
      ],
      "name": "getVestingScheduleByAddressAndIndex",
      "outputs": [
        {
          "components": [
            {
              "internalType": "bool",
              "name": "initialized",
              "type": "bool"
            },
            {
              "internalType": "address",
              "name": "beneficiary",
              "type": "address"
            },
            {
              "internalType": "uint256",
              "name": "cliff",
              "type": "uint256"
            },
            {
              "internalType": "uint256",
              "name": "start",
              "type": "uint256"
            },
            {
              "internalType": "uint256",
              "name": "duration",
              "type": "uint256"
            },
            {
              "internalType": "uint256",
              "name": "slicePeriodSeconds",
              "type": "uint256"
            },
            {
              "internalType": "bool",
              "name": "revocable",
              "type": "bool"
            },
            {
              "internalType": "uint256",
              "name": "amountTotal",
              "type": "uint256"
            },
            {
              "internalType": "uint256",
              "name": "released",
              "type": "uint256"
            },
            {
              "internalType": "bool",
              "name": "revoked",
              "type": "bool"
            }
          ],
          "internalType": "struct TokenVesting.VestingSchedule",
          "name": "",
          "type": "tuple"
        }
      ],
      "stateMutability": "view",
      "type": "function"
    },
    {
      "inputs": [],
      "name": "getVestingSchedulesCount",
      "outputs": [
        {
          "internalType": "uint256",
          "name": "",
          "type": "uint256"
        }
      ],
      "stateMutability": "view",
      "type": "function"
    },
    {
      "inputs": [
        {
          "internalType": "address",
          "name": "_beneficiary",
          "type": "address"
        }
      ],
      "name": "getVestingSchedulesCountByBeneficiary",
      "outputs": [
        {
          "internalType": "uint256",
          "name": "",
          "type": "uint256"
        }
      ],
      "stateMutability": "view",
      "type": "function"
    },
    {
      "inputs": [],
      "name": "getVestingSchedulesTotalAmount",
      "outputs": [
        {
          "internalType": "uint256",
          "name": "",
          "type": "uint256"
        }
      ],
      "stateMutability": "view",
      "type": "function"
    },
    {
      "inputs": [],
      "name": "getWithdrawableAmount",
      "outputs": [
        {
          "internalType": "uint256",
          "name": "",
          "type": "uint256"
        }
      ],
      "stateMutability": "view",
      "type": "function"
    },
    {
      "inputs": [],
      "name": "owner",
      "outputs": [
        {
          "internalType": "address",
          "name": "",
          "type": "address"
        }
      ],
      "stateMutability": "view",
      "type": "function"
    },
    {
      "inputs": [
        {
          "internalType": "bytes32",
          "name": "vestingScheduleId",
          "type": "bytes32"
        },
        {
          "internalType": "uint256",
          "name": "amount",
          "type": "uint256"
        }
      ],
      "name": "release",
      "outputs": [],
      "stateMutability": "nonpayable",
      "type": "function"
    },
    {
      "inputs": [
        {
          "internalType": "address",
          "name": "beneficiaryPayable",
          "type": "address"
        },
        {
          "internalType": "uint256",
          "name": "amount",
          "type": "uint256"
        }
      ],
      "name": "releaseMock",
      "outputs": [],
      "stateMutability": "nonpayable",
      "type": "function"
    },
    {
      "inputs": [],
      "name": "renounceOwnership",
      "outputs": [],
      "stateMutability": "nonpayable",
      "type": "function"
    },
    {
      "inputs": [
        {
          "internalType": "bytes32",
          "name": "vestingScheduleId",
          "type": "bytes32"
        }
      ],
      "name": "revoke",
      "outputs": [],
      "stateMutability": "nonpayable",
      "type": "function"
    },
    {
      "inputs": [
        {
          "internalType": "uint256",
          "name": "_time",
          "type": "uint256"
        }
      ],
      "name": "setCurrentTime",
      "outputs": [],
      "stateMutability": "nonpayable",
      "type": "function"
    },
    {
      "inputs": [
        {
          "internalType": "address",
          "name": "newOwner",
          "type": "address"
        }
      ],
      "name": "transferOwnership",
      "outputs": [],
      "stateMutability": "nonpayable",
      "type": "function"
    },
    {
      "inputs": [
        {
          "internalType": "uint256",
          "name": "amount",
          "type": "uint256"
        }
      ],
      "name": "withdraw",
      "outputs": [],
      "stateMutability": "nonpayable",
      "type": "function"
    },
    {
      "stateMutability": "payable",
      "type": "receive"
    }
  ],
  "bytecode": "0x60c060405260006006553480156200001657600080fd5b5060405162002064380380620020648339810160408190526200003991620000cc565b80600062000046620000c8565b600080546001600160a01b0319166001600160a01b0383169081178255604051929350917f8be0079c531659141344cd1fd0a4f28419497f9722a3daafe3b4186f6b6457e0908290a350600180556001600160a01b038116620000a857600080fd5b6001600160601b0319606091821b811660805291901b1660a052620000fc565b3390565b600060208284031215620000de578081fd5b81516001600160a01b0381168114620000f5578182fd5b9392505050565b60805160601c60a05160601c611f2f620001356000398061108252508061077e52806109095280610b5a5280610d5d5250611f2f6000f3fe60806040526004361061012e5760003560e01c80638af104da116100ab578063cb12b8e51161006f578063cb12b8e514610305578063ea1bb3d514610325578063f2fde38b14610345578063f51321d714610365578063f7c469f014610385578063f9079b37146103a557610135565b80638af104da1461027b5780638da5cb5b1461029b57806390be10cc146102b05780639ef346b4146102c5578063b75c7dc6146102e557610135565b806348deb471116100f257806348deb471146101e45780635a7bb69a146101f957806366afd8ef14610219578063715018a6146102395780637e913dc61461024e57610135565b8063130836171461013757806317e289e91461016257806321df0da71461018257806322f8e566146101a45780632e1a7d4d146101c457610135565b3661013557005b005b34801561014357600080fd5b5061014c6103c5565b6040516101599190611af0565b60405180910390f35b34801561016e57600080fd5b5061013561017d3660046119bb565b6103cb565b34801561018e57600080fd5b5061019761077c565b6040516101599190611ac3565b3480156101b057600080fd5b506101356101bf366004611a3d565b6107a0565b3480156101d057600080fd5b506101356101df366004611a3d565b6107a5565b3480156101f057600080fd5b5061014c610937565b34801561020557600080fd5b5061014c610214366004611978565b61093d565b34801561022557600080fd5b50610135610234366004611a6d565b61095c565b34801561024557600080fd5b50610135610b8f565b34801561025a57600080fd5b5061026e610269366004611978565b610c3b565b6040516101599190611dc4565b34801561028757600080fd5b5061014c610296366004611992565b610d10565b3480156102a757600080fd5b50610197610d44565b3480156102bc57600080fd5b5061014c610d53565b3480156102d157600080fd5b5061026e6102e0366004611a3d565b610e02565b3480156102f157600080fd5b50610135610300366004611a3d565b610ea9565b34801561031157600080fd5b50610135610320366004611992565b61106b565b34801561033157600080fd5b5061014c610340366004611a3d565b611110565b34801561035157600080fd5b50610135610360366004611978565b6111fa565b34801561037157600080fd5b5061026e610380366004611992565b6112fc565b34801561039157600080fd5b5061014c6103a0366004611978565b611318565b3480156103b157600080fd5b5061014c6103c0366004611a3d565b61133c565b60025490565b6103d3611383565b6001600160a01b03166103e4610d44565b6001600160a01b03161461042d576040805162461bcd60e51b81526020600482018190526024820152600080516020611eb0833981519152604482015290519081900360640190fd5b80306001600160a01b03166390be10cc6040518163ffffffff1660e01b815260040160206040518083038186803b15801561046757600080fd5b505afa15801561047b573d6000803e3d6000fd5b505050506040513d601f19601f8201168201806040525081019061049f9190611a55565b10156104c65760405162461bcd60e51b81526004016104bd90611d54565b60405180910390fd5b600084116104e65760405162461bcd60e51b81526004016104bd90611c5f565b600081116105065760405162461bcd60e51b81526004016104bd90611be9565b60018310156105275760405162461bcd60e51b81526004016104bd90611af9565b604051630f7c469f60e41b8152600090309063f7c469f09061054d908b90600401611ac3565b60206040518083038186803b15801561056557600080fd5b505afa158015610579573d6000803e3d6000fd5b505050506040513d601f19601f8201168201806040525081019061059d9190611a55565b905060006105ab8888611387565b90506040518061014001604052806001151581526020018a6001600160a01b03168152602001828152602001898152602001878152602001868152602001851515815260200184815260200160008152602001600015158152506003600084815260200190815260200160002060008201518160000160006101000a81548160ff02191690831515021790555060208201518160000160016101000a8154816001600160a01b0302191690836001600160a01b0316021790555060408201518160010155606082015181600201556080820151816003015560a0820151816004015560c08201518160050160006101000a81548160ff02191690831515021790555060e0820151816006015561010082015181600701556101208201518160080160006101000a81548160ff0219169083151502179055509050506106fb8360045461138790919063ffffffff16565b6004556002805460018181019092557f405787fa12a823e0f2b7631cc41b3ba8828b3321ca811111fa75cd3aa3bb5ace018390556001600160a01b038a1660009081526005602052604090205490610754908290611387565b6001600160a01b03909a16600090815260056020526040902099909955505050505050505050565b7f000000000000000000000000000000000000000000000000000000000000000090565b600655565b600260015414156107fd576040805162461bcd60e51b815260206004820152601f60248201527f5265656e7472616e637947756172643a207265656e7472616e742063616c6c00604482015290519081900360640190fd5b600260015561080a611383565b6001600160a01b031661081b610d44565b6001600160a01b031614610864576040805162461bcd60e51b81526020600482018190526024820152600080516020611eb0833981519152604482015290519081900360640190fd5b80306001600160a01b03166390be10cc6040518163ffffffff1660e01b815260040160206040518083038186803b15801561089e57600080fd5b505afa1580156108b2573d6000803e3d6000fd5b505050506040513d601f19601f820116820180604052508101906108d69190611a55565b10156108f45760405162461bcd60e51b81526004016104bd90611d09565b6109306108ff610d44565b6001600160a01b037f00000000000000000000000000000000000000000000000000000000000000001690836113e1565b5060018055565b60045490565b6001600160a01b0381166000908152600560205260409020545b919050565b600260015414156109b4576040805162461bcd60e51b815260206004820152601f60248201527f5265656e7472616e637947756172643a207265656e7472616e742063616c6c00604482015290519081900360640190fd5b60026001908155600083815260036020526040902054839160ff9091161515146109dd57600080fd5b60008181526003602052604090206008015460ff16156109fc57600080fd5b6000838152600360205260408120805490916101009091046001600160a01b0316331490610a28610d44565b6001600160a01b0316336001600160a01b03161490508180610a475750805b610a635760405162461bcd60e51b81526004016104bd90611ca1565b6040805161014081018252845460ff808216151583526001600160a01b03610100928390041660208401526001870154938301939093526002860154606083015260038601546080830152600486015460a083015260058601548316151560c0830152600686015460e083015260078601549082015260088501549091161515610120820152600090610af590611433565b905085811015610b175760405162461bcd60e51b81526004016104bd90611b46565b6007840154610b269087611387565b600785015583546004546101009091046001600160a01b031690610b4a9088611529565b600455610b816001600160a01b037f00000000000000000000000000000000000000000000000000000000000000001682896113e1565b505060018055505050505050565b610b97611383565b6001600160a01b0316610ba8610d44565b6001600160a01b031614610bf1576040805162461bcd60e51b81526020600482018190526024820152600080516020611eb0833981519152604482015290519081900360640190fd5b600080546040516001600160a01b03909116907f8be0079c531659141344cd1fd0a4f28419497f9722a3daafe3b4186f6b6457e0908390a3600080546001600160a01b0319169055565b610c436118ff565b6001600160a01b03821660009081526005602052604081205460039190610c6f90859060001901610d10565b81526020808201929092526040908101600020815161014081018352815460ff80821615158352610100918290046001600160a01b0316958301959095526001830154938201939093526002820154606082015260038201546080820152600482015460a082015260058201548416151560c0820152600682015460e082015260078201549281019290925260080154909116151561012082015292915050565b60008282604051602001610d25929190611aa1565b6040516020818303038152906040528051906020012090505b92915050565b6000546001600160a01b031690565b6000610dfd6004547f00000000000000000000000000000000000000000000000000000000000000006001600160a01b03166370a08231306040518263ffffffff1660e01b8152600401610da79190611ac3565b60206040518083038186803b158015610dbf57600080fd5b505afa158015610dd3573d6000803e3d6000fd5b505050506040513d601f19601f82011682018060405250810190610df79190611a55565b90611529565b905090565b610e0a6118ff565b50600090815260036020818152604092839020835161014081018552815460ff80821615158352610100918290046001600160a01b03169483019490945260018301549582019590955260028201546060820152928101546080840152600481015460a084015260058101548216151560c0840152600681015460e0840152600781015493830193909352600890920154909116151561012082015290565b610eb1611383565b6001600160a01b0316610ec2610d44565b6001600160a01b031614610f0b576040805162461bcd60e51b81526020600482018190526024820152600080516020611eb0833981519152604482015290519081900360640190fd5b600081815260036020526040902054819060ff161515600114610f2d57600080fd5b60008181526003602052604090206008015460ff1615610f4c57600080fd5b6000828152600360205260409020600581015460ff161515600114610f835760405162461bcd60e51b81526004016104bd90611ba3565b6040805161014081018252825460ff808216151583526001600160a01b03610100928390041660208401526001850154938301939093526002840154606083015260038401546080830152600484015460a083015260058401548316151560c0830152600684015460e08301526007840154908201526008830154909116151561012082015260009061101590611433565b9050801561102757611027848261095c565b60006110448360070154846006015461152990919063ffffffff16565b6004549091506110549082611529565b6004555050600801805460ff191660011790555050565b60405163a9059cbb60e01b81526001600160a01b037f0000000000000000000000000000000000000000000000000000000000000000169063a9059cbb906110b99085908590600401611ad7565b602060405180830381600087803b1580156110d357600080fd5b505af11580156110e7573d6000803e3d6000fd5b505050506040513d601f19601f8201168201806040525081019061110b9190611a21565b505050565b600081815260036020526040812054829060ff16151560011461113257600080fd5b60008181526003602052604090206008015460ff161561115157600080fd5b600083815260036020818152604092839020835161014081018552815460ff808216151583526001600160a01b0361010092839004169483019490945260018301549582019590955260028201546060820152928101546080840152600481015460a084015260058101548216151560c0840152600681015460e084015260078101549383019390935260088301541615156101208201526111f290611433565b949350505050565b611202611383565b6001600160a01b0316611213610d44565b6001600160a01b03161461125c576040805162461bcd60e51b81526020600482018190526024820152600080516020611eb0833981519152604482015290519081900360640190fd5b6001600160a01b0381166112a15760405162461bcd60e51b8152600401808060200182810382526026815260200180611e696026913960400191505060405180910390fd5b600080546040516001600160a01b03808516939216917f8be0079c531659141344cd1fd0a4f28419497f9722a3daafe3b4186f6b6457e091a3600080546001600160a01b0319166001600160a01b0392909216919091179055565b6113046118ff565b6113116102e08484610d10565b9392505050565b6001600160a01b038116600090815260056020526040812054610d3e908390610d10565b60006113466103c5565b82106113645760405162461bcd60e51b81526004016104bd90611c1e565b6002828154811061137157fe5b90600052602060002001549050919050565b3390565b600082820183811015611311576040805162461bcd60e51b815260206004820152601b60248201527f536166654d6174683a206164646974696f6e206f766572666c6f770000000000604482015290519081900360640190fd5b604080516001600160a01b038416602482015260448082018490528251808303909101815260649091019091526020810180516001600160e01b031663a9059cbb60e01b17905261110b90849061156b565b60008061143e611729565b90508260400151811080611459575061012083015115156001145b15611468576000915050610957565b6080830151606084015161147b91611387565b811061149d5761010083015160e084015161149591611529565b915050610957565b60006114b684606001518361152990919063ffffffff16565b60a085015190915060006114ca838361172f565b905060006114d88284611771565b9050600061150188608001516114fb848b60e0015161177190919063ffffffff16565b9061172f565b905061151b8861010001518261152990919063ffffffff16565b965061095795505050505050565b600061131183836040518060400160405280601e81526020017f536166654d6174683a207375627472616374696f6e206f766572666c6f7700008152506117ca565b61157d826001600160a01b0316611861565b6115ce576040805162461bcd60e51b815260206004820152601f60248201527f5361666545524332303a2063616c6c20746f206e6f6e2d636f6e747261637400604482015290519081900360640190fd5b60006060836001600160a01b0316836040518082805190602001908083835b6020831061160c5780518252601f1990920191602091820191016115ed565b6001836020036101000a0380198251168184511680821785525050505050509050019150506000604051808303816000865af19150503d806000811461166e576040519150601f19603f3d011682016040523d82523d6000602084013e611673565b606091505b5091509150816116ca576040805162461bcd60e51b815260206004820181905260248201527f5361666545524332303a206c6f772d6c6576656c2063616c6c206661696c6564604482015290519081900360640190fd5b805115611723578080602001905160208110156116e657600080fd5b50516117235760405162461bcd60e51b815260040180806020018281038252602a815260200180611ed0602a913960400191505060405180910390fd5b50505050565b60065490565b600061131183836040518060400160405280601a81526020017f536166654d6174683a206469766973696f6e206279207a65726f00000000000081525061189a565b60008261178057506000610d3e565b8282028284828161178d57fe5b04146113115760405162461bcd60e51b8152600401808060200182810382526021815260200180611e8f6021913960400191505060405180910390fd5b600081848411156118595760405162461bcd60e51b81526004018080602001828103825283818151815260200191508051906020019080838360005b8381101561181e578181015183820152602001611806565b50505050905090810190601f16801561184b5780820380516001836020036101000a031916815260200191505b509250505060405180910390fd5b505050900390565b6000813f7fc5d2460186f7233c927e7db2dcc703c0e500b653ca82273b7bfad8045d85a4708181148015906111f2575050151592915050565b600081836118e95760405162461bcd60e51b815260206004820181815283516024840152835190928392604490910191908501908083836000831561181e578181015183820152602001611806565b5060008385816118f557fe5b0495945050505050565b60405180610140016040528060001515815260200160006001600160a01b031681526020016000815260200160008152602001600081526020016000815260200160001515815260200160008152602001600081526020016000151581525090565b80356001600160a01b038116811461095757600080fd5b600060208284031215611989578081fd5b61131182611961565b600080604083850312156119a4578081fd5b6119ad83611961565b946020939093013593505050565b600080600080600080600060e0888a0312156119d5578283fd5b6119de88611961565b96506020880135955060408801359450606088013593506080880135925060a0880135611a0a81611e57565b8092505060c0880135905092959891949750929550565b600060208284031215611a32578081fd5b815161131181611e57565b600060208284031215611a4e578081fd5b5035919050565b600060208284031215611a66578081fd5b5051919050565b60008060408385031215611a7f578182fd5b50508035926020909101359150565b6001600160a01b03169052565b15159052565b60609290921b6bffffffffffffffffffffffff19168252601482015260340190565b6001600160a01b0391909116815260200190565b6001600160a01b03929092168252602082015260400190565b90815260200190565b6020808252602d908201527f546f6b656e56657374696e673a20736c696365506572696f645365636f6e647360408201526c206d757374206265203e3d203160981b606082015260800190565b6020808252603d908201527f546f6b656e56657374696e673a2063616e6e6f742072656c6561736520746f6b60408201527f656e732c206e6f7420656e6f7567682076657374656420746f6b656e73000000606082015260800190565b60208082526026908201527f546f6b656e56657374696e673a2076657374696e67206973206e6f74207265766040820152656f6361626c6560d01b606082015260800190565b6020808252818101527f546f6b656e56657374696e673a20616d6f756e74206d757374206265203e2030604082015260600190565b60208082526021908201527f546f6b656e56657374696e673a20696e646578206f7574206f6620626f756e646040820152607360f81b606082015260800190565b60208082526022908201527f546f6b656e56657374696e673a206475726174696f6e206d757374206265203e604082015261020360f41b606082015260800190565b60208082526042908201527f546f6b656e56657374696e673a206f6e6c792062656e6566696369617279206160408201527f6e64206f776e65722063616e2072656c656173652076657374656420746f6b656060820152616e7360f01b608082015260a00190565b6020808252602b908201527f546f6b656e56657374696e673a206e6f7420656e6f756768207769746864726160408201526a7761626c652066756e647360a81b606082015260800190565b6020808252604a908201527f546f6b656e56657374696e673a2063616e6e6f7420637265617465207665737460408201527f696e67207363686564756c652062656361757365206e6f742073756666696369606082015269656e7420746f6b656e7360b01b608082015260a00190565b600061014082019050611dd8828451611a9b565b6020830151611dea6020840182611a8e565b5060408301516040830152606083015160608301526080830151608083015260a083015160a083015260c0830151611e2560c0840182611a9b565b5060e083015160e083015261010080840151818401525061012080840151611e4f82850182611a9b565b505092915050565b8015158114611e6557600080fd5b5056fe4f776e61626c653a206e6577206f776e657220697320746865207a65726f2061646472657373536166654d6174683a206d756c7469706c69636174696f6e206f766572666c6f774f776e61626c653a2063616c6c6572206973206e6f7420746865206f776e65725361666545524332303a204552433230206f7065726174696f6e20646964206e6f742073756363656564a264697066735822122071f9ab5834ded356500b2a142ba9da0b20aa3944941d1717abc907f2301746ed64736f6c63430007050033",
  "linkReferences": {},
  "deployedLinkReferences": {}
}