{
  "_format": "hh-sol-artifact-1",
  "contractName": "StakedTokenV2",
  "sourceName": "contracts/stake/StakedTokenV2.sol",
  "abi": [
    {
      "inputs": [
        {
          "internalType": "contract IERC20",
          "name": "stakedToken",
          "type": "address"
        },
        {
          "internalType": "contract IERC20",
          "name": "rewardToken",
          "type": "address"
        },
        {
          "internalType": "uint256",
          "name": "cooldownSeconds",
          "type": "uint256"
        },
        {
          "internalType": "uint256",
          "name": "unstakeWindow",
          "type": "uint256"
        },
        {
          "internalType": "address",
          "name": "rewardsVault",
          "type": "address"
        },
        {
          "internalType": "address",
          "name": "emissionManager",
          "type": "address"
        },
        {
          "internalType": "uint128",
          "name": "distributionDuration",
          "type": "uint128"
        },
        {
          "internalType": "string",
          "name": "name",
          "type": "string"
        },
        {
          "internalType": "string",
          "name": "symbol",
          "type": "string"
        },
        {
          "internalType": "uint8",
          "name": "decimals",
          "type": "uint8"
        },
        {
          "internalType": "address",
          "name": "governance",
          "type": "address"
        }
      ],
      "stateMutability": "nonpayable",
      "type": "constructor"
    },
    {
      "anonymous": false,
      "inputs": [
        {
          "indexed": true,
          "internalType": "address",
          "name": "owner",
          "type": "address"
        },
        {
          "indexed": true,
          "internalType": "address",
          "name": "spender",
          "type": "address"
        },
        {
          "indexed": false,
          "internalType": "uint256",
          "name": "value",
          "type": "uint256"
        }
      ],
      "name": "Approval",
      "type": "event"
    },
    {
      "anonymous": false,
      "inputs": [
        {
          "indexed": true,
          "internalType": "address",
          "name": "asset",
          "type": "address"
        },
        {
          "indexed": false,
          "internalType": "uint256",
          "name": "emission",
          "type": "uint256"
        }
      ],
      "name": "AssetConfigUpdated",
      "type": "event"
    },
    {
      "anonymous": false,
      "inputs": [
        {
          "indexed": true,
          "internalType": "address",
          "name": "asset",
          "type": "address"
        },
        {
          "indexed": false,
          "internalType": "uint256",
          "name": "index",
          "type": "uint256"
        }
      ],
      "name": "AssetIndexUpdated",
      "type": "event"
    },
    {
      "anonymous": false,
      "inputs": [
        {
          "indexed": true,
          "internalType": "address",
          "name": "user",
          "type": "address"
        }
      ],
      "name": "Cooldown",
      "type": "event"
    },
    {
      "anonymous": false,
      "inputs": [
        {
          "indexed": true,
          "internalType": "address",
          "name": "delegator",
          "type": "address"
        },
        {
          "indexed": true,
          "internalType": "address",
          "name": "delegatee",
          "type": "address"
        },
        {
          "indexed": false,
          "internalType": "enum IGovernancePowerDelegationToken.DelegationType",
          "name": "delegationType",
          "type": "uint8"
        }
      ],
      "name": "DelegateChanged",
      "type": "event"
    },
    {
      "anonymous": false,
      "inputs": [
        {
          "indexed": true,
          "internalType": "address",
          "name": "user",
          "type": "address"
        },
        {
          "indexed": false,
          "internalType": "uint256",
          "name": "amount",
          "type": "uint256"
        },
        {
          "indexed": false,
          "internalType": "enum IGovernancePowerDelegationToken.DelegationType",
          "name": "delegationType",
          "type": "uint8"
        }
      ],
      "name": "DelegatedPowerChanged",
      "type": "event"
    },
    {
      "anonymous": false,
      "inputs": [
        {
          "indexed": true,
          "internalType": "address",
          "name": "from",
          "type": "address"
        },
        {
          "indexed": true,
          "internalType": "address",
          "name": "to",
          "type": "address"
        },
        {
          "indexed": false,
          "internalType": "uint256",
          "name": "amount",
          "type": "uint256"
        }
      ],
      "name": "Redeem",
      "type": "event"
    },
    {
      "anonymous": false,
      "inputs": [
        {
          "indexed": false,
          "internalType": "address",
          "name": "user",
          "type": "address"
        },
        {
          "indexed": false,
          "internalType": "uint256",
          "name": "amount",
          "type": "uint256"
        }
      ],
      "name": "RewardsAccrued",
      "type": "event"
    },
    {
      "anonymous": false,
      "inputs": [
        {
          "indexed": true,
          "internalType": "address",
          "name": "from",
          "type": "address"
        },
        {
          "indexed": true,
          "internalType": "address",
          "name": "to",
          "type": "address"
        },
        {
          "indexed": false,
          "internalType": "uint256",
          "name": "amount",
          "type": "uint256"
        }
      ],
      "name": "RewardsClaimed",
      "type": "event"
    },
    {
      "anonymous": false,
      "inputs": [
        {
          "indexed": true,
          "internalType": "address",
          "name": "from",
          "type": "address"
        },
        {
          "indexed": true,
          "internalType": "address",
          "name": "onBehalfOf",
          "type": "address"
        },
        {
          "indexed": false,
          "internalType": "uint256",
          "name": "amount",
          "type": "uint256"
        }
      ],
      "name": "Staked",
      "type": "event"
    },
    {
      "anonymous": false,
      "inputs": [
        {
          "indexed": true,
          "internalType": "address",
          "name": "from",
          "type": "address"
        },
        {
          "indexed": true,
          "internalType": "address",
          "name": "to",
          "type": "address"
        },
        {
          "indexed": false,
          "internalType": "uint256",
          "name": "value",
          "type": "uint256"
        }
      ],
      "name": "Transfer",
      "type": "event"
    },
    {
      "anonymous": false,
      "inputs": [
        {
          "indexed": true,
          "internalType": "address",
          "name": "user",
          "type": "address"
        },
        {
          "indexed": true,
          "internalType": "address",
          "name": "asset",
          "type": "address"
        },
        {
          "indexed": false,
          "internalType": "uint256",
          "name": "index",
          "type": "uint256"
        }
      ],
      "name": "UserIndexUpdated",
      "type": "event"
    },
    {
      "inputs": [],
      "name": "COOLDOWN_SECONDS",
      "outputs": [
        {
          "internalType": "uint256",
          "name": "",
          "type": "uint256"
        }
      ],
      "stateMutability": "view",
      "type": "function"
    },
    {
      "inputs": [],
      "name": "DELEGATE_BY_TYPE_TYPEHASH",
      "outputs": [
        {
          "internalType": "bytes32",
          "name": "",
          "type": "bytes32"
        }
      ],
      "stateMutability": "view",
      "type": "function"
    },
    {
      "inputs": [],
      "name": "DELEGATE_TYPEHASH",
      "outputs": [
        {
          "internalType": "bytes32",
          "name": "",
          "type": "bytes32"
        }
      ],
      "stateMutability": "view",
      "type": "function"
    },
    {
      "inputs": [],
      "name": "DISTRIBUTION_END",
      "outputs": [
        {
          "internalType": "uint256",
          "name": "",
          "type": "uint256"
        }
      ],
      "stateMutability": "view",
      "type": "function"
    },
    {
      "inputs": [],
      "name": "DOMAIN_SEPARATOR",
      "outputs": [
        {
          "internalType": "bytes32",
          "name": "",
          "type": "bytes32"
        }
      ],
      "stateMutability": "view",
      "type": "function"
    },
    {
      "inputs": [],
      "name": "EIP712_REVISION",
      "outputs": [
        {
          "internalType": "bytes",
          "name": "",
          "type": "bytes"
        }
      ],
      "stateMutability": "view",
      "type": "function"
    },
    {
      "inputs": [],
      "name": "EMISSION_MANAGER",
      "outputs": [
        {
          "internalType": "address",
          "name": "",
          "type": "address"
        }
      ],
      "stateMutability": "view",
      "type": "function"
    },
    {
      "inputs": [],
      "name": "PERMIT_TYPEHASH",
      "outputs": [
        {
          "internalType": "bytes32",
          "name": "",
          "type": "bytes32"
        }
      ],
      "stateMutability": "view",
      "type": "function"
    },
    {
      "inputs": [],
      "name": "PRECISION",
      "outputs": [
        {
          "internalType": "uint8",
          "name": "",
          "type": "uint8"
        }
      ],
      "stateMutability": "view",
      "type": "function"
    },
    {
      "inputs": [],
      "name": "REVISION",
      "outputs": [
        {
          "internalType": "uint256",
          "name": "",
          "type": "uint256"
        }
      ],
      "stateMutability": "view",
      "type": "function"
    },
    {
      "inputs": [],
      "name": "REWARDS_VAULT",
      "outputs": [
        {
          "internalType": "address",
          "name": "",
          "type": "address"
        }
      ],
      "stateMutability": "view",
      "type": "function"
    },
    {
      "inputs": [],
      "name": "REWARD_TOKEN",
      "outputs": [
        {
          "internalType": "contract IERC20",
          "name": "",
          "type": "address"
        }
      ],
      "stateMutability": "view",
      "type": "function"
    },
    {
      "inputs": [],
      "name": "STAKED_TOKEN",
      "outputs": [
        {
          "internalType": "contract IERC20",
          "name": "",
          "type": "address"
        }
      ],
      "stateMutability": "view",
      "type": "function"
    },
    {
      "inputs": [],
      "name": "UNSTAKE_WINDOW",
      "outputs": [
        {
          "internalType": "uint256",
          "name": "",
          "type": "uint256"
        }
      ],
      "stateMutability": "view",
      "type": "function"
    },
    {
      "inputs": [],
      "name": "_governance",
      "outputs": [
        {
          "internalType": "contract ITransferHook",
          "name": "",
          "type": "address"
        }
      ],
      "stateMutability": "view",
      "type": "function"
    },
    {
      "inputs": [
        {
          "internalType": "address",
          "name": "",
          "type": "address"
        }
      ],
      "name": "_nonces",
      "outputs": [
        {
          "internalType": "uint256",
          "name": "",
          "type": "uint256"
        }
      ],
      "stateMutability": "view",
      "type": "function"
    },
    {
      "inputs": [
        {
          "internalType": "address",
          "name": "",
          "type": "address"
        },
        {
          "internalType": "uint256",
          "name": "",
          "type": "uint256"
        }
      ],
      "name": "_votingSnapshots",
      "outputs": [
        {
          "internalType": "uint128",
          "name": "blockNumber",
          "type": "uint128"
        },
        {
          "internalType": "uint128",
          "name": "value",
          "type": "uint128"
        }
      ],
      "stateMutability": "view",
      "type": "function"
    },
    {
      "inputs": [
        {
          "internalType": "address",
          "name": "",
          "type": "address"
        }
      ],
      "name": "_votingSnapshotsCounts",
      "outputs": [
        {
          "internalType": "uint256",
          "name": "",
          "type": "uint256"
        }
      ],
      "stateMutability": "view",
      "type": "function"
    },
    {
      "inputs": [
        {
          "internalType": "address",
          "name": "owner",
          "type": "address"
        },
        {
          "internalType": "address",
          "name": "spender",
          "type": "address"
        }
      ],
      "name": "allowance",
      "outputs": [
        {
          "internalType": "uint256",
          "name": "",
          "type": "uint256"
        }
      ],
      "stateMutability": "view",
      "type": "function"
    },
    {
      "inputs": [
        {
          "internalType": "address",
          "name": "spender",
          "type": "address"
        },
        {
          "internalType": "uint256",
          "name": "amount",
          "type": "uint256"
        }
      ],
      "name": "approve",
      "outputs": [
        {
          "internalType": "bool",
          "name": "",
          "type": "bool"
        }
      ],
      "stateMutability": "nonpayable",
      "type": "function"
    },
    {
      "inputs": [
        {
          "internalType": "address",
          "name": "",
          "type": "address"
        }
      ],
      "name": "assets",
      "outputs": [
        {
          "internalType": "uint128",
          "name": "emissionPerSecond",
          "type": "uint128"
        },
        {
          "internalType": "uint128",
          "name": "lastUpdateTimestamp",
          "type": "uint128"
        },
        {
          "internalType": "uint256",
          "name": "index",
          "type": "uint256"
        }
      ],
      "stateMutability": "view",
      "type": "function"
    },
    {
      "inputs": [
        {
          "internalType": "address",
          "name": "account",
          "type": "address"
        }
      ],
      "name": "balanceOf",
      "outputs": [
        {
          "internalType": "uint256",
          "name": "",
          "type": "uint256"
        }
      ],
      "stateMutability": "view",
      "type": "function"
    },
    {
      "inputs": [
        {
          "internalType": "address",
          "name": "to",
          "type": "address"
        },
        {
          "internalType": "uint256",
          "name": "amount",
          "type": "uint256"
        }
      ],
      "name": "claimRewards",
      "outputs": [],
      "stateMutability": "nonpayable",
      "type": "function"
    },
    {
      "inputs": [
        {
          "components": [
            {
              "internalType": "uint128",
              "name": "emissionPerSecond",
              "type": "uint128"
            },
            {
              "internalType": "uint256",
              "name": "totalStaked",
              "type": "uint256"
            },
            {
              "internalType": "address",
              "name": "underlyingAsset",
              "type": "address"
            }
          ],
          "internalType": "struct DistributionTypes.AssetConfigInput[]",
          "name": "assetsConfigInput",
          "type": "tuple[]"
        }
      ],
      "name": "configureAssets",
      "outputs": [],
      "stateMutability": "nonpayable",
      "type": "function"
    },
    {
      "inputs": [],
      "name": "cooldown",
      "outputs": [],
      "stateMutability": "nonpayable",
      "type": "function"
    },
    {
      "inputs": [],
      "name": "decimals",
      "outputs": [
        {
          "internalType": "uint8",
          "name": "",
          "type": "uint8"
        }
      ],
      "stateMutability": "view",
      "type": "function"
    },
    {
      "inputs": [
        {
          "internalType": "address",
          "name": "spender",
          "type": "address"
        },
        {
          "internalType": "uint256",
          "name": "subtractedValue",
          "type": "uint256"
        }
      ],
      "name": "decreaseAllowance",
      "outputs": [
        {
          "internalType": "bool",
          "name": "",
          "type": "bool"
        }
      ],
      "stateMutability": "nonpayable",
      "type": "function"
    },
    {
      "inputs": [
        {
          "internalType": "address",
          "name": "delegatee",
          "type": "address"
        }
      ],
      "name": "delegate",
      "outputs": [],
      "stateMutability": "nonpayable",
      "type": "function"
    },
    {
      "inputs": [
        {
          "internalType": "address",
          "name": "delegatee",
          "type": "address"
        },
        {
          "internalType": "uint256",
          "name": "nonce",
          "type": "uint256"
        },
        {
          "internalType": "uint256",
          "name": "expiry",
          "type": "uint256"
        },
        {
          "internalType": "uint8",
          "name": "v",
          "type": "uint8"
        },
        {
          "internalType": "bytes32",
          "name": "r",
          "type": "bytes32"
        },
        {
          "internalType": "bytes32",
          "name": "s",
          "type": "bytes32"
        }
      ],
      "name": "delegateBySig",
      "outputs": [],
      "stateMutability": "nonpayable",
      "type": "function"
    },
    {
      "inputs": [
        {
          "internalType": "address",
          "name": "delegatee",
          "type": "address"
        },
        {
          "internalType": "enum IGovernancePowerDelegationToken.DelegationType",
          "name": "delegationType",
          "type": "uint8"
        }
      ],
      "name": "delegateByType",
      "outputs": [],
      "stateMutability": "nonpayable",
      "type": "function"
    },
    {
      "inputs": [
        {
          "internalType": "address",
          "name": "delegatee",
          "type": "address"
        },
        {
          "internalType": "enum IGovernancePowerDelegationToken.DelegationType",
          "name": "delegationType",
          "type": "uint8"
        },
        {
          "internalType": "uint256",
          "name": "nonce",
          "type": "uint256"
        },
        {
          "internalType": "uint256",
          "name": "expiry",
          "type": "uint256"
        },
        {
          "internalType": "uint8",
          "name": "v",
          "type": "uint8"
        },
        {
          "internalType": "bytes32",
          "name": "r",
          "type": "bytes32"
        },
        {
          "internalType": "bytes32",
          "name": "s",
          "type": "bytes32"
        }
      ],
      "name": "delegateByTypeBySig",
      "outputs": [],
      "stateMutability": "nonpayable",
      "type": "function"
    },
    {
      "inputs": [
        {
          "internalType": "address",
          "name": "delegator",
          "type": "address"
        },
        {
          "internalType": "enum IGovernancePowerDelegationToken.DelegationType",
          "name": "delegationType",
          "type": "uint8"
        }
      ],
      "name": "getDelegateeByType",
      "outputs": [
        {
          "internalType": "address",
          "name": "",
          "type": "address"
        }
      ],
      "stateMutability": "view",
      "type": "function"
    },
    {
      "inputs": [
        {
          "internalType": "uint256",
          "name": "fromCooldownTimestamp",
          "type": "uint256"
        },
        {
          "internalType": "uint256",
          "name": "amountToReceive",
          "type": "uint256"
        },
        {
          "internalType": "address",
          "name": "toAddress",
          "type": "address"
        },
        {
          "internalType": "uint256",
          "name": "toBalance",
          "type": "uint256"
        }
      ],
      "name": "getNextCooldownTimestamp",
      "outputs": [
        {
          "internalType": "uint256",
          "name": "",
          "type": "uint256"
        }
      ],
      "stateMutability": "view",
      "type": "function"
    },
    {
      "inputs": [
        {
          "internalType": "address",
          "name": "user",
          "type": "address"
        },
        {
          "internalType": "uint256",
          "name": "blockNumber",
          "type": "uint256"
        },
        {
          "internalType": "enum IGovernancePowerDelegationToken.DelegationType",
          "name": "delegationType",
          "type": "uint8"
        }
      ],
      "name": "getPowerAtBlock",
      "outputs": [
        {
          "internalType": "uint256",
          "name": "",
          "type": "uint256"
        }
      ],
      "stateMutability": "view",
      "type": "function"
    },
    {
      "inputs": [
        {
          "internalType": "address",
          "name": "user",
          "type": "address"
        },
        {
          "internalType": "enum IGovernancePowerDelegationToken.DelegationType",
          "name": "delegationType",
          "type": "uint8"
        }
      ],
      "name": "getPowerCurrent",
      "outputs": [
        {
          "internalType": "uint256",
          "name": "",
          "type": "uint256"
        }
      ],
      "stateMutability": "view",
      "type": "function"
    },
    {
      "inputs": [
        {
          "internalType": "address",
          "name": "staker",
          "type": "address"
        }
      ],
      "name": "getTotalRewardsBalance",
      "outputs": [
        {
          "internalType": "uint256",
          "name": "",
          "type": "uint256"
        }
      ],
      "stateMutability": "view",
      "type": "function"
    },
    {
      "inputs": [
        {
          "internalType": "address",
          "name": "user",
          "type": "address"
        },
        {
          "internalType": "address",
          "name": "asset",
          "type": "address"
        }
      ],
      "name": "getUserAssetData",
      "outputs": [
        {
          "internalType": "uint256",
          "name": "",
          "type": "uint256"
        }
      ],
      "stateMutability": "view",
      "type": "function"
    },
    {
      "inputs": [
        {
          "internalType": "address",
          "name": "spender",
          "type": "address"
        },
        {
          "internalType": "uint256",
          "name": "addedValue",
          "type": "uint256"
        }
      ],
      "name": "increaseAllowance",
      "outputs": [
        {
          "internalType": "bool",
          "name": "",
          "type": "bool"
        }
      ],
      "stateMutability": "nonpayable",
      "type": "function"
    },
    {
      "inputs": [],
      "name": "initialize",
      "outputs": [],
      "stateMutability": "nonpayable",
      "type": "function"
    },
    {
      "inputs": [],
      "name": "name",
      "outputs": [
        {
          "internalType": "string",
          "name": "",
          "type": "string"
        }
      ],
      "stateMutability": "view",
      "type": "function"
    },
    {
      "inputs": [
        {
          "internalType": "address",
          "name": "owner",
          "type": "address"
        },
        {
          "internalType": "address",
          "name": "spender",
          "type": "address"
        },
        {
          "internalType": "uint256",
          "name": "value",
          "type": "uint256"
        },
        {
          "internalType": "uint256",
          "name": "deadline",
          "type": "uint256"
        },
        {
          "internalType": "uint8",
          "name": "v",
          "type": "uint8"
        },
        {
          "internalType": "bytes32",
          "name": "r",
          "type": "bytes32"
        },
        {
          "internalType": "bytes32",
          "name": "s",
          "type": "bytes32"
        }
      ],
      "name": "permit",
      "outputs": [],
      "stateMutability": "nonpayable",
      "type": "function"
    },
    {
      "inputs": [
        {
          "internalType": "address",
          "name": "to",
          "type": "address"
        },
        {
          "internalType": "uint256",
          "name": "amount",
          "type": "uint256"
        }
      ],
      "name": "redeem",
      "outputs": [],
      "stateMutability": "nonpayable",
      "type": "function"
    },
    {
      "inputs": [
        {
          "internalType": "address",
          "name": "onBehalfOf",
          "type": "address"
        },
        {
          "internalType": "uint256",
          "name": "amount",
          "type": "uint256"
        }
      ],
      "name": "stake",
      "outputs": [],
      "stateMutability": "nonpayable",
      "type": "function"
    },
    {
      "inputs": [
        {
          "internalType": "address",
          "name": "",
          "type": "address"
        }
      ],
      "name": "stakerRewardsToClaim",
      "outputs": [
        {
          "internalType": "uint256",
          "name": "",
          "type": "uint256"
        }
      ],
      "stateMutability": "view",
      "type": "function"
    },
    {
      "inputs": [
        {
          "internalType": "address",
          "name": "",
          "type": "address"
        }
      ],
      "name": "stakersCooldowns",
      "outputs": [
        {
          "internalType": "uint256",
          "name": "",
          "type": "uint256"
        }
      ],
      "stateMutability": "view",
      "type": "function"
    },
    {
      "inputs": [],
      "name": "symbol",
      "outputs": [
        {
          "internalType": "string",
          "name": "",
          "type": "string"
        }
      ],
      "stateMutability": "view",
      "type": "function"
    },
    {
      "inputs": [],
      "name": "totalSupply",
      "outputs": [
        {
          "internalType": "uint256",
          "name": "",
          "type": "uint256"
        }
      ],
      "stateMutability": "view",
      "type": "function"
    },
    {
      "inputs": [
        {
          "internalType": "uint256",
          "name": "blockNumber",
          "type": "uint256"
        }
      ],
      "name": "totalSupplyAt",
      "outputs": [
        {
          "internalType": "uint256",
          "name": "",
          "type": "uint256"
        }
      ],
      "stateMutability": "view",
      "type": "function"
    },
    {
      "inputs": [
        {
          "internalType": "address",
          "name": "recipient",
          "type": "address"
        },
        {
          "internalType": "uint256",
          "name": "amount",
          "type": "uint256"
        }
      ],
      "name": "transfer",
      "outputs": [
        {
          "internalType": "bool",
          "name": "",
          "type": "bool"
        }
      ],
      "stateMutability": "nonpayable",
      "type": "function"
    },
    {
      "inputs": [
        {
          "internalType": "address",
          "name": "sender",
          "type": "address"
        },
        {
          "internalType": "address",
          "name": "recipient",
          "type": "address"
        },
        {
          "internalType": "uint256",
          "name": "amount",
          "type": "uint256"
        }
      ],
      "name": "transferFrom",
      "outputs": [
        {
          "internalType": "bool",
          "name": "",
          "type": "bool"
        }
      ],
      "stateMutability": "nonpayable",
      "type": "function"
    }
  ],
  "bytecode": "0x61016060405260006009553480156200001757600080fd5b5060405162003d1a38038062003d1a8339810160408190526200003a916200032d565b85856001600160801b0316858581600390805190602001906200005f92919062000197565b5080516200007590600490602084019062000197565b505060058054601260ff19909116179055506200009f42826200011f602090811b6200196b17901c565b60805250606090811b6001600160601b031990811660a0528c821b811660c0528b821b811660e0526101008b90526101208a90529088901b1661014052600880546001600160a01b0319166001600160a01b0383161790556200010e8262000181602090811b620019c517901c565b505050505050505050505062000434565b6000828201838110156200017a576040805162461bcd60e51b815260206004820152601b60248201527f536166654d6174683a206164646974696f6e206f766572666c6f770000000000604482015290519081900360640190fd5b9392505050565b6005805460ff191660ff92909216919091179055565b828054600181600116156101000203166002900490600052602060002090601f016020900481019282620001cf57600085556200021a565b82601f10620001ea57805160ff19168380011785556200021a565b828001600101855582156200021a579182015b828111156200021a578251825591602001919060010190620001fd565b50620002289291506200022c565b5090565b5b808211156200022857600081556001016200022d565b80516001600160a01b03811681146200025b57600080fd5b919050565b600082601f83011262000271578081fd5b81516001600160401b03808211156200028657fe5b6040516020601f8401601f1916820181018381118382101715620002a657fe5b80604052508194508382528681858801011115620002c357600080fd5b600092505b83831015620002e75785830181015182840182015291820191620002c8565b83831115620002f95760008185840101525b5050505092915050565b80516001600160801b03811681146200025b57600080fd5b805160ff811681146200025b57600080fd5b60008060008060008060008060008060006101608c8e0312156200034f578687fd5b6200035a8c62000243565b9a506200036a60208d0162000243565b995060408c0151985060608c015197506200038860808d0162000243565b96506200039860a08d0162000243565b9550620003a860c08d0162000303565b60e08d01519095506001600160401b03811115620003c4578485fd5b620003d28e828f0162000260565b6101008e015190955090506001600160401b03811115620003f1578384fd5b620003ff8e828f0162000260565b935050620004116101208d016200031b565b9150620004226101408d0162000243565b90509295989b509295989b9093969950565b60805160a05160601c60c05160601c60e05160601c61010051610120516101405160601c613845620004d560003980610d705280610ec852508061076e52806109c6528061172852508061072a52806107965280610aef528061174d525080610dff5280610e9e525080610842528061096952806110de52508061115452806114dd525080610d4c5280612cb15280612ced5280612d1a52506138456000f3fe608060405234801561001057600080fd5b50600436106102d65760003560e01c80638dbefee211610182578063b2a5dbfa116100e9578063d505accf116100a2578063dde43cba1161007c578063dde43cba146105c3578063f11b8188146105cb578063f1cc432a146105ed578063f713d8a814610600576102d6565b8063d505accf1461058a578063dc937e1c1461059d578063dd62ed3e146105b0576102d6565b8063b2a5dbfa14610523578063b2f4201d14610536578063b9844d8d14610549578063c2ffbb911461055c578063c3cda5201461056f578063cbcbb50714610582576102d6565b80639a99b4f01161013b5780639a99b4f0146104c7578063a457c2d7146104da578063a9059cbb146104ed578063aa9fbe0214610500578063aaf5eb6814610508578063adc9772e14610510576102d6565b80638dbefee214610481578063919cd40f14610494578063946776cd1461049c57806395d89b41146104a4578063981b24d0146104ac57806399248ea7146104bf576102d6565b80633644e5151161024157806370a08231116101fa578063787a08a6116101d4578063787a08a61461044b5780637bb73c97146104535780637e90d7ef146104665780638129fc1c14610479576102d6565b806370a082311461042857806372b49d631461043b5780637816037614610443576102d6565b80633644e515146103be57806339509351146103c657806341cbf54a146103d95780635b3cc0cf146103e15780635c19a95c146104025780636f50458d14610415576102d6565b806323b872dd1161029357806323b872dd1461036b57806330adf81f1461037e578063312f6b8314610386578063313ce5671461038e5780633373ee4c146103a3578063359c4a96146103b6576102d6565b806306fdde03146102db578063091030c3146102f9578063095ea7b31461031957806318160ddd146103395780631c2f3e3d146103415780631e9a695014610356575b600080fd5b6102e3610613565b6040516102f09190613441565b60405180910390f35b61030c610307366004612fb8565b6106a9565b6040516102f0919061336a565b61032c610327366004613102565b6106bb565b6040516102f0919061335f565b61030c6106d9565b6103496106df565b6040516102f0919061330e565b610369610364366004613102565b6106ee565b005b61032c610379366004613004565b6108bb565b61030c610943565b610349610967565b61039661098b565b6040516102f09190613644565b61030c6103b1366004612fd2565b610994565b61030c6109c4565b61030c6109e8565b61032c6103d4366004613102565b6109ee565b61030c610a3c565b6103f46103ef366004613102565b610a60565b6040516102f0929190613606565b610369610410366004612fb8565b610a91565b6103496104233660046130a8565b610aac565b61030c610436366004612fb8565b610ace565b61030c610aed565b6102e3610b11565b610369610b2e565b61030c610461366004612fb8565b610b8d565b61030c610474366004612fb8565b610b9f565b610369610bb1565b61030c61048f366004612fb8565b610c9b565b61030c610d4a565b610349610d6e565b6102e3610d92565b61030c6104ba366004613254565b610df3565b610349610dfd565b6103696104d5366004613102565b610e21565b61032c6104e8366004613102565b610f3f565b61032c6104fb366004613102565b610fa7565b61030c610fbb565b610396610fdf565b61036961051e366004613102565b610fe4565b6103696105313660046131bd565b611149565b61030c6105443660046130a8565b6112fc565b61030c610557366004612fb8565b611324565b61030c61056a36600461312b565b611336565b61036961057d366004613166565b61135f565b6103496114db565b61036961059836600461303f565b6114ff565b6103696105ab3660046130a8565b61168c565b61030c6105be366004612fd2565b61169b565b61030c6116c6565b6105de6105d9366004612fb8565b6116cb565b6040516102f093929190613620565b61030c6105fb36600461326c565b6116f9565b61036961060e3660046130d1565b6117ee565b60038054604080516020601f600260001961010060018816150201909516949094049384018190048102820181019092528281526060939092909183018282801561069f5780601f106106745761010080835404028352916020019161069f565b820191906000526020600020905b81548152906001019060200180831161068257829003601f168201915b5050505050905090565b603e6020526000908152604090205481565b60006106cf6106c86119db565b84846119df565b5060015b92915050565b60025490565b6008546001600160a01b031681565b806107145760405162461bcd60e51b815260040161070b90613454565b60405180910390fd5b336000908152603e602052604090205461074e817f000000000000000000000000000000000000000000000000000000000000000061196b565b421161076c5760405162461bcd60e51b815260040161070b906134ac565b7f00000000000000000000000000000000000000000000000000000000000000006107c16107ba837f000000000000000000000000000000000000000000000000000000000000000061196b565b4290611acb565b11156107df5760405162461bcd60e51b815260040161070b90613584565b60006107ea33610ace565b905060008184116107fb57836107fd565b815b905061080b33836001611b0d565b506108163382611bb1565b6108208282611acb565b61083557336000908152603e60205260408120555b6108696001600160a01b037f0000000000000000000000000000000000000000000000000000000000000000168683611cad565b846001600160a01b0316336001600160a01b03167fd12200efa34901b99367694174c3b0d32c99585fdf37c7c26892136ddd0836d9836040516108ac919061336a565b60405180910390a35050505050565b60006108c8848484611cff565b610938846108d46119db565b61093385604051806060016040528060288152602001613701602891396001600160a01b038a166000908152600160205260408120906109126119db565b6001600160a01b031681526020810191909152604001600020549190611dcb565b6119df565b5060015b9392505050565b7f6e71edae12b1b97f4d1f60370fef10105fa2faae0126114a169c64845d6126c981565b7f000000000000000000000000000000000000000000000000000000000000000081565b60055460ff1690565b6001600160a01b038082166000908152603c60209081526040808320938616835260029093019052205492915050565b7f000000000000000000000000000000000000000000000000000000000000000081565b60435481565b60006106cf6109fb6119db565b846109338560016000610a0c6119db565b6001600160a01b03908116825260208083019390935260409182016000908120918c16815292529020549061196b565b7f9a9a49b990ba9bb39f8048c490a40ab25c18f55d208d5fbcf958261a9b48716d81565b60066020908152600092835260408084209091529082529020546001600160801b0380821691600160801b90041682565b610a9d33826000611e62565b610aa933826001611e62565b50565b600080610ab883611f73565b92505050610ac68482611fad565b949350505050565b6001600160a01b0381166000908152602081905260409020545b919050565b7f000000000000000000000000000000000000000000000000000000000000000081565b604051806040016040528060018152602001603160f81b81525081565b610b3733610ace565b610b535760405162461bcd60e51b815260040161070b906135bb565b336000818152603e6020526040808220429055517ff52f50426b32362d3e6bb8cb36b7074756b224622def6352a59eac7f66ebe6e89190a2565b60076020526000908152604090205481565b603d6020526000908152604090205481565b6000610bbb611fd8565b90506009548111610bfd5760405162461bcd60e51b815260040180806020018281038252602e815260200180613729602e913960400191505060405180910390fd5b6009819055467f8b73c3c69bb8fe3d512ecc4cf759cc79239f7b179b0ffacaa9a75d522b39400f610c2c610613565b805160209182012060408051808201825260018152603160f81b9084015251610c7c93927fc89efdaa54c0f20c7adf612882df0950f5a951637e0307cdcb4c672f298b8bc69186913091016133f7565b60408051601f1981840301815291905280516020909101206043555050565b60408051600180825281830190925260009160609190816020015b610cbe612f40565b815260200190600190039081610cb65790505090506040518060600160405280306001600160a01b03168152602001610cf685610ace565b8152602001610d036106d9565b81525081600081518110610d1357fe5b602002602001018190525061093c610d2b8483611fdd565b6001600160a01b0385166000908152603d60205260409020549061196b565b7f000000000000000000000000000000000000000000000000000000000000000081565b7f000000000000000000000000000000000000000000000000000000000000000081565b60048054604080516020601f600260001961010060018816150201909516949094049384018190048102820181019092528281526060939092909183018282801561069f5780601f106106745761010080835404028352916020019161069f565b60006106d36106d9565b7f000000000000000000000000000000000000000000000000000000000000000081565b6000610e3733610e3033610ace565b6000611b0d565b905060006000198314610e4a5782610e4c565b815b9050610e89816040518060400160405280600e81526020016d1253959053125117d05353d5539560921b81525084611dcb9092919063ffffffff16565b336000908152603d6020526040902055610eee7f00000000000000000000000000000000000000000000000000000000000000006001600160a01b03167f000000000000000000000000000000000000000000000000000000000000000086846120ce565b836001600160a01b0316336001600160a01b03167f9310ccfcb8de723f578a9e4282ea9f521f05ae40dc08f3068dfad528a65ee3c783604051610f31919061336a565b60405180910390a350505050565b60006106cf610f4c6119db565b84610933856040518060600160405280602581526020016137eb6025913960016000610f766119db565b6001600160a01b03908116825260208083019390935260409182016000908120918d16815292529020549190611dcb565b60006106cf610fb46119db565b8484611cff565b7f10d8d059343739efce7dad10d09f0806da52b252b3e6a7951920d2d6ec4102e581565b601281565b806110015760405162461bcd60e51b815260040161070b90613454565b600061100c83610ace565b9050600061102384308461101e6106d9565b612128565b905080156110a1577f2468f9268c60ad90e2d49edb0032c8a001e733ae888b3ab8e982edf535be1a76848260405161105c929190613346565b60405180910390a16001600160a01b0384166000908152603d6020526040902054611087908261196b565b6001600160a01b0385166000908152603d60205260409020555b6110ae60008486856116f9565b6001600160a01b0385166000908152603e60205260409020556110d184846121e7565b6111066001600160a01b037f0000000000000000000000000000000000000000000000000000000000000000163330866120ce565b836001600160a01b0316336001600160a01b03167f5dac0c1b1112564a045ba943c9d50270893e8e826c49be8e7073adc713ab7bd785604051610f31919061336a565b336001600160a01b037f000000000000000000000000000000000000000000000000000000000000000016146111915760405162461bcd60e51b815260040161070b9061352e565b60005b818110156112f7576000603c60008585858181106111ae57fe5b90506060020160400160208101906111c69190612fb8565b6001600160a01b03166001600160a01b03168152602001908152602001600020905061122b8484848181106111f757fe5b905060600201604001602081019061120f9190612fb8565b8286868681811061121c57fe5b905060600201602001356122d7565b5083838381811061123857fe5b61124e926020606090920201908101915061322d565b81546001600160801b0319166001600160801b039190911617815583838381811061127557fe5b905060600201604001602081019061128d9190612fb8565b6001600160a01b03167f87fa03892a0556cb6b8f97e6d533a150d4d55fcbf275fff5fa003fa636bcc7fa8585858181106112c357fe5b6112d9926020606090920201908101915061322d565b6040516112e691906135f2565b60405180910390a250600101611194565b505050565b600080600061130a84611f73565b509150915061131b82828743612394565b95945050505050565b60446020526000908152604090205481565b600080600061134484611f73565b509150915061135582828888612394565b9695505050505050565b60007f9a9a49b990ba9bb39f8048c490a40ab25c18f55d208d5fbcf958261a9b48716d87878760405160200161139894939291906133a7565b6040516020818303038152906040528051906020012090506000604354826040516020016113c79291906132f3565b6040516020818303038152906040528051906020012090506000600182878787604051600081526020016040526040516114049493929190613423565b6020604051602081039080840390855afa158015611426573d6000803e3d6000fd5b5050604051601f1901519150506001600160a01b0381166114595760405162461bcd60e51b815260040161070b90613481565b6001600160a01b038116600090815260446020526040902080546001810190915588146114985760405162461bcd60e51b815260040161070b90613507565b864211156114b85760405162461bcd60e51b815260040161070b906134db565b6114c4818a6000611e62565b6114d0818a6001611e62565b505050505050505050565b7f000000000000000000000000000000000000000000000000000000000000000081565b6001600160a01b0387166115255760405162461bcd60e51b815260040161070b9061355d565b834211156115455760405162461bcd60e51b815260040161070b906134db565b6001600160a01b038716600090815260446020908152604080832054604354915190939261159f917f6e71edae12b1b97f4d1f60370fef10105fa2faae0126114a169c64845d6126c9918d918d918d9189918e9101613373565b604051602081830303815290604052805190602001206040516020016115c69291906132f3565b604051602081830303815290604052805190602001209050600181868686604051600081526020016040526040516116019493929190613423565b6020604051602081039080840390855afa158015611623573d6000803e3d6000fd5b505050602060405103516001600160a01b0316896001600160a01b03161461165d5760405162461bcd60e51b815260040161070b90613481565b61166882600161196b565b6001600160a01b038a166000908152604460205260409020556114d08989896119df565b611697338383611e62565b5050565b6001600160a01b03918216600090815260016020908152604080832093909416825291909152205490565b600281565b603c60205260009081526040902080546001909101546001600160801b0380831692600160801b9004169083565b6001600160a01b0382166000908152603e602052604081205480611721576000915050610ac6565b60006117777f0000000000000000000000000000000000000000000000000000000000000000611771427f0000000000000000000000000000000000000000000000000000000000000000611acb565b90611acb565b90508181111561178a57600091506117e4565b6000878211611799578761179b565b425b9050828110156117b057829350505050610ac6565b6117e06117bd888761196b565b6117da6117ca88876125b0565b6117d48b866125b0565b9061196b565b90612609565b9250505b5095945050505050565b60007f10d8d059343739efce7dad10d09f0806da52b252b3e6a7951920d2d6ec4102e58888600181111561181e57fe5b88886040516020016118349594939291906133cb565b6040516020818303038152906040528051906020012090506000604354826040516020016118639291906132f3565b6040516020818303038152906040528051906020012090506000600182878787604051600081526020016040526040516118a09493929190613423565b6020604051602081039080840390855afa1580156118c2573d6000803e3d6000fd5b5050604051601f1901519150506001600160a01b0381166118f55760405162461bcd60e51b815260040161070b90613481565b6001600160a01b038116600090815260446020526040902080546001810190915588146119345760405162461bcd60e51b815260040161070b90613507565b864211156119545760405162461bcd60e51b815260040161070b906134db565b61195f818b8b611e62565b50505050505050505050565b60008282018381101561093c576040805162461bcd60e51b815260206004820152601b60248201527f536166654d6174683a206164646974696f6e206f766572666c6f770000000000604482015290519081900360640190fd5b6005805460ff191660ff92909216919091179055565b3390565b6001600160a01b038316611a245760405162461bcd60e51b815260040180806020018281038252602481526020018061379d6024913960400191505060405180910390fd5b6001600160a01b038216611a695760405162461bcd60e51b81526004018080602001828103825260228152602001806136986022913960400191505060405180910390fd5b6001600160a01b03808416600081815260016020908152604080832094871680845294825291829020859055815185815291517f8c5be1e5ebec7d5bd14f71427d1e84f3dd0314c0f7b2291e5b200ac8c7c3b9259281900390910190a3505050565b600061093c83836040518060400160405280601e81526020017f536166654d6174683a207375627472616374696f6e206f766572666c6f770000815250611dcb565b600080611b1e85308661101e6106d9565b6001600160a01b0386166000908152603d602052604081205491925090611b45908361196b565b9050811561131b578315611b6f576001600160a01b0386166000908152603d602052604090208190555b7f2468f9268c60ad90e2d49edb0032c8a001e733ae888b3ab8e982edf535be1a768683604051611ba0929190613346565b60405180910390a195945050505050565b6001600160a01b038216611bf65760405162461bcd60e51b81526004018080602001828103825260218152602001806137576021913960400191505060405180910390fd5b611c028260008361264b565b611c3f81604051806060016040528060228152602001613676602291396001600160a01b0385166000908152602081905260409020549190611dcb565b6001600160a01b038316600090815260208190526040902055600254611c659082611acb565b6002556040805182815290516000916001600160a01b038516917fddf252ad1be2c89b69c2b068fc378daa952ba7f163c4a11628f55a4df523b3ef9181900360200190a35050565b604080516001600160a01b038416602482015260448082018490528251808303909101815260649091019091526020810180516001600160e01b031663a9059cbb60e01b1790526112f7908490612768565b6000611d0a84610ace565b9050611d1884826001611b0d565b50826001600160a01b0316846001600160a01b031614611dba576000611d3d84610ace565b9050611d4b84826001611b0d565b506001600160a01b0385166000908152603e6020526040902054611d71818587856116f9565b6001600160a01b0386166000908152603e60205260409020558284148015611d9857508015155b15611db7576001600160a01b0386166000908152603e60205260408120555b50505b611dc5848484612920565b50505050565b60008184841115611e5a5760405162461bcd60e51b81526004018080602001828103825283818151815260200191508051906020019080838360005b83811015611e1f578181015183820152602001611e07565b50505050905090810190601f168015611e4c5780820380516001836020036101000a031916815260200191505b509250505060405180910390fd5b505050900390565b6001600160a01b038216611eb1576040805162461bcd60e51b8152602060048201526011602482015270494e56414c49445f44454c45474154454560781b604482015290519081900360640190fd5b6000611ebc82611f73565b925050506000611ecb85610ace565b90506000611ed98684611fad565b6001600160a01b03878116600090815260208690526040902080546001600160a01b0319169188169190911790559050611f1581868487612a7b565b846001600160a01b0316866001600160a01b03167fe8d51c8e11bd570db1734c8ec775785330e77007feed45c43b608ef33ff914bd8660405180826001811115611f5b57fe5b815260200191505060405180910390a3505050505050565b6000808080846001811115611f8457fe5b1415611f9a57506006915060079050603f611fa6565b50604091506041905060425b9193909250565b6001600160a01b038083166000908152602083905260408120549091168061093c57839150506106d3565b600290565b600080805b83518110156120c6576000603c6000868481518110611ffd57fe5b602090810291909101810151516001600160a01b031682528101919091526040016000908120600181015481548851929450612065926001600160801b0380831692600160801b900416908a908890811061205457fe5b602002602001015160400151612c89565b90506120ba6120b387858151811061207957fe5b602002602001015160200151838560020160008c6001600160a01b03166001600160a01b0316815260200190815260200160002054612d82565b859061196b565b93505050600101611fe2565b509392505050565b604080516001600160a01b0380861660248301528416604482015260648082018490528251808303909101815260849091019091526020810180516001600160e01b03166323b872dd60e01b179052611dc5908590612768565b6001600160a01b038084166000908152603c6020908152604080832093881683526002840190915281205490919082806121638885886122d7565b90508083146121db5786156121805761217d878285612d82565b91505b6001600160a01b03808a1660008181526002870160205260409081902084905551918a16917fbb123b5c06d5408bbea3c4fef481578175cfb432e3b482c6186f02ed9086585b906121d290859061336a565b60405180910390a35b50979650505050505050565b6001600160a01b038216612242576040805162461bcd60e51b815260206004820152601f60248201527f45524332303a206d696e7420746f20746865207a65726f206164647265737300604482015290519081900360640190fd5b61224e6000838361264b565b60025461225b908261196b565b6002556001600160a01b038216600090815260208190526040902054612281908261196b565b6001600160a01b0383166000818152602081815260408083209490945583518581529351929391927fddf252ad1be2c89b69c2b068fc378daa952ba7f163c4a11628f55a4df523b3ef9281900390910190a35050565b6001820154825460009190600160801b90046001600160801b0316428114156123025750905061093c565b845460009061231d9084906001600160801b03168488612c89565b905082811461237157808660010181905550866001600160a01b03167f5777ca300dfe5bead41006fbce4389794dbc0ed8d6cccebfaf94630aa04184bc82604051612368919061336a565b60405180910390a25b85546001600160801b03428116600160801b029116178655925050509392505050565b6000438211156123e2576040805162461bcd60e51b815260206004820152601460248201527324a72b20a624a22fa12627a1a5afa72aa6a122a960611b604482015290519081900360640190fd5b6001600160a01b038316600090815260208590526040902054806124115761240984610ace565b915050610ac6565b6001600160a01b038416600090815260208781526040808320600019850184529091529020546001600160801b03168310612484576001600160a01b038416600090815260208781526040808320600019909401835292905220546001600160801b03600160801b909104169050610ac6565b6001600160a01b0384166000908152602087815260408083208380529091529020546001600160801b03168310156124c0576000915050610ac6565b600060001982015b818111156125725760028282030481036124e0612f6a565b506001600160a01b038716600090815260208a815260408083208484528252918290208251808401909352546001600160801b03808216808552600160801b909204169183019190915287141561254a57602001516001600160801b03169450610ac69350505050565b80516001600160801b03168711156125645781935061256b565b6001820392505b50506124c8565b506001600160a01b03851660009081526020888152604080832093835292905220546001600160801b03600160801b90910416915050949350505050565b6000826125bf575060006106d3565b828202828482816125cc57fe5b041461093c5760405162461bcd60e51b81526004018080602001828103825260218152602001806136e06021913960400191505060405180910390fd5b600061093c83836040518060400160405280601a81526020017f536166654d6174683a206469766973696f6e206279207a65726f000000000000815250612da4565b6001600160a01b038084166000908152603f602052604080822054858416835291205490821691168161267c578491505b6001600160a01b03811661268d5750825b61269a8282856000612a7b565b6001600160a01b038086166000908152604260205260408082205487841683529120549082169116816126cb578691505b6001600160a01b0381166126dc5750845b6126e98282876001612a7b565b6008546001600160a01b0316801561275e57604051634a39314960e01b81526001600160a01b03821690634a3931499061272b908b908b908b90600401613322565b600060405180830381600087803b15801561274557600080fd5b505af1158015612759573d6000803e3d6000fd5b505050505b5050505050505050565b61277a826001600160a01b0316612e09565b6127cb576040805162461bcd60e51b815260206004820152601f60248201527f5361666545524332303a2063616c6c20746f206e6f6e2d636f6e747261637400604482015290519081900360640190fd5b60006060836001600160a01b0316836040518082805190602001908083835b602083106128095780518252601f1990920191602091820191016127ea565b6001836020036101000a0380198251168184511680821785525050505050509050019150506000604051808303816000865af19150503d806000811461286b576040519150601f19603f3d011682016040523d82523d6000602084013e612870565b606091505b5091509150816128c7576040805162461bcd60e51b815260206004820181905260248201527f5361666545524332303a206c6f772d6c6576656c2063616c6c206661696c6564604482015290519081900360640190fd5b805115611dc5578080602001905160208110156128e357600080fd5b5051611dc55760405162461bcd60e51b815260040180806020018281038252602a8152602001806137c1602a913960400191505060405180910390fd5b6001600160a01b0383166129655760405162461bcd60e51b81526004018080602001828103825260258152602001806137786025913960400191505060405180910390fd5b6001600160a01b0382166129aa5760405162461bcd60e51b81526004018080602001828103825260238152602001806136536023913960400191505060405180910390fd5b6129b583838361264b565b6129f2816040518060600160405280602681526020016136ba602691396001600160a01b0386166000908152602081905260409020549190611dcb565b6001600160a01b038085166000908152602081905260408082209390935590841681522054612a21908261196b565b6001600160a01b038084166000818152602081815260409182902094909455805185815290519193928716927fddf252ad1be2c89b69c2b068fc378daa952ba7f163c4a11628f55a4df523b3ef92918290030190a3505050565b826001600160a01b0316846001600160a01b03161415612a9a57611dc5565b600080612aa683611f73565b5090925090506001600160a01b03861615612b99576001600160a01b0386166000908152602082905260408120548015612b17576001600160a01b03881660009081526020858152604080832060001985018452909152902054600160801b90046001600160801b03169150612b23565b612b2088610ace565b91505b612b3984848a85612b34818c611acb565b612e42565b6001600160a01b0388167fa0a19463ee116110c9b282012d9b65cc5522dc38a9520340cbaf3142e550127f612b6e8489611acb565b8760405180838152602001826001811115612b8557fe5b81526020019250505060405180910390a250505b6001600160a01b03851615612c81576001600160a01b0385166000908152602082905260408120548015612c04576001600160a01b03871660009081526020858152604080832060001985018452909152902054600160801b90046001600160801b03169150612c10565b612c0d87610ace565b91505b612c2184848985612b34818c61196b565b6001600160a01b0387167fa0a19463ee116110c9b282012d9b65cc5522dc38a9520340cbaf3142e550127f612c56848961196b565b8760405180838152602001826001811115612c6d57fe5b81526020019250505060405180910390a250505b505050505050565b6000831580612c96575081155b80612ca9575042836001600160801b0316145b80612cdd57507f0000000000000000000000000000000000000000000000000000000000000000836001600160801b031610155b15612ce9575083610ac6565b60007f00000000000000000000000000000000000000000000000000000000000000004211612d185742612d3a565b7f00000000000000000000000000000000000000000000000000000000000000005b90506000612d51826001600160801b038716611acb565b9050612d77876117d4866117da670de0b6b3a7640000612d718c886125b0565b906125b0565b979650505050505050565b6000610ac6670de0b6b3a76400006117da612d9d8686611acb565b87906125b0565b60008183612df35760405162461bcd60e51b8152602060048201818152835160248401528351909283926044909101919085019080838360008315611e1f578181015183820152602001611e07565b506000838581612dff57fe5b0495945050505050565b6000813f7fc5d2460186f7233c927e7db2dcc703c0e500b653ca82273b7bfad8045d85a470818114801590610ac6575050151592915050565b6001600160a01b03831660009081526020858152604080832054918890529091204391908115801590612e93575060001982016000908152602082905260409020546001600160801b038481169116145b15612ec8576000198201600090815260208290526040902080546001600160801b03808716600160801b02911617905561275e565b6040805180820182526001600160801b038086168252868116602080840191825260008781528682528581209451855493518516600160801b029085166001600160801b031990941693909317909316919091179092556001600160a01b038916815290899052206001830190555050505050505050565b604051806060016040528060006001600160a01b0316815260200160008152602001600081525090565b604080518082019091526000808252602082015290565b80356001600160a01b0381168114610ae857600080fd5b803560028110610ae857600080fd5b803560ff81168114610ae857600080fd5b600060208284031215612fc9578081fd5b61093c82612f81565b60008060408385031215612fe4578081fd5b612fed83612f81565b9150612ffb60208401612f81565b90509250929050565b600080600060608486031215613018578081fd5b61302184612f81565b925061302f60208501612f81565b9150604084013590509250925092565b600080600080600080600060e0888a031215613059578283fd5b61306288612f81565b965061307060208901612f81565b9550604088013594506060880135935061308c60808901612fa7565b925060a0880135915060c0880135905092959891949750929550565b600080604083850312156130ba578182fd5b6130c383612f81565b9150612ffb60208401612f98565b600080600080600080600060e0888a0312156130eb578283fd5b6130f488612f81565b965061307060208901612f98565b60008060408385031215613114578182fd5b61311d83612f81565b946020939093013593505050565b60008060006060848603121561313f578283fd5b61314884612f81565b92506020840135915061315d60408501612f98565b90509250925092565b60008060008060008060c0878903121561317e578182fd5b61318787612f81565b955060208701359450604087013593506131a360608801612fa7565b92506080870135915060a087013590509295509295509295565b600080602083850312156131cf578182fd5b823567ffffffffffffffff808211156131e6578384fd5b818501915085601f8301126131f9578384fd5b813581811115613207578485fd5b86602060608302850101111561321b578485fd5b60209290920196919550909350505050565b60006020828403121561323e578081fd5b81356001600160801b038116811461093c578182fd5b600060208284031215613265578081fd5b5035919050565b60008060008060808587031215613281578182fd5b843593506020850135925061329860408601612f81565b9396929550929360600135925050565b60008151808452815b818110156132cd576020818501810151868301820152016132b1565b818111156132de5782602083870101525b50601f01601f19169290920160200192915050565b61190160f01b81526002810192909252602282015260420190565b6001600160a01b0391909116815260200190565b6001600160a01b039384168152919092166020820152604081019190915260600190565b6001600160a01b03929092168252602082015260400190565b901515815260200190565b90815260200190565b9586526001600160a01b0394851660208701529290931660408501526060840152608083019190915260a082015260c00190565b9384526001600160a01b039290921660208401526040830152606082015260800190565b9485526001600160a01b0393909316602085015260408401919091526060830152608082015260a00190565b9485526020850193909352604084019190915260608301526001600160a01b0316608082015260a00190565b93845260ff9290921660208401526040830152606082015260800190565b60006020825261093c60208301846132a8565b6020808252601390820152721253959053125117d6915493d7d05353d55395606a1b604082015260600190565b602080825260119082015270494e56414c49445f5349474e415455524560781b604082015260600190565b60208082526015908201527424a729aaa32324a1a4a2a72a2fa1a7a7a62227aba760591b604082015260600190565b60208082526012908201527124a72b20a624a22fa2ac2824a920aa24a7a760711b604082015260600190565b6020808252600d908201526c494e56414c49445f4e4f4e434560981b604082015260600190565b60208082526015908201527427a7262cafa2a6a4a9a9a4a7a72fa6a0a720a3a2a960591b604082015260600190565b6020808252600d908201526c24a72b20a624a22fa7aba722a960991b604082015260600190565b60208082526017908201527f554e5354414b455f57494e444f575f46494e4953484544000000000000000000604082015260600190565b6020808252601b908201527f494e56414c49445f42414c414e43455f4f4e5f434f4f4c444f574e0000000000604082015260600190565b6001600160801b0391909116815260200190565b6001600160801b0392831681529116602082015260400190565b6001600160801b039384168152919092166020820152604081019190915260600190565b60ff9190911681526020019056fe45524332303a207472616e7366657220746f20746865207a65726f206164647265737345524332303a206275726e20616d6f756e7420657863656564732062616c616e636545524332303a20617070726f766520746f20746865207a65726f206164647265737345524332303a207472616e7366657220616d6f756e7420657863656564732062616c616e6365536166654d6174683a206d756c7469706c69636174696f6e206f766572666c6f7745524332303a207472616e7366657220616d6f756e74206578636565647320616c6c6f77616e6365436f6e747261637420696e7374616e63652068617320616c7265616479206265656e20696e697469616c697a656445524332303a206275726e2066726f6d20746865207a65726f206164647265737345524332303a207472616e736665722066726f6d20746865207a65726f206164647265737345524332303a20617070726f76652066726f6d20746865207a65726f20616464726573735361666545524332303a204552433230206f7065726174696f6e20646964206e6f74207375636365656445524332303a2064656372656173656420616c6c6f77616e63652062656c6f77207a65726fa2646970667358221220f0cd873d65485204df810b5d1ed25fbb1786121f82632a06b4615382dfced8bd64736f6c63430007050033",
  "linkReferences": {},
  "deployedLinkReferences": {}
}