{
  "_format": "hh-sol-artifact-1",
  "contractName": "StakedTokenV3",
  "sourceName": "contracts/stake/StakedTokenV3.sol",
  "abi": [
    {
      "inputs": [
        {
          "internalType": "contract IERC20",
          "name": "stakedToken",
          "type": "address"
        },
        {
          "internalType": "contract IERC20",
          "name": "rewardToken",
          "type": "address"
        },
        {
          "internalType": "uint256",
          "name": "cooldownSeconds",
          "type": "uint256"
        },
        {
          "internalType": "uint256",
          "name": "unstakeWindow",
          "type": "uint256"
        },
        {
          "internalType": "address",
          "name": "rewardsVault",
          "type": "address"
        },
        {
          "internalType": "address",
          "name": "emissionManager",
          "type": "address"
        },
        {
          "internalType": "uint128",
          "name": "distributionDuration",
          "type": "uint128"
        },
        {
          "internalType": "string",
          "name": "name",
          "type": "string"
        },
        {
          "internalType": "string",
          "name": "symbol",
          "type": "string"
        },
        {
          "internalType": "uint8",
          "name": "decimals",
          "type": "uint8"
        },
        {
          "internalType": "address",
          "name": "governance",
          "type": "address"
        }
      ],
      "stateMutability": "nonpayable",
      "type": "constructor"
    },
    {
      "anonymous": false,
      "inputs": [
        {
          "indexed": true,
          "internalType": "address",
          "name": "owner",
          "type": "address"
        },
        {
          "indexed": true,
          "internalType": "address",
          "name": "spender",
          "type": "address"
        },
        {
          "indexed": false,
          "internalType": "uint256",
          "name": "value",
          "type": "uint256"
        }
      ],
      "name": "Approval",
      "type": "event"
    },
    {
      "anonymous": false,
      "inputs": [
        {
          "indexed": true,
          "internalType": "address",
          "name": "asset",
          "type": "address"
        },
        {
          "indexed": false,
          "internalType": "uint256",
          "name": "emission",
          "type": "uint256"
        }
      ],
      "name": "AssetConfigUpdated",
      "type": "event"
    },
    {
      "anonymous": false,
      "inputs": [
        {
          "indexed": true,
          "internalType": "address",
          "name": "asset",
          "type": "address"
        },
        {
          "indexed": false,
          "internalType": "uint256",
          "name": "index",
          "type": "uint256"
        }
      ],
      "name": "AssetIndexUpdated",
      "type": "event"
    },
    {
      "anonymous": false,
      "inputs": [
        {
          "indexed": true,
          "internalType": "address",
          "name": "user",
          "type": "address"
        }
      ],
      "name": "Cooldown",
      "type": "event"
    },
    {
      "anonymous": false,
      "inputs": [
        {
          "indexed": true,
          "internalType": "address",
          "name": "delegator",
          "type": "address"
        },
        {
          "indexed": true,
          "internalType": "address",
          "name": "delegatee",
          "type": "address"
        },
        {
          "indexed": false,
          "internalType": "enum IGovernancePowerDelegationToken.DelegationType",
          "name": "delegationType",
          "type": "uint8"
        }
      ],
      "name": "DelegateChanged",
      "type": "event"
    },
    {
      "anonymous": false,
      "inputs": [
        {
          "indexed": true,
          "internalType": "address",
          "name": "user",
          "type": "address"
        },
        {
          "indexed": false,
          "internalType": "uint256",
          "name": "amount",
          "type": "uint256"
        },
        {
          "indexed": false,
          "internalType": "enum IGovernancePowerDelegationToken.DelegationType",
          "name": "delegationType",
          "type": "uint8"
        }
      ],
      "name": "DelegatedPowerChanged",
      "type": "event"
    },
    {
      "anonymous": false,
      "inputs": [
        {
          "indexed": true,
          "internalType": "address",
          "name": "from",
          "type": "address"
        },
        {
          "indexed": true,
          "internalType": "address",
          "name": "to",
          "type": "address"
        },
        {
          "indexed": false,
          "internalType": "uint256",
          "name": "amount",
          "type": "uint256"
        }
      ],
      "name": "Redeem",
      "type": "event"
    },
    {
      "anonymous": false,
      "inputs": [
        {
          "indexed": false,
          "internalType": "address",
          "name": "user",
          "type": "address"
        },
        {
          "indexed": false,
          "internalType": "uint256",
          "name": "amount",
          "type": "uint256"
        }
      ],
      "name": "RewardsAccrued",
      "type": "event"
    },
    {
      "anonymous": false,
      "inputs": [
        {
          "indexed": true,
          "internalType": "address",
          "name": "from",
          "type": "address"
        },
        {
          "indexed": true,
          "internalType": "address",
          "name": "to",
          "type": "address"
        },
        {
          "indexed": false,
          "internalType": "uint256",
          "name": "amount",
          "type": "uint256"
        }
      ],
      "name": "RewardsClaimed",
      "type": "event"
    },
    {
      "anonymous": false,
      "inputs": [
        {
          "indexed": true,
          "internalType": "address",
          "name": "from",
          "type": "address"
        },
        {
          "indexed": true,
          "internalType": "address",
          "name": "onBehalfOf",
          "type": "address"
        },
        {
          "indexed": false,
          "internalType": "uint256",
          "name": "amount",
          "type": "uint256"
        }
      ],
      "name": "Staked",
      "type": "event"
    },
    {
      "anonymous": false,
      "inputs": [
        {
          "indexed": true,
          "internalType": "address",
          "name": "from",
          "type": "address"
        },
        {
          "indexed": true,
          "internalType": "address",
          "name": "to",
          "type": "address"
        },
        {
          "indexed": false,
          "internalType": "uint256",
          "name": "value",
          "type": "uint256"
        }
      ],
      "name": "Transfer",
      "type": "event"
    },
    {
      "anonymous": false,
      "inputs": [
        {
          "indexed": true,
          "internalType": "address",
          "name": "user",
          "type": "address"
        },
        {
          "indexed": true,
          "internalType": "address",
          "name": "asset",
          "type": "address"
        },
        {
          "indexed": false,
          "internalType": "uint256",
          "name": "index",
          "type": "uint256"
        }
      ],
      "name": "UserIndexUpdated",
      "type": "event"
    },
    {
      "inputs": [],
      "name": "COOLDOWN_SECONDS",
      "outputs": [
        {
          "internalType": "uint256",
          "name": "",
          "type": "uint256"
        }
      ],
      "stateMutability": "view",
      "type": "function"
    },
    {
      "inputs": [],
      "name": "DELEGATE_BY_TYPE_TYPEHASH",
      "outputs": [
        {
          "internalType": "bytes32",
          "name": "",
          "type": "bytes32"
        }
      ],
      "stateMutability": "view",
      "type": "function"
    },
    {
      "inputs": [],
      "name": "DELEGATE_TYPEHASH",
      "outputs": [
        {
          "internalType": "bytes32",
          "name": "",
          "type": "bytes32"
        }
      ],
      "stateMutability": "view",
      "type": "function"
    },
    {
      "inputs": [],
      "name": "DISTRIBUTION_END",
      "outputs": [
        {
          "internalType": "uint256",
          "name": "",
          "type": "uint256"
        }
      ],
      "stateMutability": "view",
      "type": "function"
    },
    {
      "inputs": [],
      "name": "DOMAIN_SEPARATOR",
      "outputs": [
        {
          "internalType": "bytes32",
          "name": "",
          "type": "bytes32"
        }
      ],
      "stateMutability": "view",
      "type": "function"
    },
    {
      "inputs": [],
      "name": "EIP712_REVISION",
      "outputs": [
        {
          "internalType": "bytes",
          "name": "",
          "type": "bytes"
        }
      ],
      "stateMutability": "view",
      "type": "function"
    },
    {
      "inputs": [],
      "name": "EMISSION_MANAGER",
      "outputs": [
        {
          "internalType": "address",
          "name": "",
          "type": "address"
        }
      ],
      "stateMutability": "view",
      "type": "function"
    },
    {
      "inputs": [],
      "name": "PERMIT_TYPEHASH",
      "outputs": [
        {
          "internalType": "bytes32",
          "name": "",
          "type": "bytes32"
        }
      ],
      "stateMutability": "view",
      "type": "function"
    },
    {
      "inputs": [],
      "name": "PRECISION",
      "outputs": [
        {
          "internalType": "uint8",
          "name": "",
          "type": "uint8"
        }
      ],
      "stateMutability": "view",
      "type": "function"
    },
    {
      "inputs": [],
      "name": "REVISION",
      "outputs": [
        {
          "internalType": "uint256",
          "name": "",
          "type": "uint256"
        }
      ],
      "stateMutability": "view",
      "type": "function"
    },
    {
      "inputs": [],
      "name": "REWARDS_VAULT",
      "outputs": [
        {
          "internalType": "address",
          "name": "",
          "type": "address"
        }
      ],
      "stateMutability": "view",
      "type": "function"
    },
    {
      "inputs": [],
      "name": "REWARD_TOKEN",
      "outputs": [
        {
          "internalType": "contract IERC20",
          "name": "",
          "type": "address"
        }
      ],
      "stateMutability": "view",
      "type": "function"
    },
    {
      "inputs": [],
      "name": "STAKED_TOKEN",
      "outputs": [
        {
          "internalType": "contract IERC20",
          "name": "",
          "type": "address"
        }
      ],
      "stateMutability": "view",
      "type": "function"
    },
    {
      "inputs": [],
      "name": "UNSTAKE_WINDOW",
      "outputs": [
        {
          "internalType": "uint256",
          "name": "",
          "type": "uint256"
        }
      ],
      "stateMutability": "view",
      "type": "function"
    },
    {
      "inputs": [],
      "name": "_governance",
      "outputs": [
        {
          "internalType": "contract ITransferHook",
          "name": "",
          "type": "address"
        }
      ],
      "stateMutability": "view",
      "type": "function"
    },
    {
      "inputs": [
        {
          "internalType": "address",
          "name": "",
          "type": "address"
        }
      ],
      "name": "_nonces",
      "outputs": [
        {
          "internalType": "uint256",
          "name": "",
          "type": "uint256"
        }
      ],
      "stateMutability": "view",
      "type": "function"
    },
    {
      "inputs": [
        {
          "internalType": "address",
          "name": "",
          "type": "address"
        },
        {
          "internalType": "uint256",
          "name": "",
          "type": "uint256"
        }
      ],
      "name": "_votingSnapshots",
      "outputs": [
        {
          "internalType": "uint128",
          "name": "blockNumber",
          "type": "uint128"
        },
        {
          "internalType": "uint128",
          "name": "value",
          "type": "uint128"
        }
      ],
      "stateMutability": "view",
      "type": "function"
    },
    {
      "inputs": [
        {
          "internalType": "address",
          "name": "",
          "type": "address"
        }
      ],
      "name": "_votingSnapshotsCounts",
      "outputs": [
        {
          "internalType": "uint256",
          "name": "",
          "type": "uint256"
        }
      ],
      "stateMutability": "view",
      "type": "function"
    },
    {
      "inputs": [
        {
          "internalType": "address",
          "name": "owner",
          "type": "address"
        },
        {
          "internalType": "address",
          "name": "spender",
          "type": "address"
        }
      ],
      "name": "allowance",
      "outputs": [
        {
          "internalType": "uint256",
          "name": "",
          "type": "uint256"
        }
      ],
      "stateMutability": "view",
      "type": "function"
    },
    {
      "inputs": [
        {
          "internalType": "address",
          "name": "spender",
          "type": "address"
        },
        {
          "internalType": "uint256",
          "name": "amount",
          "type": "uint256"
        }
      ],
      "name": "approve",
      "outputs": [
        {
          "internalType": "bool",
          "name": "",
          "type": "bool"
        }
      ],
      "stateMutability": "nonpayable",
      "type": "function"
    },
    {
      "inputs": [
        {
          "internalType": "address",
          "name": "",
          "type": "address"
        }
      ],
      "name": "assets",
      "outputs": [
        {
          "internalType": "uint128",
          "name": "emissionPerSecond",
          "type": "uint128"
        },
        {
          "internalType": "uint128",
          "name": "lastUpdateTimestamp",
          "type": "uint128"
        },
        {
          "internalType": "uint256",
          "name": "index",
          "type": "uint256"
        }
      ],
      "stateMutability": "view",
      "type": "function"
    },
    {
      "inputs": [
        {
          "internalType": "address",
          "name": "account",
          "type": "address"
        }
      ],
      "name": "balanceOf",
      "outputs": [
        {
          "internalType": "uint256",
          "name": "",
          "type": "uint256"
        }
      ],
      "stateMutability": "view",
      "type": "function"
    },
    {
      "inputs": [
        {
          "internalType": "address",
          "name": "to",
          "type": "address"
        },
        {
          "internalType": "uint256",
          "name": "amount",
          "type": "uint256"
        }
      ],
      "name": "claimRewards",
      "outputs": [],
      "stateMutability": "nonpayable",
      "type": "function"
    },
    {
      "inputs": [
        {
          "components": [
            {
              "internalType": "uint128",
              "name": "emissionPerSecond",
              "type": "uint128"
            },
            {
              "internalType": "uint256",
              "name": "totalStaked",
              "type": "uint256"
            },
            {
              "internalType": "address",
              "name": "underlyingAsset",
              "type": "address"
            }
          ],
          "internalType": "struct DistributionTypes.AssetConfigInput[]",
          "name": "assetsConfigInput",
          "type": "tuple[]"
        }
      ],
      "name": "configureAssets",
      "outputs": [],
      "stateMutability": "nonpayable",
      "type": "function"
    },
    {
      "inputs": [],
      "name": "cooldown",
      "outputs": [],
      "stateMutability": "nonpayable",
      "type": "function"
    },
    {
      "inputs": [],
      "name": "decimals",
      "outputs": [
        {
          "internalType": "uint8",
          "name": "",
          "type": "uint8"
        }
      ],
      "stateMutability": "view",
      "type": "function"
    },
    {
      "inputs": [
        {
          "internalType": "address",
          "name": "spender",
          "type": "address"
        },
        {
          "internalType": "uint256",
          "name": "subtractedValue",
          "type": "uint256"
        }
      ],
      "name": "decreaseAllowance",
      "outputs": [
        {
          "internalType": "bool",
          "name": "",
          "type": "bool"
        }
      ],
      "stateMutability": "nonpayable",
      "type": "function"
    },
    {
      "inputs": [
        {
          "internalType": "address",
          "name": "delegatee",
          "type": "address"
        }
      ],
      "name": "delegate",
      "outputs": [],
      "stateMutability": "nonpayable",
      "type": "function"
    },
    {
      "inputs": [
        {
          "internalType": "address",
          "name": "delegatee",
          "type": "address"
        },
        {
          "internalType": "uint256",
          "name": "nonce",
          "type": "uint256"
        },
        {
          "internalType": "uint256",
          "name": "expiry",
          "type": "uint256"
        },
        {
          "internalType": "uint8",
          "name": "v",
          "type": "uint8"
        },
        {
          "internalType": "bytes32",
          "name": "r",
          "type": "bytes32"
        },
        {
          "internalType": "bytes32",
          "name": "s",
          "type": "bytes32"
        }
      ],
      "name": "delegateBySig",
      "outputs": [],
      "stateMutability": "nonpayable",
      "type": "function"
    },
    {
      "inputs": [
        {
          "internalType": "address",
          "name": "delegatee",
          "type": "address"
        },
        {
          "internalType": "enum IGovernancePowerDelegationToken.DelegationType",
          "name": "delegationType",
          "type": "uint8"
        }
      ],
      "name": "delegateByType",
      "outputs": [],
      "stateMutability": "nonpayable",
      "type": "function"
    },
    {
      "inputs": [
        {
          "internalType": "address",
          "name": "delegatee",
          "type": "address"
        },
        {
          "internalType": "enum IGovernancePowerDelegationToken.DelegationType",
          "name": "delegationType",
          "type": "uint8"
        },
        {
          "internalType": "uint256",
          "name": "nonce",
          "type": "uint256"
        },
        {
          "internalType": "uint256",
          "name": "expiry",
          "type": "uint256"
        },
        {
          "internalType": "uint8",
          "name": "v",
          "type": "uint8"
        },
        {
          "internalType": "bytes32",
          "name": "r",
          "type": "bytes32"
        },
        {
          "internalType": "bytes32",
          "name": "s",
          "type": "bytes32"
        }
      ],
      "name": "delegateByTypeBySig",
      "outputs": [],
      "stateMutability": "nonpayable",
      "type": "function"
    },
    {
      "inputs": [
        {
          "internalType": "address",
          "name": "delegator",
          "type": "address"
        },
        {
          "internalType": "enum IGovernancePowerDelegationToken.DelegationType",
          "name": "delegationType",
          "type": "uint8"
        }
      ],
      "name": "getDelegateeByType",
      "outputs": [
        {
          "internalType": "address",
          "name": "",
          "type": "address"
        }
      ],
      "stateMutability": "view",
      "type": "function"
    },
    {
      "inputs": [
        {
          "internalType": "uint256",
          "name": "fromCooldownTimestamp",
          "type": "uint256"
        },
        {
          "internalType": "uint256",
          "name": "amountToReceive",
          "type": "uint256"
        },
        {
          "internalType": "address",
          "name": "toAddress",
          "type": "address"
        },
        {
          "internalType": "uint256",
          "name": "toBalance",
          "type": "uint256"
        }
      ],
      "name": "getNextCooldownTimestamp",
      "outputs": [
        {
          "internalType": "uint256",
          "name": "",
          "type": "uint256"
        }
      ],
      "stateMutability": "view",
      "type": "function"
    },
    {
      "inputs": [
        {
          "internalType": "address",
          "name": "user",
          "type": "address"
        },
        {
          "internalType": "uint256",
          "name": "blockNumber",
          "type": "uint256"
        },
        {
          "internalType": "enum IGovernancePowerDelegationToken.DelegationType",
          "name": "delegationType",
          "type": "uint8"
        }
      ],
      "name": "getPowerAtBlock",
      "outputs": [
        {
          "internalType": "uint256",
          "name": "",
          "type": "uint256"
        }
      ],
      "stateMutability": "view",
      "type": "function"
    },
    {
      "inputs": [
        {
          "internalType": "address",
          "name": "user",
          "type": "address"
        },
        {
          "internalType": "enum IGovernancePowerDelegationToken.DelegationType",
          "name": "delegationType",
          "type": "uint8"
        }
      ],
      "name": "getPowerCurrent",
      "outputs": [
        {
          "internalType": "uint256",
          "name": "",
          "type": "uint256"
        }
      ],
      "stateMutability": "view",
      "type": "function"
    },
    {
      "inputs": [
        {
          "internalType": "address",
          "name": "staker",
          "type": "address"
        }
      ],
      "name": "getTotalRewardsBalance",
      "outputs": [
        {
          "internalType": "uint256",
          "name": "",
          "type": "uint256"
        }
      ],
      "stateMutability": "view",
      "type": "function"
    },
    {
      "inputs": [
        {
          "internalType": "address",
          "name": "user",
          "type": "address"
        },
        {
          "internalType": "address",
          "name": "asset",
          "type": "address"
        }
      ],
      "name": "getUserAssetData",
      "outputs": [
        {
          "internalType": "uint256",
          "name": "",
          "type": "uint256"
        }
      ],
      "stateMutability": "view",
      "type": "function"
    },
    {
      "inputs": [
        {
          "internalType": "address",
          "name": "spender",
          "type": "address"
        },
        {
          "internalType": "uint256",
          "name": "addedValue",
          "type": "uint256"
        }
      ],
      "name": "increaseAllowance",
      "outputs": [
        {
          "internalType": "bool",
          "name": "",
          "type": "bool"
        }
      ],
      "stateMutability": "nonpayable",
      "type": "function"
    },
    {
      "inputs": [
        {
          "internalType": "string",
          "name": "name",
          "type": "string"
        },
        {
          "internalType": "string",
          "name": "symbol",
          "type": "string"
        },
        {
          "internalType": "uint8",
          "name": "decimals",
          "type": "uint8"
        }
      ],
      "name": "initialize",
      "outputs": [],
      "stateMutability": "nonpayable",
      "type": "function"
    },
    {
      "inputs": [],
      "name": "name",
      "outputs": [
        {
          "internalType": "string",
          "name": "",
          "type": "string"
        }
      ],
      "stateMutability": "view",
      "type": "function"
    },
    {
      "inputs": [
        {
          "internalType": "address",
          "name": "owner",
          "type": "address"
        },
        {
          "internalType": "address",
          "name": "spender",
          "type": "address"
        },
        {
          "internalType": "uint256",
          "name": "value",
          "type": "uint256"
        },
        {
          "internalType": "uint256",
          "name": "deadline",
          "type": "uint256"
        },
        {
          "internalType": "uint8",
          "name": "v",
          "type": "uint8"
        },
        {
          "internalType": "bytes32",
          "name": "r",
          "type": "bytes32"
        },
        {
          "internalType": "bytes32",
          "name": "s",
          "type": "bytes32"
        }
      ],
      "name": "permit",
      "outputs": [],
      "stateMutability": "nonpayable",
      "type": "function"
    },
    {
      "inputs": [
        {
          "internalType": "address",
          "name": "to",
          "type": "address"
        },
        {
          "internalType": "uint256",
          "name": "amount",
          "type": "uint256"
        }
      ],
      "name": "redeem",
      "outputs": [],
      "stateMutability": "nonpayable",
      "type": "function"
    },
    {
      "inputs": [
        {
          "internalType": "address",
          "name": "onBehalfOf",
          "type": "address"
        },
        {
          "internalType": "uint256",
          "name": "amount",
          "type": "uint256"
        }
      ],
      "name": "stake",
      "outputs": [],
      "stateMutability": "nonpayable",
      "type": "function"
    },
    {
      "inputs": [
        {
          "internalType": "address",
          "name": "",
          "type": "address"
        }
      ],
      "name": "stakerRewardsToClaim",
      "outputs": [
        {
          "internalType": "uint256",
          "name": "",
          "type": "uint256"
        }
      ],
      "stateMutability": "view",
      "type": "function"
    },
    {
      "inputs": [
        {
          "internalType": "address",
          "name": "",
          "type": "address"
        }
      ],
      "name": "stakersCooldowns",
      "outputs": [
        {
          "internalType": "uint256",
          "name": "",
          "type": "uint256"
        }
      ],
      "stateMutability": "view",
      "type": "function"
    },
    {
      "inputs": [],
      "name": "symbol",
      "outputs": [
        {
          "internalType": "string",
          "name": "",
          "type": "string"
        }
      ],
      "stateMutability": "view",
      "type": "function"
    },
    {
      "inputs": [],
      "name": "totalSupply",
      "outputs": [
        {
          "internalType": "uint256",
          "name": "",
          "type": "uint256"
        }
      ],
      "stateMutability": "view",
      "type": "function"
    },
    {
      "inputs": [
        {
          "internalType": "uint256",
          "name": "blockNumber",
          "type": "uint256"
        }
      ],
      "name": "totalSupplyAt",
      "outputs": [
        {
          "internalType": "uint256",
          "name": "",
          "type": "uint256"
        }
      ],
      "stateMutability": "view",
      "type": "function"
    },
    {
      "inputs": [
        {
          "internalType": "address",
          "name": "recipient",
          "type": "address"
        },
        {
          "internalType": "uint256",
          "name": "amount",
          "type": "uint256"
        }
      ],
      "name": "transfer",
      "outputs": [
        {
          "internalType": "bool",
          "name": "",
          "type": "bool"
        }
      ],
      "stateMutability": "nonpayable",
      "type": "function"
    },
    {
      "inputs": [
        {
          "internalType": "address",
          "name": "sender",
          "type": "address"
        },
        {
          "internalType": "address",
          "name": "recipient",
          "type": "address"
        },
        {
          "internalType": "uint256",
          "name": "amount",
          "type": "uint256"
        }
      ],
      "name": "transferFrom",
      "outputs": [
        {
          "internalType": "bool",
          "name": "",
          "type": "bool"
        }
      ],
      "stateMutability": "nonpayable",
      "type": "function"
    }
  ],
  "bytecode": "0x61016060405260006009553480156200001757600080fd5b5060405162003eb338038062003eb38339810160408190526200003a916200032d565b85856001600160801b0316858581600390805190602001906200005f92919062000197565b5080516200007590600490602084019062000197565b505060058054601260ff19909116179055506200009f42826200011f602090811b6200199e17901c565b60805250606090811b6001600160601b031990811660a0528c821b811660c0528b821b811660e0526101008b90526101208a90529088901b1661014052600880546001600160a01b0319166001600160a01b0383161790556200010e8262000181602090811b620019f817901c565b505050505050505050505062000434565b6000828201838110156200017a576040805162461bcd60e51b815260206004820152601b60248201527f536166654d6174683a206164646974696f6e206f766572666c6f770000000000604482015290519081900360640190fd5b9392505050565b6005805460ff191660ff92909216919091179055565b828054600181600116156101000203166002900490600052602060002090601f016020900481019282620001cf57600085556200021a565b82601f10620001ea57805160ff19168380011785556200021a565b828001600101855582156200021a579182015b828111156200021a578251825591602001919060010190620001fd565b50620002289291506200022c565b5090565b5b808211156200022857600081556001016200022d565b80516001600160a01b03811681146200025b57600080fd5b919050565b600082601f83011262000271578081fd5b81516001600160401b03808211156200028657fe5b6040516020601f8401601f1916820181018381118382101715620002a657fe5b80604052508194508382528681858801011115620002c357600080fd5b600092505b83831015620002e75785830181015182840182015291820191620002c8565b83831115620002f95760008185840101525b5050505092915050565b80516001600160801b03811681146200025b57600080fd5b805160ff811681146200025b57600080fd5b60008060008060008060008060008060006101608c8e0312156200034f578687fd5b6200035a8c62000243565b9a506200036a60208d0162000243565b995060408c0151985060608c015197506200038860808d0162000243565b96506200039860a08d0162000243565b9550620003a860c08d0162000303565b60e08d01519095506001600160401b03811115620003c4578485fd5b620003d28e828f0162000260565b6101008e015190955090506001600160401b03811115620003f1578384fd5b620003ff8e828f0162000260565b935050620004116101208d016200031b565b9150620004226101408d0162000243565b90509295989b509295989b9093969950565b60805160a05160601c60c05160601c60e05160601c61010051610120516101405160601c6139de620004d560003980610da35280610efb52508061088b5280610ae3528061175b52508061084752806108b35280610c0c5280611780525080610e325280610ed152508061095f5280610a8652806111115250806111875280611510525080610d7f5280612ce45280612d205280612d4d52506139de6000f3fe608060405234801561001057600080fd5b50600436106102d65760003560e01c80638dbefee211610182578063b2a5dbfa116100e9578063d505accf116100a2578063dde43cba1161007c578063dde43cba146105ce578063f11b8188146105d6578063f1cc432a146105f8578063f713d8a81461060b576102d6565b8063d505accf14610595578063dc937e1c146105a8578063dd62ed3e146105bb576102d6565b8063b2a5dbfa1461052e578063b2f4201d14610541578063b9844d8d14610554578063c2ffbb9114610567578063c3cda5201461057a578063cbcbb5071461058d576102d6565b80639a99b4f01161013b5780639a99b4f0146104d2578063a457c2d7146104e5578063a9059cbb146104f8578063aa9fbe021461050b578063aaf5eb6814610513578063adc9772e1461051b576102d6565b80638dbefee21461048c578063919cd40f1461049f578063946776cd146104a757806395d89b41146104af578063981b24d0146104b757806399248ea7146104ca576102d6565b8063359c4a96116102415780636f50458d116101fa57806378160376116101d45780637816037614610456578063787a08a61461045e5780637bb73c97146104665780637e90d7ef14610479576102d6565b80636f50458d1461042857806370a082311461043b57806372b49d631461044e576102d6565b8063359c4a96146103c95780633644e515146103d157806339509351146103d957806341cbf54a146103ec5780635b3cc0cf146103f45780635c19a95c14610415576102d6565b80631e9a6950116102935780631e9a69501461036b57806323b872dd1461037e57806330adf81f14610391578063312f6b8314610399578063313ce567146103a15780633373ee4c146103b6576102d6565b806306fdde03146102db578063091030c3146102f9578063095ea7b3146103195780631624f6c61461033957806318160ddd1461034e5780631c2f3e3d14610356575b600080fd5b6102e361061e565b6040516102f091906135da565b60405180910390f35b61030c6103073660046130d3565b6106b4565b6040516102f09190613503565b61032c61032736600461321d565b6106c6565b6040516102f091906134f8565b61034c610347366004613348565b6106e4565b005b61030c6107f6565b61035e6107fc565b6040516102f091906134a7565b61034c61037936600461321d565b61080b565b61032c61038c36600461311f565b6109d8565b61030c610a60565b61035e610a84565b6103a9610aa8565b6040516102f091906137dd565b61030c6103c43660046130ed565b610ab1565b61030c610ae1565b61030c610b05565b61032c6103e736600461321d565b610b0b565b61030c610b59565b61040761040236600461321d565b610b7d565b6040516102f092919061379f565b61034c6104233660046130d3565b610bae565b61035e6104363660046131c3565b610bc9565b61030c6104493660046130d3565b610beb565b61030c610c0a565b6102e3610c2e565b61034c610c4b565b61030c6104743660046130d3565b610caa565b61030c6104873660046130d3565b610cbc565b61030c61049a3660046130d3565b610cce565b61030c610d7d565b61035e610da1565b6102e3610dc5565b61030c6104c53660046133ed565b610e26565b61035e610e30565b61034c6104e036600461321d565b610e54565b61032c6104f336600461321d565b610f72565b61032c61050636600461321d565b610fda565b61030c610fee565b6103a9611012565b61034c61052936600461321d565b611017565b61034c61053c3660046132d8565b61117c565b61030c61054f3660046131c3565b61132f565b61030c6105623660046130d3565b611357565b61030c610575366004613246565b611369565b61034c610588366004613281565b611392565b61035e61150e565b61034c6105a336600461315a565b611532565b61034c6105b63660046131c3565b6116bf565b61030c6105c93660046130ed565b6116ce565b61030c6116f9565b6105e96105e43660046130d3565b6116fe565b6040516102f0939291906137b9565b61030c610606366004613405565b61172c565b61034c6106193660046131ec565b611821565b60038054604080516020601f60026000196101006001881615020190951694909404938401819004810282018101909252828152606093909290918301828280156106aa5780601f1061067f576101008083540402835291602001916106aa565b820191906000526020600020905b81548152906001019060200180831161068d57829003601f168201915b5050505050905090565b603e6020526000908152604090205481565b60006106da6106d3611a0e565b8484611a12565b5060015b92915050565b60006106ee611afe565b905060095481116107305760405162461bcd60e51b815260040180806020018281038252602e8152602001806138c2602e913960400191505060405180910390fd5b6009819055467f8b73c3c69bb8fe3d512ecc4cf759cc79239f7b179b0ffacaa9a75d522b39400f61075f61061e565b805160209182012060408051808201825260018152603160f81b90840152516107af93927fc89efdaa54c0f20c7adf612882df0950f5a951637e0307cdcb4c672f298b8bc6918691309101613590565b60408051601f1981840301815291905280516020909101206043556107d660038888612f73565b506107e360048686612f73565b506107ed836119f8565b50505050505050565b60025490565b6008546001600160a01b031681565b806108315760405162461bcd60e51b8152600401610828906135ed565b60405180910390fd5b336000908152603e602052604090205461086b817f000000000000000000000000000000000000000000000000000000000000000061199e565b42116108895760405162461bcd60e51b815260040161082890613645565b7f00000000000000000000000000000000000000000000000000000000000000006108de6108d7837f000000000000000000000000000000000000000000000000000000000000000061199e565b4290611b03565b11156108fc5760405162461bcd60e51b81526004016108289061371d565b600061090733610beb565b90506000818411610918578361091a565b815b905061092833836001611b45565b506109333382611be9565b61093d8282611b03565b61095257336000908152603e60205260408120555b6109866001600160a01b037f0000000000000000000000000000000000000000000000000000000000000000168683611ce5565b846001600160a01b0316336001600160a01b03167fd12200efa34901b99367694174c3b0d32c99585fdf37c7c26892136ddd0836d9836040516109c99190613503565b60405180910390a35050505050565b60006109e5848484611d37565b610a55846109f1611a0e565b610a508560405180606001604052806028815260200161389a602891396001600160a01b038a16600090815260016020526040812090610a2f611a0e565b6001600160a01b031681526020810191909152604001600020549190611e03565b611a12565b5060015b9392505050565b7f6e71edae12b1b97f4d1f60370fef10105fa2faae0126114a169c64845d6126c981565b7f000000000000000000000000000000000000000000000000000000000000000081565b60055460ff1690565b6001600160a01b038082166000908152603c60209081526040808320938616835260029093019052205492915050565b7f000000000000000000000000000000000000000000000000000000000000000081565b60435481565b60006106da610b18611a0e565b84610a508560016000610b29611a0e565b6001600160a01b03908116825260208083019390935260409182016000908120918c16815292529020549061199e565b7f9a9a49b990ba9bb39f8048c490a40ab25c18f55d208d5fbcf958261a9b48716d81565b60066020908152600092835260408084209091529082529020546001600160801b0380821691600160801b90041682565b610bba33826000611e9a565b610bc633826001611e9a565b50565b600080610bd583611fab565b92505050610be38482611fe5565b949350505050565b6001600160a01b0381166000908152602081905260409020545b919050565b7f000000000000000000000000000000000000000000000000000000000000000081565b604051806040016040528060018152602001603160f81b81525081565b610c5433610beb565b610c705760405162461bcd60e51b815260040161082890613754565b336000818152603e6020526040808220429055517ff52f50426b32362d3e6bb8cb36b7074756b224622def6352a59eac7f66ebe6e89190a2565b60076020526000908152604090205481565b603d6020526000908152604090205481565b60408051600180825281830190925260009160609190816020015b610cf1612fff565b815260200190600190039081610ce95790505090506040518060600160405280306001600160a01b03168152602001610d2985610beb565b8152602001610d366107f6565b81525081600081518110610d4657fe5b6020026020010181905250610a59610d5e8483612010565b6001600160a01b0385166000908152603d60205260409020549061199e565b7f000000000000000000000000000000000000000000000000000000000000000081565b7f000000000000000000000000000000000000000000000000000000000000000081565b60048054604080516020601f60026000196101006001881615020190951694909404938401819004810282018101909252828152606093909290918301828280156106aa5780601f1061067f576101008083540402835291602001916106aa565b60006106de6107f6565b7f000000000000000000000000000000000000000000000000000000000000000081565b6000610e6a33610e6333610beb565b6000611b45565b905060006000198314610e7d5782610e7f565b815b9050610ebc816040518060400160405280600e81526020016d1253959053125117d05353d5539560921b81525084611e039092919063ffffffff16565b336000908152603d6020526040902055610f217f00000000000000000000000000000000000000000000000000000000000000006001600160a01b03167f00000000000000000000000000000000000000000000000000000000000000008684612101565b836001600160a01b0316336001600160a01b03167f9310ccfcb8de723f578a9e4282ea9f521f05ae40dc08f3068dfad528a65ee3c783604051610f649190613503565b60405180910390a350505050565b60006106da610f7f611a0e565b84610a50856040518060600160405280602581526020016139846025913960016000610fa9611a0e565b6001600160a01b03908116825260208083019390935260409182016000908120918d16815292529020549190611e03565b60006106da610fe7611a0e565b8484611d37565b7f10d8d059343739efce7dad10d09f0806da52b252b3e6a7951920d2d6ec4102e581565b601281565b806110345760405162461bcd60e51b8152600401610828906135ed565b600061103f83610beb565b905060006110568430846110516107f6565b61215b565b905080156110d4577f2468f9268c60ad90e2d49edb0032c8a001e733ae888b3ab8e982edf535be1a76848260405161108f9291906134df565b60405180910390a16001600160a01b0384166000908152603d60205260409020546110ba908261199e565b6001600160a01b0385166000908152603d60205260409020555b6110e1600084868561172c565b6001600160a01b0385166000908152603e6020526040902055611104848461221a565b6111396001600160a01b037f000000000000000000000000000000000000000000000000000000000000000016333086612101565b836001600160a01b0316336001600160a01b03167f5dac0c1b1112564a045ba943c9d50270893e8e826c49be8e7073adc713ab7bd785604051610f649190613503565b336001600160a01b037f000000000000000000000000000000000000000000000000000000000000000016146111c45760405162461bcd60e51b8152600401610828906136c7565b60005b8181101561132a576000603c60008585858181106111e157fe5b90506060020160400160208101906111f991906130d3565b6001600160a01b03166001600160a01b03168152602001908152602001600020905061125e84848481811061122a57fe5b905060600201604001602081019061124291906130d3565b8286868681811061124f57fe5b9050606002016020013561230a565b5083838381811061126b57fe5b61128192602060609092020190810191506133c6565b81546001600160801b0319166001600160801b03919091161781558383838181106112a857fe5b90506060020160400160208101906112c091906130d3565b6001600160a01b03167f87fa03892a0556cb6b8f97e6d533a150d4d55fcbf275fff5fa003fa636bcc7fa8585858181106112f657fe5b61130c92602060609092020190810191506133c6565b604051611319919061378b565b60405180910390a2506001016111c7565b505050565b600080600061133d84611fab565b509150915061134e828287436123c7565b95945050505050565b60446020526000908152604090205481565b600080600061137784611fab565b5091509150611388828288886123c7565b9695505050505050565b60007f9a9a49b990ba9bb39f8048c490a40ab25c18f55d208d5fbcf958261a9b48716d8787876040516020016113cb9493929190613540565b6040516020818303038152906040528051906020012090506000604354826040516020016113fa92919061348c565b60405160208183030381529060405280519060200120905060006001828787876040516000815260200160405260405161143794939291906135bc565b6020604051602081039080840390855afa158015611459573d6000803e3d6000fd5b5050604051601f1901519150506001600160a01b03811661148c5760405162461bcd60e51b81526004016108289061361a565b6001600160a01b038116600090815260446020526040902080546001810190915588146114cb5760405162461bcd60e51b8152600401610828906136a0565b864211156114eb5760405162461bcd60e51b815260040161082890613674565b6114f7818a6000611e9a565b611503818a6001611e9a565b505050505050505050565b7f000000000000000000000000000000000000000000000000000000000000000081565b6001600160a01b0387166115585760405162461bcd60e51b8152600401610828906136f6565b834211156115785760405162461bcd60e51b815260040161082890613674565b6001600160a01b03871660009081526044602090815260408083205460435491519093926115d2917f6e71edae12b1b97f4d1f60370fef10105fa2faae0126114a169c64845d6126c9918d918d918d9189918e910161350c565b604051602081830303815290604052805190602001206040516020016115f992919061348c565b6040516020818303038152906040528051906020012090506001818686866040516000815260200160405260405161163494939291906135bc565b6020604051602081039080840390855afa158015611656573d6000803e3d6000fd5b505050602060405103516001600160a01b0316896001600160a01b0316146116905760405162461bcd60e51b81526004016108289061361a565b61169b82600161199e565b6001600160a01b038a16600090815260446020526040902055611503898989611a12565b6116ca338383611e9a565b5050565b6001600160a01b03918216600090815260016020908152604080832093909416825291909152205490565b600181565b603c60205260009081526040902080546001909101546001600160801b0380831692600160801b9004169083565b6001600160a01b0382166000908152603e602052604081205480611754576000915050610be3565b60006117aa7f00000000000000000000000000000000000000000000000000000000000000006117a4427f0000000000000000000000000000000000000000000000000000000000000000611b03565b90611b03565b9050818111156117bd5760009150611817565b60008782116117cc57876117ce565b425b9050828110156117e357829350505050610be3565b6118136117f0888761199e565b61180d6117fd88876125e3565b6118078b866125e3565b9061199e565b9061263c565b9250505b5095945050505050565b60007f10d8d059343739efce7dad10d09f0806da52b252b3e6a7951920d2d6ec4102e58888600181111561185157fe5b8888604051602001611867959493929190613564565b60405160208183030381529060405280519060200120905060006043548260405160200161189692919061348c565b6040516020818303038152906040528051906020012090506000600182878787604051600081526020016040526040516118d394939291906135bc565b6020604051602081039080840390855afa1580156118f5573d6000803e3d6000fd5b5050604051601f1901519150506001600160a01b0381166119285760405162461bcd60e51b81526004016108289061361a565b6001600160a01b038116600090815260446020526040902080546001810190915588146119675760405162461bcd60e51b8152600401610828906136a0565b864211156119875760405162461bcd60e51b815260040161082890613674565b611992818b8b611e9a565b50505050505050505050565b600082820183811015610a59576040805162461bcd60e51b815260206004820152601b60248201527f536166654d6174683a206164646974696f6e206f766572666c6f770000000000604482015290519081900360640190fd5b6005805460ff191660ff92909216919091179055565b3390565b6001600160a01b038316611a575760405162461bcd60e51b81526004018080602001828103825260248152602001806139366024913960400191505060405180910390fd5b6001600160a01b038216611a9c5760405162461bcd60e51b81526004018080602001828103825260228152602001806138316022913960400191505060405180910390fd5b6001600160a01b03808416600081815260016020908152604080832094871680845294825291829020859055815185815291517f8c5be1e5ebec7d5bd14f71427d1e84f3dd0314c0f7b2291e5b200ac8c7c3b9259281900390910190a3505050565b600190565b6000610a5983836040518060400160405280601e81526020017f536166654d6174683a207375627472616374696f6e206f766572666c6f770000815250611e03565b600080611b568530866110516107f6565b6001600160a01b0386166000908152603d602052604081205491925090611b7d908361199e565b9050811561134e578315611ba7576001600160a01b0386166000908152603d602052604090208190555b7f2468f9268c60ad90e2d49edb0032c8a001e733ae888b3ab8e982edf535be1a768683604051611bd89291906134df565b60405180910390a195945050505050565b6001600160a01b038216611c2e5760405162461bcd60e51b81526004018080602001828103825260218152602001806138f06021913960400191505060405180910390fd5b611c3a8260008361267e565b611c778160405180606001604052806022815260200161380f602291396001600160a01b0385166000908152602081905260409020549190611e03565b6001600160a01b038316600090815260208190526040902055600254611c9d9082611b03565b6002556040805182815290516000916001600160a01b038516917fddf252ad1be2c89b69c2b068fc378daa952ba7f163c4a11628f55a4df523b3ef9181900360200190a35050565b604080516001600160a01b038416602482015260448082018490528251808303909101815260649091019091526020810180516001600160e01b031663a9059cbb60e01b17905261132a90849061279b565b6000611d4284610beb565b9050611d5084826001611b45565b50826001600160a01b0316846001600160a01b031614611df2576000611d7584610beb565b9050611d8384826001611b45565b506001600160a01b0385166000908152603e6020526040902054611da98185878561172c565b6001600160a01b0386166000908152603e60205260409020558284148015611dd057508015155b15611def576001600160a01b0386166000908152603e60205260408120555b50505b611dfd848484612953565b50505050565b60008184841115611e925760405162461bcd60e51b81526004018080602001828103825283818151815260200191508051906020019080838360005b83811015611e57578181015183820152602001611e3f565b50505050905090810190601f168015611e845780820380516001836020036101000a031916815260200191505b509250505060405180910390fd5b505050900390565b6001600160a01b038216611ee9576040805162461bcd60e51b8152602060048201526011602482015270494e56414c49445f44454c45474154454560781b604482015290519081900360640190fd5b6000611ef482611fab565b925050506000611f0385610beb565b90506000611f118684611fe5565b6001600160a01b03878116600090815260208690526040902080546001600160a01b0319169188169190911790559050611f4d81868487612aae565b846001600160a01b0316866001600160a01b03167fe8d51c8e11bd570db1734c8ec775785330e77007feed45c43b608ef33ff914bd8660405180826001811115611f9357fe5b815260200191505060405180910390a3505050505050565b6000808080846001811115611fbc57fe5b1415611fd257506006915060079050603f611fde565b50604091506041905060425b9193909250565b6001600160a01b0380831660009081526020839052604081205490911680610a5957839150506106de565b600080805b83518110156120f9576000603c600086848151811061203057fe5b602090810291909101810151516001600160a01b031682528101919091526040016000908120600181015481548851929450612098926001600160801b0380831692600160801b900416908a908890811061208757fe5b602002602001015160400151612cbc565b90506120ed6120e68785815181106120ac57fe5b602002602001015160200151838560020160008c6001600160a01b03166001600160a01b0316815260200190815260200160002054612db5565b859061199e565b93505050600101612015565b509392505050565b604080516001600160a01b0380861660248301528416604482015260648082018490528251808303909101815260849091019091526020810180516001600160e01b03166323b872dd60e01b179052611dfd90859061279b565b6001600160a01b038084166000908152603c60209081526040808320938816835260028401909152812054909190828061219688858861230a565b905080831461220e5786156121b3576121b0878285612db5565b91505b6001600160a01b03808a1660008181526002870160205260409081902084905551918a16917fbb123b5c06d5408bbea3c4fef481578175cfb432e3b482c6186f02ed9086585b90612205908590613503565b60405180910390a35b50979650505050505050565b6001600160a01b038216612275576040805162461bcd60e51b815260206004820152601f60248201527f45524332303a206d696e7420746f20746865207a65726f206164647265737300604482015290519081900360640190fd5b6122816000838361267e565b60025461228e908261199e565b6002556001600160a01b0382166000908152602081905260409020546122b4908261199e565b6001600160a01b0383166000818152602081815260408083209490945583518581529351929391927fddf252ad1be2c89b69c2b068fc378daa952ba7f163c4a11628f55a4df523b3ef9281900390910190a35050565b6001820154825460009190600160801b90046001600160801b03164281141561233557509050610a59565b84546000906123509084906001600160801b03168488612cbc565b90508281146123a457808660010181905550866001600160a01b03167f5777ca300dfe5bead41006fbce4389794dbc0ed8d6cccebfaf94630aa04184bc8260405161239b9190613503565b60405180910390a25b85546001600160801b03428116600160801b029116178655925050509392505050565b600043821115612415576040805162461bcd60e51b815260206004820152601460248201527324a72b20a624a22fa12627a1a5afa72aa6a122a960611b604482015290519081900360640190fd5b6001600160a01b038316600090815260208590526040902054806124445761243c84610beb565b915050610be3565b6001600160a01b038416600090815260208781526040808320600019850184529091529020546001600160801b031683106124b7576001600160a01b038416600090815260208781526040808320600019909401835292905220546001600160801b03600160801b909104169050610be3565b6001600160a01b0384166000908152602087815260408083208380529091529020546001600160801b03168310156124f3576000915050610be3565b600060001982015b818111156125a5576002828203048103612513613029565b506001600160a01b038716600090815260208a815260408083208484528252918290208251808401909352546001600160801b03808216808552600160801b909204169183019190915287141561257d57602001516001600160801b03169450610be39350505050565b80516001600160801b03168711156125975781935061259e565b6001820392505b50506124fb565b506001600160a01b03851660009081526020888152604080832093835292905220546001600160801b03600160801b90910416915050949350505050565b6000826125f2575060006106de565b828202828482816125ff57fe5b0414610a595760405162461bcd60e51b81526004018080602001828103825260218152602001806138796021913960400191505060405180910390fd5b6000610a5983836040518060400160405280601a81526020017f536166654d6174683a206469766973696f6e206279207a65726f000000000000815250612dd7565b6001600160a01b038084166000908152603f60205260408082205485841683529120549082169116816126af578491505b6001600160a01b0381166126c05750825b6126cd8282856000612aae565b6001600160a01b038086166000908152604260205260408082205487841683529120549082169116816126fe578691505b6001600160a01b03811661270f5750845b61271c8282876001612aae565b6008546001600160a01b0316801561279157604051634a39314960e01b81526001600160a01b03821690634a3931499061275e908b908b908b906004016134bb565b600060405180830381600087803b15801561277857600080fd5b505af115801561278c573d6000803e3d6000fd5b505050505b5050505050505050565b6127ad826001600160a01b0316612e3c565b6127fe576040805162461bcd60e51b815260206004820152601f60248201527f5361666545524332303a2063616c6c20746f206e6f6e2d636f6e747261637400604482015290519081900360640190fd5b60006060836001600160a01b0316836040518082805190602001908083835b6020831061283c5780518252601f19909201916020918201910161281d565b6001836020036101000a0380198251168184511680821785525050505050509050019150506000604051808303816000865af19150503d806000811461289e576040519150601f19603f3d011682016040523d82523d6000602084013e6128a3565b606091505b5091509150816128fa576040805162461bcd60e51b815260206004820181905260248201527f5361666545524332303a206c6f772d6c6576656c2063616c6c206661696c6564604482015290519081900360640190fd5b805115611dfd5780806020019051602081101561291657600080fd5b5051611dfd5760405162461bcd60e51b815260040180806020018281038252602a81526020018061395a602a913960400191505060405180910390fd5b6001600160a01b0383166129985760405162461bcd60e51b81526004018080602001828103825260258152602001806139116025913960400191505060405180910390fd5b6001600160a01b0382166129dd5760405162461bcd60e51b81526004018080602001828103825260238152602001806137ec6023913960400191505060405180910390fd5b6129e883838361267e565b612a2581604051806060016040528060268152602001613853602691396001600160a01b0386166000908152602081905260409020549190611e03565b6001600160a01b038085166000908152602081905260408082209390935590841681522054612a54908261199e565b6001600160a01b038084166000818152602081815260409182902094909455805185815290519193928716927fddf252ad1be2c89b69c2b068fc378daa952ba7f163c4a11628f55a4df523b3ef92918290030190a3505050565b826001600160a01b0316846001600160a01b03161415612acd57611dfd565b600080612ad983611fab565b5090925090506001600160a01b03861615612bcc576001600160a01b0386166000908152602082905260408120548015612b4a576001600160a01b03881660009081526020858152604080832060001985018452909152902054600160801b90046001600160801b03169150612b56565b612b5388610beb565b91505b612b6c84848a85612b67818c611b03565b612e75565b6001600160a01b0388167fa0a19463ee116110c9b282012d9b65cc5522dc38a9520340cbaf3142e550127f612ba18489611b03565b8760405180838152602001826001811115612bb857fe5b81526020019250505060405180910390a250505b6001600160a01b03851615612cb4576001600160a01b0385166000908152602082905260408120548015612c37576001600160a01b03871660009081526020858152604080832060001985018452909152902054600160801b90046001600160801b03169150612c43565b612c4087610beb565b91505b612c5484848985612b67818c61199e565b6001600160a01b0387167fa0a19463ee116110c9b282012d9b65cc5522dc38a9520340cbaf3142e550127f612c89848961199e565b8760405180838152602001826001811115612ca057fe5b81526020019250505060405180910390a250505b505050505050565b6000831580612cc9575081155b80612cdc575042836001600160801b0316145b80612d1057507f0000000000000000000000000000000000000000000000000000000000000000836001600160801b031610155b15612d1c575083610be3565b60007f00000000000000000000000000000000000000000000000000000000000000004211612d4b5742612d6d565b7f00000000000000000000000000000000000000000000000000000000000000005b90506000612d84826001600160801b038716611b03565b9050612daa876118078661180d670de0b6b3a7640000612da48c886125e3565b906125e3565b979650505050505050565b6000610be3670de0b6b3a764000061180d612dd08686611b03565b87906125e3565b60008183612e265760405162461bcd60e51b8152602060048201818152835160248401528351909283926044909101919085019080838360008315611e57578181015183820152602001611e3f565b506000838581612e3257fe5b0495945050505050565b6000813f7fc5d2460186f7233c927e7db2dcc703c0e500b653ca82273b7bfad8045d85a470818114801590610be3575050151592915050565b6001600160a01b03831660009081526020858152604080832054918890529091204391908115801590612ec6575060001982016000908152602082905260409020546001600160801b038481169116145b15612efb576000198201600090815260208290526040902080546001600160801b03808716600160801b029116179055612791565b6040805180820182526001600160801b038086168252868116602080840191825260008781528682528581209451855493518516600160801b029085166001600160801b031990941693909317909316919091179092556001600160a01b038916815290899052206001830190555050505050505050565b828054600181600116156101000203166002900490600052602060002090601f016020900481019282612fa95760008555612fef565b82601f10612fc25782800160ff19823516178555612fef565b82800160010185558215612fef579182015b82811115612fef578235825591602001919060010190612fd4565b50612ffb929150613040565b5090565b604051806060016040528060006001600160a01b0316815260200160008152602001600081525090565b604080518082019091526000808252602082015290565b5b80821115612ffb5760008155600101613041565b80356001600160a01b0381168114610c0557600080fd5b803560028110610c0557600080fd5b60008083601f84011261308c578182fd5b50813567ffffffffffffffff8111156130a3578182fd5b6020830191508360208285010111156130bb57600080fd5b9250929050565b803560ff81168114610c0557600080fd5b6000602082840312156130e4578081fd5b610a5982613055565b600080604083850312156130ff578081fd5b61310883613055565b915061311660208401613055565b90509250929050565b600080600060608486031215613133578081fd5b61313c84613055565b925061314a60208501613055565b9150604084013590509250925092565b600080600080600080600060e0888a031215613174578283fd5b61317d88613055565b965061318b60208901613055565b955060408801359450606088013593506131a7608089016130c2565b925060a0880135915060c0880135905092959891949750929550565b600080604083850312156131d5578182fd5b6131de83613055565b91506131166020840161306c565b600080600080600080600060e0888a031215613206578283fd5b61320f88613055565b965061318b6020890161306c565b6000806040838503121561322f578182fd5b61323883613055565b946020939093013593505050565b60008060006060848603121561325a578283fd5b61326384613055565b9250602084013591506132786040850161306c565b90509250925092565b60008060008060008060c08789031215613299578182fd5b6132a287613055565b955060208701359450604087013593506132be606088016130c2565b92506080870135915060a087013590509295509295509295565b600080602083850312156132ea578081fd5b823567ffffffffffffffff80821115613301578283fd5b818501915085601f830112613314578283fd5b813581811115613322578384fd5b866020606083028501011115613336578384fd5b60209290920196919550909350505050565b60008060008060006060868803121561335f578283fd5b853567ffffffffffffffff80821115613376578485fd5b61338289838a0161307b565b9097509550602088013591508082111561339a578485fd5b506133a78882890161307b565b90945092506133ba9050604087016130c2565b90509295509295909350565b6000602082840312156133d7578081fd5b81356001600160801b0381168114610a59578182fd5b6000602082840312156133fe578081fd5b5035919050565b6000806000806080858703121561341a578182fd5b843593506020850135925061343160408601613055565b9396929550929360600135925050565b60008151808452815b818110156134665760208185018101518683018201520161344a565b818111156134775782602083870101525b50601f01601f19169290920160200192915050565b61190160f01b81526002810192909252602282015260420190565b6001600160a01b0391909116815260200190565b6001600160a01b039384168152919092166020820152604081019190915260600190565b6001600160a01b03929092168252602082015260400190565b901515815260200190565b90815260200190565b9586526001600160a01b0394851660208701529290931660408501526060840152608083019190915260a082015260c00190565b9384526001600160a01b039290921660208401526040830152606082015260800190565b9485526001600160a01b0393909316602085015260408401919091526060830152608082015260a00190565b9485526020850193909352604084019190915260608301526001600160a01b0316608082015260a00190565b93845260ff9290921660208401526040830152606082015260800190565b600060208252610a596020830184613441565b6020808252601390820152721253959053125117d6915493d7d05353d55395606a1b604082015260600190565b602080825260119082015270494e56414c49445f5349474e415455524560781b604082015260600190565b60208082526015908201527424a729aaa32324a1a4a2a72a2fa1a7a7a62227aba760591b604082015260600190565b60208082526012908201527124a72b20a624a22fa2ac2824a920aa24a7a760711b604082015260600190565b6020808252600d908201526c494e56414c49445f4e4f4e434560981b604082015260600190565b60208082526015908201527427a7262cafa2a6a4a9a9a4a7a72fa6a0a720a3a2a960591b604082015260600190565b6020808252600d908201526c24a72b20a624a22fa7aba722a960991b604082015260600190565b60208082526017908201527f554e5354414b455f57494e444f575f46494e4953484544000000000000000000604082015260600190565b6020808252601b908201527f494e56414c49445f42414c414e43455f4f4e5f434f4f4c444f574e0000000000604082015260600190565b6001600160801b0391909116815260200190565b6001600160801b0392831681529116602082015260400190565b6001600160801b039384168152919092166020820152604081019190915260600190565b60ff9190911681526020019056fe45524332303a207472616e7366657220746f20746865207a65726f206164647265737345524332303a206275726e20616d6f756e7420657863656564732062616c616e636545524332303a20617070726f766520746f20746865207a65726f206164647265737345524332303a207472616e7366657220616d6f756e7420657863656564732062616c616e6365536166654d6174683a206d756c7469706c69636174696f6e206f766572666c6f7745524332303a207472616e7366657220616d6f756e74206578636565647320616c6c6f77616e6365436f6e747261637420696e7374616e63652068617320616c7265616479206265656e20696e697469616c697a656445524332303a206275726e2066726f6d20746865207a65726f206164647265737345524332303a207472616e736665722066726f6d20746865207a65726f206164647265737345524332303a20617070726f76652066726f6d20746865207a65726f20616464726573735361666545524332303a204552433230206f7065726174696f6e20646964206e6f74207375636365656445524332303a2064656372656173656420616c6c6f77616e63652062656c6f77207a65726fa2646970667358221220ac4bb51498801002381be30a2364c23c73d3417cb0cbb97dd19afd108fa2e8be64736f6c63430007050033",
  "linkReferences": {},
  "deployedLinkReferences": {}
}