{
  "_format": "hh-sol-artifact-1",
  "contractName": "StakedTokenBptRev2",
  "sourceName": "contracts/proposals/extend-stktoken-distribution/StakedTokenBptV2Rev2.sol",
  "abi": [
    {
      "inputs": [
        {
          "internalType": "contract IERC20",
          "name": "stakedToken",
          "type": "address"
        },
        {
          "internalType": "contract IERC20",
          "name": "rewardToken",
          "type": "address"
        },
        {
          "internalType": "uint256",
          "name": "cooldownSeconds",
          "type": "uint256"
        },
        {
          "internalType": "uint256",
          "name": "unstakeWindow",
          "type": "uint256"
        },
        {
          "internalType": "address",
          "name": "rewardsVault",
          "type": "address"
        },
        {
          "internalType": "address",
          "name": "emissionManager",
          "type": "address"
        },
        {
          "internalType": "uint128",
          "name": "distributionDuration",
          "type": "uint128"
        },
        {
          "internalType": "string",
          "name": "name",
          "type": "string"
        },
        {
          "internalType": "string",
          "name": "symbol",
          "type": "string"
        },
        {
          "internalType": "uint8",
          "name": "decimals",
          "type": "uint8"
        },
        {
          "internalType": "address",
          "name": "governance",
          "type": "address"
        }
      ],
      "stateMutability": "nonpayable",
      "type": "constructor"
    },
    {
      "anonymous": false,
      "inputs": [
        {
          "indexed": true,
          "internalType": "address",
          "name": "owner",
          "type": "address"
        },
        {
          "indexed": true,
          "internalType": "address",
          "name": "spender",
          "type": "address"
        },
        {
          "indexed": false,
          "internalType": "uint256",
          "name": "value",
          "type": "uint256"
        }
      ],
      "name": "Approval",
      "type": "event"
    },
    {
      "anonymous": false,
      "inputs": [
        {
          "indexed": true,
          "internalType": "address",
          "name": "asset",
          "type": "address"
        },
        {
          "indexed": false,
          "internalType": "uint256",
          "name": "emission",
          "type": "uint256"
        }
      ],
      "name": "AssetConfigUpdated",
      "type": "event"
    },
    {
      "anonymous": false,
      "inputs": [
        {
          "indexed": true,
          "internalType": "address",
          "name": "asset",
          "type": "address"
        },
        {
          "indexed": false,
          "internalType": "uint256",
          "name": "index",
          "type": "uint256"
        }
      ],
      "name": "AssetIndexUpdated",
      "type": "event"
    },
    {
      "anonymous": false,
      "inputs": [
        {
          "indexed": true,
          "internalType": "address",
          "name": "user",
          "type": "address"
        }
      ],
      "name": "Cooldown",
      "type": "event"
    },
    {
      "anonymous": false,
      "inputs": [
        {
          "indexed": true,
          "internalType": "address",
          "name": "delegator",
          "type": "address"
        },
        {
          "indexed": true,
          "internalType": "address",
          "name": "delegatee",
          "type": "address"
        },
        {
          "indexed": false,
          "internalType": "enum IGovernancePowerDelegationToken.DelegationType",
          "name": "delegationType",
          "type": "uint8"
        }
      ],
      "name": "DelegateChanged",
      "type": "event"
    },
    {
      "anonymous": false,
      "inputs": [
        {
          "indexed": true,
          "internalType": "address",
          "name": "user",
          "type": "address"
        },
        {
          "indexed": false,
          "internalType": "uint256",
          "name": "amount",
          "type": "uint256"
        },
        {
          "indexed": false,
          "internalType": "enum IGovernancePowerDelegationToken.DelegationType",
          "name": "delegationType",
          "type": "uint8"
        }
      ],
      "name": "DelegatedPowerChanged",
      "type": "event"
    },
    {
      "anonymous": false,
      "inputs": [
        {
          "indexed": true,
          "internalType": "address",
          "name": "from",
          "type": "address"
        },
        {
          "indexed": true,
          "internalType": "address",
          "name": "to",
          "type": "address"
        },
        {
          "indexed": false,
          "internalType": "uint256",
          "name": "amount",
          "type": "uint256"
        }
      ],
      "name": "Redeem",
      "type": "event"
    },
    {
      "anonymous": false,
      "inputs": [
        {
          "indexed": false,
          "internalType": "address",
          "name": "user",
          "type": "address"
        },
        {
          "indexed": false,
          "internalType": "uint256",
          "name": "amount",
          "type": "uint256"
        }
      ],
      "name": "RewardsAccrued",
      "type": "event"
    },
    {
      "anonymous": false,
      "inputs": [
        {
          "indexed": true,
          "internalType": "address",
          "name": "from",
          "type": "address"
        },
        {
          "indexed": true,
          "internalType": "address",
          "name": "to",
          "type": "address"
        },
        {
          "indexed": false,
          "internalType": "uint256",
          "name": "amount",
          "type": "uint256"
        }
      ],
      "name": "RewardsClaimed",
      "type": "event"
    },
    {
      "anonymous": false,
      "inputs": [
        {
          "indexed": true,
          "internalType": "address",
          "name": "from",
          "type": "address"
        },
        {
          "indexed": true,
          "internalType": "address",
          "name": "onBehalfOf",
          "type": "address"
        },
        {
          "indexed": false,
          "internalType": "uint256",
          "name": "amount",
          "type": "uint256"
        }
      ],
      "name": "Staked",
      "type": "event"
    },
    {
      "anonymous": false,
      "inputs": [
        {
          "indexed": true,
          "internalType": "address",
          "name": "from",
          "type": "address"
        },
        {
          "indexed": true,
          "internalType": "address",
          "name": "to",
          "type": "address"
        },
        {
          "indexed": false,
          "internalType": "uint256",
          "name": "value",
          "type": "uint256"
        }
      ],
      "name": "Transfer",
      "type": "event"
    },
    {
      "anonymous": false,
      "inputs": [
        {
          "indexed": true,
          "internalType": "address",
          "name": "user",
          "type": "address"
        },
        {
          "indexed": true,
          "internalType": "address",
          "name": "asset",
          "type": "address"
        },
        {
          "indexed": false,
          "internalType": "uint256",
          "name": "index",
          "type": "uint256"
        }
      ],
      "name": "UserIndexUpdated",
      "type": "event"
    },
    {
      "inputs": [],
      "name": "COOLDOWN_SECONDS",
      "outputs": [
        {
          "internalType": "uint256",
          "name": "",
          "type": "uint256"
        }
      ],
      "stateMutability": "view",
      "type": "function"
    },
    {
      "inputs": [],
      "name": "DELEGATE_BY_TYPE_TYPEHASH",
      "outputs": [
        {
          "internalType": "bytes32",
          "name": "",
          "type": "bytes32"
        }
      ],
      "stateMutability": "view",
      "type": "function"
    },
    {
      "inputs": [],
      "name": "DELEGATE_TYPEHASH",
      "outputs": [
        {
          "internalType": "bytes32",
          "name": "",
          "type": "bytes32"
        }
      ],
      "stateMutability": "view",
      "type": "function"
    },
    {
      "inputs": [],
      "name": "DISTRIBUTION_END",
      "outputs": [
        {
          "internalType": "uint256",
          "name": "",
          "type": "uint256"
        }
      ],
      "stateMutability": "view",
      "type": "function"
    },
    {
      "inputs": [],
      "name": "DOMAIN_SEPARATOR",
      "outputs": [
        {
          "internalType": "bytes32",
          "name": "",
          "type": "bytes32"
        }
      ],
      "stateMutability": "view",
      "type": "function"
    },
    {
      "inputs": [],
      "name": "EIP712_REVISION",
      "outputs": [
        {
          "internalType": "bytes",
          "name": "",
          "type": "bytes"
        }
      ],
      "stateMutability": "view",
      "type": "function"
    },
    {
      "inputs": [],
      "name": "EMISSION_MANAGER",
      "outputs": [
        {
          "internalType": "address",
          "name": "",
          "type": "address"
        }
      ],
      "stateMutability": "view",
      "type": "function"
    },
    {
      "inputs": [],
      "name": "PERMIT_TYPEHASH",
      "outputs": [
        {
          "internalType": "bytes32",
          "name": "",
          "type": "bytes32"
        }
      ],
      "stateMutability": "view",
      "type": "function"
    },
    {
      "inputs": [],
      "name": "PRECISION",
      "outputs": [
        {
          "internalType": "uint8",
          "name": "",
          "type": "uint8"
        }
      ],
      "stateMutability": "view",
      "type": "function"
    },
    {
      "inputs": [],
      "name": "REVISION",
      "outputs": [
        {
          "internalType": "uint256",
          "name": "",
          "type": "uint256"
        }
      ],
      "stateMutability": "view",
      "type": "function"
    },
    {
      "inputs": [],
      "name": "REWARDS_VAULT",
      "outputs": [
        {
          "internalType": "address",
          "name": "",
          "type": "address"
        }
      ],
      "stateMutability": "view",
      "type": "function"
    },
    {
      "inputs": [],
      "name": "REWARD_TOKEN",
      "outputs": [
        {
          "internalType": "contract IERC20",
          "name": "",
          "type": "address"
        }
      ],
      "stateMutability": "view",
      "type": "function"
    },
    {
      "inputs": [],
      "name": "STAKED_TOKEN",
      "outputs": [
        {
          "internalType": "contract IERC20",
          "name": "",
          "type": "address"
        }
      ],
      "stateMutability": "view",
      "type": "function"
    },
    {
      "inputs": [],
      "name": "UNSTAKE_WINDOW",
      "outputs": [
        {
          "internalType": "uint256",
          "name": "",
          "type": "uint256"
        }
      ],
      "stateMutability": "view",
      "type": "function"
    },
    {
      "inputs": [],
      "name": "_governance",
      "outputs": [
        {
          "internalType": "contract ITransferHook",
          "name": "",
          "type": "address"
        }
      ],
      "stateMutability": "view",
      "type": "function"
    },
    {
      "inputs": [
        {
          "internalType": "address",
          "name": "",
          "type": "address"
        }
      ],
      "name": "_nonces",
      "outputs": [
        {
          "internalType": "uint256",
          "name": "",
          "type": "uint256"
        }
      ],
      "stateMutability": "view",
      "type": "function"
    },
    {
      "inputs": [
        {
          "internalType": "address",
          "name": "",
          "type": "address"
        },
        {
          "internalType": "uint256",
          "name": "",
          "type": "uint256"
        }
      ],
      "name": "_votingSnapshots",
      "outputs": [
        {
          "internalType": "uint128",
          "name": "blockNumber",
          "type": "uint128"
        },
        {
          "internalType": "uint128",
          "name": "value",
          "type": "uint128"
        }
      ],
      "stateMutability": "view",
      "type": "function"
    },
    {
      "inputs": [
        {
          "internalType": "address",
          "name": "",
          "type": "address"
        }
      ],
      "name": "_votingSnapshotsCounts",
      "outputs": [
        {
          "internalType": "uint256",
          "name": "",
          "type": "uint256"
        }
      ],
      "stateMutability": "view",
      "type": "function"
    },
    {
      "inputs": [
        {
          "internalType": "address",
          "name": "owner",
          "type": "address"
        },
        {
          "internalType": "address",
          "name": "spender",
          "type": "address"
        }
      ],
      "name": "allowance",
      "outputs": [
        {
          "internalType": "uint256",
          "name": "",
          "type": "uint256"
        }
      ],
      "stateMutability": "view",
      "type": "function"
    },
    {
      "inputs": [
        {
          "internalType": "address",
          "name": "spender",
          "type": "address"
        },
        {
          "internalType": "uint256",
          "name": "amount",
          "type": "uint256"
        }
      ],
      "name": "approve",
      "outputs": [
        {
          "internalType": "bool",
          "name": "",
          "type": "bool"
        }
      ],
      "stateMutability": "nonpayable",
      "type": "function"
    },
    {
      "inputs": [
        {
          "internalType": "address",
          "name": "",
          "type": "address"
        }
      ],
      "name": "assets",
      "outputs": [
        {
          "internalType": "uint128",
          "name": "emissionPerSecond",
          "type": "uint128"
        },
        {
          "internalType": "uint128",
          "name": "lastUpdateTimestamp",
          "type": "uint128"
        },
        {
          "internalType": "uint256",
          "name": "index",
          "type": "uint256"
        }
      ],
      "stateMutability": "view",
      "type": "function"
    },
    {
      "inputs": [
        {
          "internalType": "address",
          "name": "account",
          "type": "address"
        }
      ],
      "name": "balanceOf",
      "outputs": [
        {
          "internalType": "uint256",
          "name": "",
          "type": "uint256"
        }
      ],
      "stateMutability": "view",
      "type": "function"
    },
    {
      "inputs": [
        {
          "internalType": "address",
          "name": "to",
          "type": "address"
        },
        {
          "internalType": "uint256",
          "name": "amount",
          "type": "uint256"
        }
      ],
      "name": "claimRewards",
      "outputs": [],
      "stateMutability": "nonpayable",
      "type": "function"
    },
    {
      "inputs": [
        {
          "components": [
            {
              "internalType": "uint128",
              "name": "emissionPerSecond",
              "type": "uint128"
            },
            {
              "internalType": "uint256",
              "name": "totalStaked",
              "type": "uint256"
            },
            {
              "internalType": "address",
              "name": "underlyingAsset",
              "type": "address"
            }
          ],
          "internalType": "struct DistributionTypes.AssetConfigInput[]",
          "name": "assetsConfigInput",
          "type": "tuple[]"
        }
      ],
      "name": "configureAssets",
      "outputs": [],
      "stateMutability": "nonpayable",
      "type": "function"
    },
    {
      "inputs": [],
      "name": "cooldown",
      "outputs": [],
      "stateMutability": "nonpayable",
      "type": "function"
    },
    {
      "inputs": [],
      "name": "decimals",
      "outputs": [
        {
          "internalType": "uint8",
          "name": "",
          "type": "uint8"
        }
      ],
      "stateMutability": "view",
      "type": "function"
    },
    {
      "inputs": [
        {
          "internalType": "address",
          "name": "spender",
          "type": "address"
        },
        {
          "internalType": "uint256",
          "name": "subtractedValue",
          "type": "uint256"
        }
      ],
      "name": "decreaseAllowance",
      "outputs": [
        {
          "internalType": "bool",
          "name": "",
          "type": "bool"
        }
      ],
      "stateMutability": "nonpayable",
      "type": "function"
    },
    {
      "inputs": [
        {
          "internalType": "address",
          "name": "delegatee",
          "type": "address"
        }
      ],
      "name": "delegate",
      "outputs": [],
      "stateMutability": "nonpayable",
      "type": "function"
    },
    {
      "inputs": [
        {
          "internalType": "address",
          "name": "delegatee",
          "type": "address"
        },
        {
          "internalType": "uint256",
          "name": "nonce",
          "type": "uint256"
        },
        {
          "internalType": "uint256",
          "name": "expiry",
          "type": "uint256"
        },
        {
          "internalType": "uint8",
          "name": "v",
          "type": "uint8"
        },
        {
          "internalType": "bytes32",
          "name": "r",
          "type": "bytes32"
        },
        {
          "internalType": "bytes32",
          "name": "s",
          "type": "bytes32"
        }
      ],
      "name": "delegateBySig",
      "outputs": [],
      "stateMutability": "nonpayable",
      "type": "function"
    },
    {
      "inputs": [
        {
          "internalType": "address",
          "name": "delegatee",
          "type": "address"
        },
        {
          "internalType": "enum IGovernancePowerDelegationToken.DelegationType",
          "name": "delegationType",
          "type": "uint8"
        }
      ],
      "name": "delegateByType",
      "outputs": [],
      "stateMutability": "nonpayable",
      "type": "function"
    },
    {
      "inputs": [
        {
          "internalType": "address",
          "name": "delegatee",
          "type": "address"
        },
        {
          "internalType": "enum IGovernancePowerDelegationToken.DelegationType",
          "name": "delegationType",
          "type": "uint8"
        },
        {
          "internalType": "uint256",
          "name": "nonce",
          "type": "uint256"
        },
        {
          "internalType": "uint256",
          "name": "expiry",
          "type": "uint256"
        },
        {
          "internalType": "uint8",
          "name": "v",
          "type": "uint8"
        },
        {
          "internalType": "bytes32",
          "name": "r",
          "type": "bytes32"
        },
        {
          "internalType": "bytes32",
          "name": "s",
          "type": "bytes32"
        }
      ],
      "name": "delegateByTypeBySig",
      "outputs": [],
      "stateMutability": "nonpayable",
      "type": "function"
    },
    {
      "inputs": [
        {
          "internalType": "address",
          "name": "delegator",
          "type": "address"
        },
        {
          "internalType": "enum IGovernancePowerDelegationToken.DelegationType",
          "name": "delegationType",
          "type": "uint8"
        }
      ],
      "name": "getDelegateeByType",
      "outputs": [
        {
          "internalType": "address",
          "name": "",
          "type": "address"
        }
      ],
      "stateMutability": "view",
      "type": "function"
    },
    {
      "inputs": [
        {
          "internalType": "uint256",
          "name": "fromCooldownTimestamp",
          "type": "uint256"
        },
        {
          "internalType": "uint256",
          "name": "amountToReceive",
          "type": "uint256"
        },
        {
          "internalType": "address",
          "name": "toAddress",
          "type": "address"
        },
        {
          "internalType": "uint256",
          "name": "toBalance",
          "type": "uint256"
        }
      ],
      "name": "getNextCooldownTimestamp",
      "outputs": [
        {
          "internalType": "uint256",
          "name": "",
          "type": "uint256"
        }
      ],
      "stateMutability": "view",
      "type": "function"
    },
    {
      "inputs": [
        {
          "internalType": "address",
          "name": "user",
          "type": "address"
        },
        {
          "internalType": "uint256",
          "name": "blockNumber",
          "type": "uint256"
        },
        {
          "internalType": "enum IGovernancePowerDelegationToken.DelegationType",
          "name": "delegationType",
          "type": "uint8"
        }
      ],
      "name": "getPowerAtBlock",
      "outputs": [
        {
          "internalType": "uint256",
          "name": "",
          "type": "uint256"
        }
      ],
      "stateMutability": "view",
      "type": "function"
    },
    {
      "inputs": [
        {
          "internalType": "address",
          "name": "user",
          "type": "address"
        },
        {
          "internalType": "enum IGovernancePowerDelegationToken.DelegationType",
          "name": "delegationType",
          "type": "uint8"
        }
      ],
      "name": "getPowerCurrent",
      "outputs": [
        {
          "internalType": "uint256",
          "name": "",
          "type": "uint256"
        }
      ],
      "stateMutability": "view",
      "type": "function"
    },
    {
      "inputs": [
        {
          "internalType": "address",
          "name": "staker",
          "type": "address"
        }
      ],
      "name": "getTotalRewardsBalance",
      "outputs": [
        {
          "internalType": "uint256",
          "name": "",
          "type": "uint256"
        }
      ],
      "stateMutability": "view",
      "type": "function"
    },
    {
      "inputs": [
        {
          "internalType": "address",
          "name": "user",
          "type": "address"
        },
        {
          "internalType": "address",
          "name": "asset",
          "type": "address"
        }
      ],
      "name": "getUserAssetData",
      "outputs": [
        {
          "internalType": "uint256",
          "name": "",
          "type": "uint256"
        }
      ],
      "stateMutability": "view",
      "type": "function"
    },
    {
      "inputs": [
        {
          "internalType": "address",
          "name": "spender",
          "type": "address"
        },
        {
          "internalType": "uint256",
          "name": "addedValue",
          "type": "uint256"
        }
      ],
      "name": "increaseAllowance",
      "outputs": [
        {
          "internalType": "bool",
          "name": "",
          "type": "bool"
        }
      ],
      "stateMutability": "nonpayable",
      "type": "function"
    },
    {
      "inputs": [
        {
          "internalType": "string",
          "name": "name",
          "type": "string"
        },
        {
          "internalType": "string",
          "name": "symbol",
          "type": "string"
        },
        {
          "internalType": "uint8",
          "name": "decimals",
          "type": "uint8"
        }
      ],
      "name": "initialize",
      "outputs": [],
      "stateMutability": "nonpayable",
      "type": "function"
    },
    {
      "inputs": [],
      "name": "name",
      "outputs": [
        {
          "internalType": "string",
          "name": "",
          "type": "string"
        }
      ],
      "stateMutability": "view",
      "type": "function"
    },
    {
      "inputs": [
        {
          "internalType": "address",
          "name": "owner",
          "type": "address"
        },
        {
          "internalType": "address",
          "name": "spender",
          "type": "address"
        },
        {
          "internalType": "uint256",
          "name": "value",
          "type": "uint256"
        },
        {
          "internalType": "uint256",
          "name": "deadline",
          "type": "uint256"
        },
        {
          "internalType": "uint8",
          "name": "v",
          "type": "uint8"
        },
        {
          "internalType": "bytes32",
          "name": "r",
          "type": "bytes32"
        },
        {
          "internalType": "bytes32",
          "name": "s",
          "type": "bytes32"
        }
      ],
      "name": "permit",
      "outputs": [],
      "stateMutability": "nonpayable",
      "type": "function"
    },
    {
      "inputs": [
        {
          "internalType": "address",
          "name": "to",
          "type": "address"
        },
        {
          "internalType": "uint256",
          "name": "amount",
          "type": "uint256"
        }
      ],
      "name": "redeem",
      "outputs": [],
      "stateMutability": "nonpayable",
      "type": "function"
    },
    {
      "inputs": [
        {
          "internalType": "address",
          "name": "onBehalfOf",
          "type": "address"
        },
        {
          "internalType": "uint256",
          "name": "amount",
          "type": "uint256"
        }
      ],
      "name": "stake",
      "outputs": [],
      "stateMutability": "nonpayable",
      "type": "function"
    },
    {
      "inputs": [
        {
          "internalType": "address",
          "name": "",
          "type": "address"
        }
      ],
      "name": "stakerRewardsToClaim",
      "outputs": [
        {
          "internalType": "uint256",
          "name": "",
          "type": "uint256"
        }
      ],
      "stateMutability": "view",
      "type": "function"
    },
    {
      "inputs": [
        {
          "internalType": "address",
          "name": "",
          "type": "address"
        }
      ],
      "name": "stakersCooldowns",
      "outputs": [
        {
          "internalType": "uint256",
          "name": "",
          "type": "uint256"
        }
      ],
      "stateMutability": "view",
      "type": "function"
    },
    {
      "inputs": [],
      "name": "symbol",
      "outputs": [
        {
          "internalType": "string",
          "name": "",
          "type": "string"
        }
      ],
      "stateMutability": "view",
      "type": "function"
    },
    {
      "inputs": [],
      "name": "totalSupply",
      "outputs": [
        {
          "internalType": "uint256",
          "name": "",
          "type": "uint256"
        }
      ],
      "stateMutability": "view",
      "type": "function"
    },
    {
      "inputs": [
        {
          "internalType": "uint256",
          "name": "blockNumber",
          "type": "uint256"
        }
      ],
      "name": "totalSupplyAt",
      "outputs": [
        {
          "internalType": "uint256",
          "name": "",
          "type": "uint256"
        }
      ],
      "stateMutability": "view",
      "type": "function"
    },
    {
      "inputs": [
        {
          "internalType": "address",
          "name": "recipient",
          "type": "address"
        },
        {
          "internalType": "uint256",
          "name": "amount",
          "type": "uint256"
        }
      ],
      "name": "transfer",
      "outputs": [
        {
          "internalType": "bool",
          "name": "",
          "type": "bool"
        }
      ],
      "stateMutability": "nonpayable",
      "type": "function"
    },
    {
      "inputs": [
        {
          "internalType": "address",
          "name": "sender",
          "type": "address"
        },
        {
          "internalType": "address",
          "name": "recipient",
          "type": "address"
        },
        {
          "internalType": "uint256",
          "name": "amount",
          "type": "uint256"
        }
      ],
      "name": "transferFrom",
      "outputs": [
        {
          "internalType": "bool",
          "name": "",
          "type": "bool"
        }
      ],
      "stateMutability": "nonpayable",
      "type": "function"
    }
  ],
  "bytecode": "0x61016060405260006009553480156200001757600080fd5b5060405162003d7e38038062003d7e8339810160408190526200003a9162000303565b85856001600160801b0316858581600390805190602001906200005f9291906200016d565b508051620000759060049060208401906200016d565b505060058054601260ff19909116179055506200009f42826200011f602090811b6200195c17901c565b60805250606090811b6001600160601b031990811660a0528c821b811660c0528b821b811660e0526101008b90526101208a90529088901b1661014052600880546001600160a01b0319166001600160a01b0383161790556200010e8262000157602090811b6200198117901c565b505050505050505050505062000441565b600082820183811015620001505760405162461bcd60e51b815260040162000147906200040a565b60405180910390fd5b9392505050565b6005805460ff191660ff92909216919091179055565b828054600181600116156101000203166002900490600052602060002090601f016020900481019282620001a55760008555620001f0565b82601f10620001c057805160ff1916838001178555620001f0565b82800160010185558215620001f0579182015b82811115620001f0578251825591602001919060010190620001d3565b50620001fe92915062000202565b5090565b5b80821115620001fe576000815560010162000203565b80516001600160a01b03811681146200023157600080fd5b919050565b600082601f83011262000247578081fd5b81516001600160401b03808211156200025c57fe5b6040516020601f8401601f19168201810183811183821017156200027c57fe5b806040525081945083825286818588010111156200029957600080fd5b600092505b83831015620002bd57858301810151828401820152918201916200029e565b83831115620002cf5760008185840101525b5050505092915050565b80516001600160801b03811681146200023157600080fd5b805160ff811681146200023157600080fd5b60008060008060008060008060008060006101608c8e03121562000325578687fd5b620003308c62000219565b9a506200034060208d0162000219565b995060408c0151985060608c015197506200035e60808d0162000219565b96506200036e60a08d0162000219565b95506200037e60c08d01620002d9565b60e08d01519095506001600160401b038111156200039a578485fd5b620003a88e828f0162000236565b6101008e015190955090506001600160401b03811115620003c7578384fd5b620003d58e828f0162000236565b935050620003e76101208d01620002f1565b9150620003f86101408d0162000219565b90509295989b509295989b9093969950565b6020808252601b908201527f536166654d6174683a206164646974696f6e206f766572666c6f770000000000604082015260600190565b60805160a05160601c60c05160601c60e05160601c61010051610120516101405160601c61389c620004e260003980610d615280610eb95250806108495280610aa1528061171952508061080552806108715280610bca528061173e525080610df05280610e8f52508061091d5280610a4452806110cf52508061114552806114ce525080610d3d528061298552806129c152806129ee525061389c6000f3fe608060405234801561001057600080fd5b50600436106102d65760003560e01c80638dbefee211610182578063b2a5dbfa116100e9578063d505accf116100a2578063dde43cba1161007c578063dde43cba146105ce578063f11b8188146105d6578063f1cc432a146105f8578063f713d8a81461060b576102d6565b8063d505accf14610595578063dc937e1c146105a8578063dd62ed3e146105bb576102d6565b8063b2a5dbfa1461052e578063b2f4201d14610541578063b9844d8d14610554578063c2ffbb9114610567578063c3cda5201461057a578063cbcbb5071461058d576102d6565b80639a99b4f01161013b5780639a99b4f0146104d2578063a457c2d7146104e5578063a9059cbb146104f8578063aa9fbe021461050b578063aaf5eb6814610513578063adc9772e1461051b576102d6565b80638dbefee21461048c578063919cd40f1461049f578063946776cd146104a757806395d89b41146104af578063981b24d0146104b757806399248ea7146104ca576102d6565b8063359c4a96116102415780636f50458d116101fa57806378160376116101d45780637816037614610456578063787a08a61461045e5780637bb73c97146104665780637e90d7ef14610479576102d6565b80636f50458d1461042857806370a082311461043b57806372b49d631461044e576102d6565b8063359c4a96146103c95780633644e515146103d157806339509351146103d957806341cbf54a146103ec5780635b3cc0cf146103f45780635c19a95c14610415576102d6565b80631e9a6950116102935780631e9a69501461036b57806323b872dd1461037e57806330adf81f14610391578063312f6b8314610399578063313ce567146103a15780633373ee4c146103b6576102d6565b806306fdde03146102db578063091030c3146102f9578063095ea7b3146103195780631624f6c61461033957806318160ddd1461034e5780631c2f3e3d14610356575b600080fd5b6102e361061e565b6040516102f09190613217565b60405180910390f35b61030c610307366004612ce5565b6106b4565b6040516102f09190613140565b61032c610327366004612e2f565b6106c6565b6040516102f09190613135565b61034c610347366004612f7a565b6106e4565b005b61030c6107bd565b61035e6107c3565b6040516102f091906130e4565b61034c610379366004612e2f565b6107d2565b61032c61038c366004612d31565b610996565b61030c610a1e565b61035e610a42565b6103a9610a66565b6040516102f09190613797565b61030c6103c4366004612cff565b610a6f565b61030c610a9f565b61030c610ac3565b61032c6103e7366004612e2f565b610ac9565b61030c610b17565b610407610402366004612e2f565b610b3b565b6040516102f0929190613745565b61034c610423366004612ce5565b610b6c565b61035e610436366004612dd5565b610b87565b61030c610449366004612ce5565b610ba9565b61030c610bc8565b6102e3610bec565b61034c610c09565b61030c610474366004612ce5565b610c68565b61030c610487366004612ce5565b610c7a565b61030c61049a366004612ce5565b610c8c565b61030c610d3b565b61035e610d5f565b6102e3610d83565b61030c6104c536600461301f565b610de4565b61035e610dee565b61034c6104e0366004612e2f565b610e12565b61032c6104f3366004612e2f565b610f30565b61032c610506366004612e2f565b610f98565b61030c610fac565b6103a9610fd0565b61034c610529366004612e2f565b610fd5565b61034c61053c366004612eea565b61113a565b61030c61054f366004612dd5565b6112ed565b61030c610562366004612ce5565b611315565b61030c610575366004612e58565b611327565b61034c610588366004612e93565b611350565b61035e6114cc565b61034c6105a3366004612d6c565b6114f0565b61034c6105b6366004612dd5565b61167d565b61030c6105c9366004612cff565b61168c565b61030c6116b7565b6105e96105e4366004612ce5565b6116bc565b6040516102f09392919061375f565b61030c610606366004613037565b6116ea565b61034c610619366004612dfe565b6117df565b60038054604080516020601f60026000196101006001881615020190951694909404938401819004810282018101909252828152606093909290918301828280156106aa5780601f1061067f576101008083540402835291602001916106aa565b820191906000526020600020905b81548152906001019060200180831161068d57829003601f168201915b5050505050905090565b603e6020526000908152604090205481565b60006106da6106d3611997565b848461199b565b5060015b92915050565b60006106ee611a4f565b9050600954811161071a5760405162461bcd60e51b8152600401610711906133f1565b60405180910390fd5b6009819055467f8b73c3c69bb8fe3d512ecc4cf759cc79239f7b179b0ffacaa9a75d522b39400f61074961061e565b805160209182012060408051808201825260018152603160f81b908401525161079993927fc89efdaa54c0f20c7adf612882df0950f5a951637e0307cdcb4c672f298b8bc69186913091016131cd565b60408051601f19818403018152919052805160209091012060435550505050505050565b60025490565b6008546001600160a01b031681565b806107ef5760405162461bcd60e51b8152600401610711906132f4565b336000908152603e6020526040902054610829817f000000000000000000000000000000000000000000000000000000000000000061195c565b42116108475760405162461bcd60e51b815260040161071190613381565b7f000000000000000000000000000000000000000000000000000000000000000061089c610895837f000000000000000000000000000000000000000000000000000000000000000061195c565b4290611a54565b11156108ba5760405162461bcd60e51b81526004016107119061356e565b60006108c533610ba9565b905060008184116108d657836108d8565b815b90506108e633836001611a96565b506108f13382611b3a565b6108fb8282611a54565b61091057336000908152603e60205260408120555b6109446001600160a01b037f0000000000000000000000000000000000000000000000000000000000000000168683611c1c565b846001600160a01b0316336001600160a01b03167fd12200efa34901b99367694174c3b0d32c99585fdf37c7c26892136ddd0836d9836040516109879190613140565b60405180910390a35050505050565b60006109a3848484611c72565b610a13846109af611997565b610a0e8560405180606001604052806028815260200161381a602891396001600160a01b038a166000908152600160205260408120906109ed611997565b6001600160a01b031681526020810191909152604001600020549190611d3e565b61199b565b5060015b9392505050565b7f6e71edae12b1b97f4d1f60370fef10105fa2faae0126114a169c64845d6126c981565b7f000000000000000000000000000000000000000000000000000000000000000081565b60055460ff1690565b6001600160a01b038082166000908152603c60209081526040808320938616835260029093019052205492915050565b7f000000000000000000000000000000000000000000000000000000000000000081565b60435481565b60006106da610ad6611997565b84610a0e8560016000610ae7611997565b6001600160a01b03908116825260208083019390935260409182016000908120918c16815292529020549061195c565b7f9a9a49b990ba9bb39f8048c490a40ab25c18f55d208d5fbcf958261a9b48716d81565b60066020908152600092835260408084209091529082529020546001600160801b0380821691600160801b90041682565b610b7833826000611d6a565b610b8433826001611d6a565b50565b600080610b9383611e47565b92505050610ba18482611e81565b949350505050565b6001600160a01b0381166000908152602081905260409020545b919050565b7f000000000000000000000000000000000000000000000000000000000000000081565b604051806040016040528060018152602001603160f81b81525081565b610c1233610ba9565b610c2e5760405162461bcd60e51b815260040161071190613661565b336000818152603e6020526040808220429055517ff52f50426b32362d3e6bb8cb36b7074756b224622def6352a59eac7f66ebe6e89190a2565b60076020526000908152604090205481565b603d6020526000908152604090205481565b60408051600180825281830190925260009160609190816020015b610caf612c11565b815260200190600190039081610ca75790505090506040518060600160405280306001600160a01b03168152602001610ce785610ba9565b8152602001610cf46107bd565b81525081600081518110610d0457fe5b6020026020010181905250610a17610d1c8483611eac565b6001600160a01b0385166000908152603d60205260409020549061195c565b7f000000000000000000000000000000000000000000000000000000000000000081565b7f000000000000000000000000000000000000000000000000000000000000000081565b60048054604080516020601f60026000196101006001881615020190951694909404938401819004810282018101909252828152606093909290918301828280156106aa5780601f1061067f576101008083540402835291602001916106aa565b60006106de6107bd565b7f000000000000000000000000000000000000000000000000000000000000000081565b6000610e2833610e2133610ba9565b6000611a96565b905060006000198314610e3b5782610e3d565b815b9050610e7a816040518060400160405280600e81526020016d1253959053125117d05353d5539560921b81525084611d3e9092919063ffffffff16565b336000908152603d6020526040902055610edf7f00000000000000000000000000000000000000000000000000000000000000006001600160a01b03167f00000000000000000000000000000000000000000000000000000000000000008684611f9d565b836001600160a01b0316336001600160a01b03167f9310ccfcb8de723f578a9e4282ea9f521f05ae40dc08f3068dfad528a65ee3c783604051610f229190613140565b60405180910390a350505050565b60006106da610f3d611997565b84610a0e856040518060600160405280602581526020016138426025913960016000610f67611997565b6001600160a01b03908116825260208083019390935260409182016000908120918d16815292529020549190611d3e565b60006106da610fa5611997565b8484611c72565b7f10d8d059343739efce7dad10d09f0806da52b252b3e6a7951920d2d6ec4102e581565b601281565b80610ff25760405162461bcd60e51b8152600401610711906132f4565b6000610ffd83610ba9565b9050600061101484308461100f6107bd565b611fbe565b90508015611092577f2468f9268c60ad90e2d49edb0032c8a001e733ae888b3ab8e982edf535be1a76848260405161104d92919061311c565b60405180910390a16001600160a01b0384166000908152603d6020526040902054611078908261195c565b6001600160a01b0385166000908152603d60205260409020555b61109f60008486856116ea565b6001600160a01b0385166000908152603e60205260409020556110c2848461207d565b6110f76001600160a01b037f000000000000000000000000000000000000000000000000000000000000000016333086611f9d565b836001600160a01b0316336001600160a01b03167f5dac0c1b1112564a045ba943c9d50270893e8e826c49be8e7073adc713ab7bd785604051610f229190613140565b336001600160a01b037f000000000000000000000000000000000000000000000000000000000000000016146111825760405162461bcd60e51b815260040161071190613492565b60005b818110156112e8576000603c600085858581811061119f57fe5b90506060020160400160208101906111b79190612ce5565b6001600160a01b03166001600160a01b03168152602001908152602001600020905061121c8484848181106111e857fe5b90506060020160400160208101906112009190612ce5565b8286868681811061120d57fe5b90506060020160200135612131565b5083838381811061122957fe5b61123f9260206060909202019081019150612ff8565b81546001600160801b0319166001600160801b039190911617815583838381811061126657fe5b905060600201604001602081019061127e9190612ce5565b6001600160a01b03167f87fa03892a0556cb6b8f97e6d533a150d4d55fcbf275fff5fa003fa636bcc7fa8585858181106112b457fe5b6112ca9260206060909202019081019150612ff8565b6040516112d79190613731565b60405180910390a250600101611185565b505050565b60008060006112fb84611e47565b509150915061130c828287436121ee565b95945050505050565b60446020526000908152604090205481565b600080600061133584611e47565b5091509150611346828288886121ee565b9695505050505050565b60007f9a9a49b990ba9bb39f8048c490a40ab25c18f55d208d5fbcf958261a9b48716d878787604051602001611389949392919061317d565b6040516020818303038152906040528051906020012090506000604354826040516020016113b89291906130c9565b6040516020818303038152906040528051906020012090506000600182878787604051600081526020016040526040516113f594939291906131f9565b6020604051602081039080840390855afa158015611417573d6000803e3d6000fd5b5050604051601f1901519150506001600160a01b03811661144a5760405162461bcd60e51b815260040161071190613356565b6001600160a01b038116600090815260446020526040902080546001810190915588146114895760405162461bcd60e51b81526004016107119061346b565b864211156114a95760405162461bcd60e51b81526004016107119061343f565b6114b5818a6000611d6a565b6114c1818a6001611d6a565b505050505050505050565b7f000000000000000000000000000000000000000000000000000000000000000081565b6001600160a01b0387166115165760405162461bcd60e51b8152600401610711906134c1565b834211156115365760405162461bcd60e51b81526004016107119061343f565b6001600160a01b0387166000908152604460209081526040808320546043549151909392611590917f6e71edae12b1b97f4d1f60370fef10105fa2faae0126114a169c64845d6126c9918d918d918d9189918e9101613149565b604051602081830303815290604052805190602001206040516020016115b79291906130c9565b604051602081830303815290604052805190602001209050600181868686604051600081526020016040526040516115f294939291906131f9565b6020604051602081039080840390855afa158015611614573d6000803e3d6000fd5b505050602060405103516001600160a01b0316896001600160a01b03161461164e5760405162461bcd60e51b815260040161071190613356565b61165982600161195c565b6001600160a01b038a166000908152604460205260409020556114c189898961199b565b611688338383611d6a565b5050565b6001600160a01b03918216600090815260016020908152604080832093909416825291909152205490565b600281565b603c60205260009081526040902080546001909101546001600160801b0380831692600160801b9004169083565b6001600160a01b0382166000908152603e602052604081205480611712576000915050610ba1565b60006117687f0000000000000000000000000000000000000000000000000000000000000000611762427f0000000000000000000000000000000000000000000000000000000000000000611a54565b90611a54565b90508181111561177b57600091506117d5565b600087821161178a578761178c565b425b9050828110156117a157829350505050610ba1565b6117d16117ae888761195c565b6117cb6117bb88876123de565b6117c58b866123de565b9061195c565b90612418565b9250505b5095945050505050565b60007f10d8d059343739efce7dad10d09f0806da52b252b3e6a7951920d2d6ec4102e58888600181111561180f57fe5b88886040516020016118259594939291906131a1565b6040516020818303038152906040528051906020012090506000604354826040516020016118549291906130c9565b60405160208183030381529060405280519060200120905060006001828787876040516000815260200160405260405161189194939291906131f9565b6020604051602081039080840390855afa1580156118b3573d6000803e3d6000fd5b5050604051601f1901519150506001600160a01b0381166118e65760405162461bcd60e51b815260040161071190613356565b6001600160a01b038116600090815260446020526040902080546001810190915588146119255760405162461bcd60e51b81526004016107119061346b565b864211156119455760405162461bcd60e51b81526004016107119061343f565b611950818b8b611d6a565b50505050505050505050565b600082820183811015610a175760405162461bcd60e51b8152600401610711906132bd565b6005805460ff191660ff92909216919091179055565b3390565b6001600160a01b0383166119c15760405162461bcd60e51b8152600401610711906135a5565b6001600160a01b0382166119e75760405162461bcd60e51b81526004016107119061327b565b6001600160a01b0380841660008181526001602090815260408083209487168084529490915290819020849055517f8c5be1e5ebec7d5bd14f71427d1e84f3dd0314c0f7b2291e5b200ac8c7c3b92590611a42908590613140565b60405180910390a3505050565b600290565b6000610a1783836040518060400160405280601e81526020017f536166654d6174683a207375627472616374696f6e206f766572666c6f770000815250611d3e565b600080611aa785308661100f6107bd565b6001600160a01b0386166000908152603d602052604081205491925090611ace908361195c565b9050811561130c578315611af8576001600160a01b0386166000908152603d602052604090208190555b7f2468f9268c60ad90e2d49edb0032c8a001e733ae888b3ab8e982edf535be1a768683604051611b2992919061311c565b60405180910390a195945050505050565b6001600160a01b038216611b605760405162461bcd60e51b8152600401610711906134e8565b611b6c8260008361245a565b611ba9816040518060600160405280602281526020016137d2602291396001600160a01b0385166000908152602081905260409020549190611d3e565b6001600160a01b038316600090815260208190526040902055600254611bcf9082611a54565b6002556040516000906001600160a01b038416907fddf252ad1be2c89b69c2b068fc378daa952ba7f163c4a11628f55a4df523b3ef90611c10908590613140565b60405180910390a35050565b6112e88363a9059cbb60e01b8484604051602401611c3b92919061311c565b60408051601f198184030181529190526020810180516001600160e01b03166001600160e01b031990931692909217909152612577565b6000611c7d84610ba9565b9050611c8b84826001611a96565b50826001600160a01b0316846001600160a01b031614611d2d576000611cb084610ba9565b9050611cbe84826001611a96565b506001600160a01b0385166000908152603e6020526040902054611ce4818587856116ea565b6001600160a01b0386166000908152603e60205260409020558284148015611d0b57508015155b15611d2a576001600160a01b0386166000908152603e60205260408120555b50505b611d3884848461265c565b50505050565b60008184841115611d625760405162461bcd60e51b81526004016107119190613217565b505050900390565b6001600160a01b038216611d905760405162461bcd60e51b815260040161071190613698565b6000611d9b82611e47565b925050506000611daa85610ba9565b90506000611db88684611e81565b6001600160a01b03878116600090815260208690526040902080546001600160a01b0319169188169190911790559050611df481868487612771565b846001600160a01b0316866001600160a01b03167fe8d51c8e11bd570db1734c8ec775785330e77007feed45c43b608ef33ff914bd86604051611e37919061322a565b60405180910390a3505050505050565b6000808080846001811115611e5857fe5b1415611e6e57506006915060079050603f611e7a565b50604091506041905060425b9193909250565b6001600160a01b0380831660009081526020839052604081205490911680610a1757839150506106de565b600080805b8351811015611f95576000603c6000868481518110611ecc57fe5b602090810291909101810151516001600160a01b031682528101919091526040016000908120600181015481548851929450611f34926001600160801b0380831692600160801b900416908a9088908110611f2357fe5b60200260200101516040015161295d565b9050611f89611f82878581518110611f4857fe5b602002602001015160200151838560020160008c6001600160a01b03166001600160a01b0316815260200190815260200160002054612a56565b859061195c565b93505050600101611eb1565b509392505050565b611d38846323b872dd60e01b858585604051602401611c3b939291906130f8565b6001600160a01b038084166000908152603c602090815260408083209388168352600284019091528120549091908280611ff9888588612131565b905080831461207157861561201657612013878285612a56565b91505b6001600160a01b03808a1660008181526002870160205260409081902084905551918a16917fbb123b5c06d5408bbea3c4fef481578175cfb432e3b482c6186f02ed9086585b90612068908590613140565b60405180910390a35b50979650505050505050565b6001600160a01b0382166120a35760405162461bcd60e51b8152600401610711906136fa565b6120af6000838361245a565b6002546120bc908261195c565b6002556001600160a01b0382166000908152602081905260409020546120e2908261195c565b6001600160a01b0383166000818152602081905260408082209390935591519091907fddf252ad1be2c89b69c2b068fc378daa952ba7f163c4a11628f55a4df523b3ef90611c10908590613140565b6001820154825460009190600160801b90046001600160801b03164281141561215c57509050610a17565b84546000906121779084906001600160801b0316848861295d565b90508281146121cb57808660010181905550866001600160a01b03167f5777ca300dfe5bead41006fbce4389794dbc0ed8d6cccebfaf94630aa04184bc826040516121c29190613140565b60405180910390a25b85546001600160801b03428116600160801b029116178655925050509392505050565b6000438211156122105760405162461bcd60e51b8152600401610711906135e9565b6001600160a01b0383166000908152602085905260409020548061223f5761223784610ba9565b915050610ba1565b6001600160a01b038416600090815260208781526040808320600019850184529091529020546001600160801b031683106122b2576001600160a01b038416600090815260208781526040808320600019909401835292905220546001600160801b03600160801b909104169050610ba1565b6001600160a01b0384166000908152602087815260408083208380529091529020546001600160801b03168310156122ee576000915050610ba1565b600060001982015b818111156123a057600282820304810361230e612c3b565b506001600160a01b038716600090815260208a815260408083208484528252918290208251808401909352546001600160801b03808216808552600160801b909204169183019190915287141561237857602001516001600160801b03169450610ba19350505050565b80516001600160801b031687111561239257819350612399565b6001820392505b50506122f6565b506001600160a01b03851660009081526020888152604080832093835292905220546001600160801b03600160801b90910416915050949350505050565b6000826123ed575060006106de565b828202828482816123fa57fe5b0414610a175760405162461bcd60e51b8152600401610711906133b0565b6000610a1783836040518060400160405280601a81526020017f536166654d6174683a206469766973696f6e206279207a65726f000000000000815250612a78565b6001600160a01b038084166000908152603f602052604080822054858416835291205490821691168161248b578491505b6001600160a01b03811661249c5750825b6124a98282856000612771565b6001600160a01b038086166000908152604260205260408082205487841683529120549082169116816124da578691505b6001600160a01b0381166124eb5750845b6124f88282876001612771565b6008546001600160a01b0316801561256d57604051634a39314960e01b81526001600160a01b03821690634a3931499061253a908b908b908b906004016130f8565b600060405180830381600087803b15801561255457600080fd5b505af1158015612568573d6000803e3d6000fd5b505050505b5050505050505050565b612589826001600160a01b0316612aaf565b6125a55760405162461bcd60e51b8152600401610711906136c3565b60006060836001600160a01b0316836040516125c191906130ad565b6000604051808303816000865af19150503d80600081146125fe576040519150601f19603f3d011682016040523d82523d6000602084013e612603565b606091505b5091509150816126255760405162461bcd60e51b815260040161071190613321565b805115611d3857808060200190518101906126409190612f5a565b611d385760405162461bcd60e51b815260040161071190613617565b6001600160a01b0383166126825760405162461bcd60e51b815260040161071190613529565b6001600160a01b0382166126a85760405162461bcd60e51b815260040161071190613238565b6126b383838361245a565b6126f0816040518060600160405280602681526020016137f4602691396001600160a01b0386166000908152602081905260409020549190611d3e565b6001600160a01b03808516600090815260208190526040808220939093559084168152205461271f908261195c565b6001600160a01b0380841660008181526020819052604090819020939093559151908516907fddf252ad1be2c89b69c2b068fc378daa952ba7f163c4a11628f55a4df523b3ef90611a42908590613140565b826001600160a01b0316846001600160a01b0316141561279057611d38565b60008061279c83611e47565b5090925090506001600160a01b0386161561287e576001600160a01b038616600090815260208290526040812054801561280d576001600160a01b03881660009081526020858152604080832060001985018452909152902054600160801b90046001600160801b03169150612819565b61281688610ba9565b91505b61282f84848a8561282a818c611a54565b612ae8565b6001600160a01b0388167fa0a19463ee116110c9b282012d9b65cc5522dc38a9520340cbaf3142e550127f6128648489611a54565b87604051612873929190613783565b60405180910390a250505b6001600160a01b03851615612955576001600160a01b03851660009081526020829052604081205480156128e9576001600160a01b03871660009081526020858152604080832060001985018452909152902054600160801b90046001600160801b031691506128f5565b6128f287610ba9565b91505b6129068484898561282a818c61195c565b6001600160a01b0387167fa0a19463ee116110c9b282012d9b65cc5522dc38a9520340cbaf3142e550127f61293b848961195c565b8760405161294a929190613783565b60405180910390a250505b505050505050565b600083158061296a575081155b8061297d575042836001600160801b0316145b806129b157507f0000000000000000000000000000000000000000000000000000000000000000836001600160801b031610155b156129bd575083610ba1565b60007f000000000000000000000000000000000000000000000000000000000000000042116129ec5742612a0e565b7f00000000000000000000000000000000000000000000000000000000000000005b90506000612a25826001600160801b038716611a54565b9050612a4b876117c5866117cb670de0b6b3a7640000612a458c886123de565b906123de565b979650505050505050565b6000610ba1670de0b6b3a76400006117cb612a718686611a54565b87906123de565b60008183612a995760405162461bcd60e51b81526004016107119190613217565b506000838581612aa557fe5b0495945050505050565b6000813f7fc5d2460186f7233c927e7db2dcc703c0e500b653ca82273b7bfad8045d85a470818114801590610ba1575050151592915050565b6001600160a01b03831660009081526020858152604080832054918890529091204391908115801590612b39575060001982016000908152602082905260409020546001600160801b038481169116145b15612b6e576000198201600090815260208290526040902080546001600160801b03808716600160801b02911617905561256d565b6040805180820182526001600160801b038086168252868116602080840191825260008781528682528581209451855493518516600160801b029085166001600160801b031990941693909317909316919091179092556001600160a01b038916815290899052206001830190555050505050505050565b82811115612c01578235825591602001919060010190612be6565b50612c0d929150612c52565b5090565b604051806060016040528060006001600160a01b0316815260200160008152602001600081525090565b604080518082019091526000808252602082015290565b5b80821115612c0d5760008155600101612c53565b80356001600160a01b0381168114610bc357600080fd5b803560028110610bc357600080fd5b60008083601f840112612c9e578182fd5b50813567ffffffffffffffff811115612cb5578182fd5b602083019150836020828501011115612ccd57600080fd5b9250929050565b803560ff81168114610bc357600080fd5b600060208284031215612cf6578081fd5b610a1782612c67565b60008060408385031215612d11578081fd5b612d1a83612c67565b9150612d2860208401612c67565b90509250929050565b600080600060608486031215612d45578081fd5b612d4e84612c67565b9250612d5c60208501612c67565b9150604084013590509250925092565b600080600080600080600060e0888a031215612d86578283fd5b612d8f88612c67565b9650612d9d60208901612c67565b95506040880135945060608801359350612db960808901612cd4565b925060a0880135915060c0880135905092959891949750929550565b60008060408385031215612de7578182fd5b612df083612c67565b9150612d2860208401612c7e565b600080600080600080600060e0888a031215612e18578283fd5b612e2188612c67565b9650612d9d60208901612c7e565b60008060408385031215612e41578182fd5b612e4a83612c67565b946020939093013593505050565b600080600060608486031215612e6c578283fd5b612e7584612c67565b925060208401359150612e8a60408501612c7e565b90509250925092565b60008060008060008060c08789031215612eab578182fd5b612eb487612c67565b95506020870135945060408701359350612ed060608801612cd4565b92506080870135915060a087013590509295509295509295565b60008060208385031215612efc578182fd5b823567ffffffffffffffff80821115612f13578384fd5b818501915085601f830112612f26578384fd5b813581811115612f34578485fd5b866020606083028501011115612f48578485fd5b60209290920196919550909350505050565b600060208284031215612f6b578081fd5b81518015158114610a17578182fd5b600080600080600060608688031215612f91578283fd5b853567ffffffffffffffff80821115612fa8578485fd5b612fb489838a01612c8d565b90975095506020880135915080821115612fcc578485fd5b50612fd988828901612c8d565b9094509250612fec905060408701612cd4565b90509295509295909350565b600060208284031215613009578081fd5b81356001600160801b0381168114610a17578182fd5b600060208284031215613030578081fd5b5035919050565b6000806000806080858703121561304c578182fd5b843593506020850135925061306360408601612c67565b9396929550929360600135925050565b6000815180845261308b8160208601602086016137a5565b601f01601f19169290920160200192915050565b600281106130a957fe5b9052565b600082516130bf8184602087016137a5565b9190910192915050565b61190160f01b81526002810192909252602282015260420190565b6001600160a01b0391909116815260200190565b6001600160a01b039384168152919092166020820152604081019190915260600190565b6001600160a01b03929092168252602082015260400190565b901515815260200190565b90815260200190565b9586526001600160a01b0394851660208701529290931660408501526060840152608083019190915260a082015260c00190565b9384526001600160a01b039290921660208401526040830152606082015260800190565b9485526001600160a01b0393909316602085015260408401919091526060830152608082015260a00190565b9485526020850193909352604084019190915260608301526001600160a01b0316608082015260a00190565b93845260ff9290921660208401526040830152606082015260800190565b600060208252610a176020830184613073565b602081016106de828461309f565b60208082526023908201527f45524332303a207472616e7366657220746f20746865207a65726f206164647260408201526265737360e81b606082015260800190565b60208082526022908201527f45524332303a20617070726f766520746f20746865207a65726f206164647265604082015261737360f01b606082015260800190565b6020808252601b908201527f536166654d6174683a206164646974696f6e206f766572666c6f770000000000604082015260600190565b6020808252601390820152721253959053125117d6915493d7d05353d55395606a1b604082015260600190565b6020808252818101527f5361666545524332303a206c6f772d6c6576656c2063616c6c206661696c6564604082015260600190565b602080825260119082015270494e56414c49445f5349474e415455524560781b604082015260600190565b60208082526015908201527424a729aaa32324a1a4a2a72a2fa1a7a7a62227aba760591b604082015260600190565b60208082526021908201527f536166654d6174683a206d756c7469706c69636174696f6e206f766572666c6f6040820152607760f81b606082015260800190565b6020808252602e908201527f436f6e747261637420696e7374616e63652068617320616c726561647920626560408201526d195b881a5b9a5d1a585b1a5e995960921b606082015260800190565b60208082526012908201527124a72b20a624a22fa2ac2824a920aa24a7a760711b604082015260600190565b6020808252600d908201526c494e56414c49445f4e4f4e434560981b604082015260600190565b60208082526015908201527427a7262cafa2a6a4a9a9a4a7a72fa6a0a720a3a2a960591b604082015260600190565b6020808252600d908201526c24a72b20a624a22fa7aba722a960991b604082015260600190565b60208082526021908201527f45524332303a206275726e2066726f6d20746865207a65726f206164647265736040820152607360f81b606082015260800190565b60208082526025908201527f45524332303a207472616e736665722066726f6d20746865207a65726f206164604082015264647265737360d81b606082015260800190565b60208082526017908201527f554e5354414b455f57494e444f575f46494e4953484544000000000000000000604082015260600190565b60208082526024908201527f45524332303a20617070726f76652066726f6d20746865207a65726f206164646040820152637265737360e01b606082015260800190565b60208082526014908201527324a72b20a624a22fa12627a1a5afa72aa6a122a960611b604082015260600190565b6020808252602a908201527f5361666545524332303a204552433230206f7065726174696f6e20646964206e6040820152691bdd081cdd58d8d9595960b21b606082015260800190565b6020808252601b908201527f494e56414c49445f42414c414e43455f4f4e5f434f4f4c444f574e0000000000604082015260600190565b602080825260119082015270494e56414c49445f44454c45474154454560781b604082015260600190565b6020808252601f908201527f5361666545524332303a2063616c6c20746f206e6f6e2d636f6e747261637400604082015260600190565b6020808252601f908201527f45524332303a206d696e7420746f20746865207a65726f206164647265737300604082015260600190565b6001600160801b0391909116815260200190565b6001600160801b0392831681529116602082015260400190565b6001600160801b039384168152919092166020820152604081019190915260600190565b82815260408101610a17602083018461309f565b60ff91909116815260200190565b60005b838110156137c05781810151838201526020016137a8565b83811115611d38575050600091015256fe45524332303a206275726e20616d6f756e7420657863656564732062616c616e636545524332303a207472616e7366657220616d6f756e7420657863656564732062616c616e636545524332303a207472616e7366657220616d6f756e74206578636565647320616c6c6f77616e636545524332303a2064656372656173656420616c6c6f77616e63652062656c6f77207a65726fa2646970667358221220e432b4684b48553d7e62a6604dbed065de3d6e1c5593f1c3e31ff5ae3871cd1864736f6c63430007050033",
  "linkReferences": {},
  "deployedLinkReferences": {}
}