{
  "_format": "hh-sol-artifact-1",
  "contractName": "StarlayRewardsVault",
  "sourceName": "contracts/vault/StarlayRewardsVault.sol",
  "abi": [
    {
      "anonymous": false,
      "inputs": [
        {
          "indexed": true,
          "internalType": "address",
          "name": "previousOwner",
          "type": "address"
        },
        {
          "indexed": true,
          "internalType": "address",
          "name": "newOwner",
          "type": "address"
        }
      ],
      "name": "OwnershipTransferred",
      "type": "event"
    },
    {
      "inputs": [],
      "name": "incentiveController",
      "outputs": [
        {
          "internalType": "address",
          "name": "",
          "type": "address"
        }
      ],
      "stateMutability": "view",
      "type": "function"
    },
    {
      "inputs": [],
      "name": "owner",
      "outputs": [
        {
          "internalType": "address",
          "name": "",
          "type": "address"
        }
      ],
      "stateMutability": "view",
      "type": "function"
    },
    {
      "inputs": [],
      "name": "renounceOwnership",
      "outputs": [],
      "stateMutability": "nonpayable",
      "type": "function"
    },
    {
      "inputs": [
        {
          "internalType": "address",
          "name": "_incentiveController",
          "type": "address"
        }
      ],
      "name": "setIncentiveController",
      "outputs": [],
      "stateMutability": "nonpayable",
      "type": "function"
    },
    {
      "inputs": [
        {
          "internalType": "contract IERC20",
          "name": "token",
          "type": "address"
        },
        {
          "internalType": "uint256",
          "name": "amount",
          "type": "uint256"
        }
      ],
      "name": "transfer",
      "outputs": [],
      "stateMutability": "nonpayable",
      "type": "function"
    },
    {
      "inputs": [
        {
          "internalType": "address",
          "name": "newOwner",
          "type": "address"
        }
      ],
      "name": "transferOwnership",
      "outputs": [],
      "stateMutability": "nonpayable",
      "type": "function"
    }
  ],
  "bytecode": "0x608060405234801561001057600080fd5b50600061001b61006a565b600080546001600160a01b0319166001600160a01b0383169081178255604051929350917f8be0079c531659141344cd1fd0a4f28419497f9722a3daafe3b4186f6b6457e0908290a35061006e565b3390565b6104cd8061007d6000396000f3fe608060405234801561001057600080fd5b50600436106100625760003560e01c806301056e64146100675780635b9fe37f1461008f578063715018a6146100b35780638da5cb5b146100bb578063a9059cbb146100c3578063f2fde38b146100ef575b600080fd5b61008d6004803603602081101561007d57600080fd5b50356001600160a01b0316610115565b005b610097610199565b604080516001600160a01b039092168252519081900360200190f35b61008d6101a8565b610097610254565b61008d600480360360408110156100d957600080fd5b506001600160a01b038135169060200135610263565b61008d6004803603602081101561010557600080fd5b50356001600160a01b031661034b565b61011d61044d565b6001600160a01b031661012e610254565b6001600160a01b031614610177576040805162461bcd60e51b81526020600482018190526024820152600080516020610478833981519152604482015290519081900360640190fd5b600180546001600160a01b0319166001600160a01b0392909216919091179055565b6001546001600160a01b031681565b6101b061044d565b6001600160a01b03166101c1610254565b6001600160a01b03161461020a576040805162461bcd60e51b81526020600482018190526024820152600080516020610478833981519152604482015290519081900360640190fd5b600080546040516001600160a01b03909116907f8be0079c531659141344cd1fd0a4f28419497f9722a3daafe3b4186f6b6457e0908390a3600080546001600160a01b0319169055565b6000546001600160a01b031690565b61026b61044d565b6001600160a01b031661027c610254565b6001600160a01b0316146102c5576040805162461bcd60e51b81526020600482018190526024820152600080516020610478833981519152604482015290519081900360640190fd5b6001546040805163a9059cbb60e01b81526001600160a01b0392831660048201526024810184905290519184169163a9059cbb916044808201926020929091908290030181600087803b15801561031b57600080fd5b505af115801561032f573d6000803e3d6000fd5b505050506040513d602081101561034557600080fd5b50505050565b61035361044d565b6001600160a01b0316610364610254565b6001600160a01b0316146103ad576040805162461bcd60e51b81526020600482018190526024820152600080516020610478833981519152604482015290519081900360640190fd5b6001600160a01b0381166103f25760405162461bcd60e51b81526004018080602001828103825260268152602001806104526026913960400191505060405180910390fd5b600080546040516001600160a01b03808516939216917f8be0079c531659141344cd1fd0a4f28419497f9722a3daafe3b4186f6b6457e091a3600080546001600160a01b0319166001600160a01b0392909216919091179055565b339056fe4f776e61626c653a206e6577206f776e657220697320746865207a65726f20616464726573734f776e61626c653a2063616c6c6572206973206e6f7420746865206f776e6572a26469706673582212207631952d24b200e48e25ad48ad3ee0267c8e5fadffac47d2a1c61e23cbc4672b64736f6c63430007050033",
  "linkReferences": {},
  "deployedLinkReferences": {}
}